:020000040800F2
:10000000B004002001010008FB0D00085F0D00088E
:10001000F90D0008990100087110000800000000A7
:10002000000000000000000000000000110E0008A9
:10003000B303000800000000FD0D0008990E000841
:100040001B0100081B0100081B0100081B01000820
:100050001B0100081B0100081B0100081B01000810
:100060001B0100081B0100081B0100081B01000800
:100070001B0100081B0100081B0100081B010008F0
:100080001B0100081B0100081B0100081B010008E0
:100090001B0100081B0100081B0100081B010008D0
:1000A0001B0100081B0100081B0100081B010008C0
:1000B0001B0100081B0100081B0100081B010008B0
:1000C0001B0100081B0100081B0100081B010008A0
:1000D0001B0100081B0100081B0100081B01000890
:1000E0001B0100081B0100081B010008DFF80CD0F1
:1000F00000F040F800480047A9120008B0040020B2
:100100000648804706480047FEE7FEE7FEE7FEE7B1
:10011000FEE7FEE7FEE7FEE7FEE7FEE7ED0E00087E
:10012000ED000008D2B201E000F8012B491EFBD21D
:1001300070470022F6E710B513460A4604461946F2
:10014000FFF7F0FF204610BD30B50B4601460020FA
:100150002022012409E021FA02F59D4205D303FA89
:1001600002F5491B04FA02F52844151EA2F101020A
:10017000F1DC30BD064C074D06E0E06840F00103BD
:1001800094E8070098471034AC42F6D3FFF7B2FF6B
:100190001013000830130008FEE70000052903D003
:1001A00000EB8100C26270475FF0000100EB810349
:1001B000491CC9B2DA620629F8D370472DE9F0412B
:1001C0001E4615460C00074604D1162210A116A0A3
:1001D00000F050FF4C212046FFF7ABFF3946201DB1
:1001E00000F022FE072004F8240F6070207144F80C
:1001F000245CA670A847E070002084F822000E4816
:1002000001686162243C0460BDE8F04100F002BE78
:100210002E2E5C436F72655C5372635C41755F4266
:100220007574746F6E2E63000A4572726F723A2590
:10023000732C25640D0A00001000002001A000F0BE
:1002400019BF0000427574746F6E20E58F8CE587CE
:10025000BB0D0A0001A000F00DBF000042757474D0
:100260006F6E20E58D95E587BB0D0A00054810B53A
:10027000046803E0204600F013F8A46C002CF9D1C8
:1002800010BD00001000002001A000F0F3BE00002F
:10029000427574746F6E20E995BFE68C890D0A0073
:1002A0002DE9F04104460068804794F827100025A6
:1002B00081421DD094F84610491CC9B284F84610FA
:1002C000022915D384F8270084F8465094F82400B6
:1002D000072803D0022801D018B109E084F824507F
:1002E00006E0012084F82400216B09B120468847EC
:1002F00094F824000327D8B1072601282FD002281C
:1003000014D194F84500401CC0B284F845000F2871
:100310000CD384F8246084F8256084F84550E16AA1
:1003200009B12046884704F8246F6570BDE8F08164
:1003300094F8270094F826108842F7D184F82850C2
:1003400094F84700401CC0B284F847003228EDD32F
:1003500084F82870FF28E9D184F84770E6E794F81C
:10036000280058B10328E1D1E16B09B12046884744
:1003700084F8475004F8246F6770D7E794F8451065
:1003800002200F2903D894F82510022907D004F879
:10039000455FA57004F8210C04F8200CC6E784F82A
:1003A0002800616B09B12046884704F8246F667005
:1003B000BCE7704772B6FEE770B5044600F008F976
:1003C0000546601C02D004480078044400F000F99F
:1003D000401BA042FAD370BD000000202DE9F84F69
:1003E000DFF8B8910024A9F1040B23460F2709F187
:1003F000040AABF1040EC9E00125A5402A40AA4237
:100400007DD1674ED1F804C0ACEB0608B44532D0BC
:1004100014DCBCF1030F3AD009DCBCF1000F2AD088
:10042000BCF1010F1CD0BCF1020F31D11DE0BCF1B9
:10043000110F17D0BCF1120F2AD119E0B8F5881F9F
:1004400019D006DCB8F5803F15D0B8F5801F1FD154
:1004500011E0B8F5001F0ED0B8F5041F18D10AE05E
:10046000CB6815E0CB681B1D12E0CB6808330FE0AA
:10047000CB680C330CE08B682BB1012B4FF00803D9
:1004800003D0456104E0042302E0056100E000239D
:10049000FF2A01D8064601E000F104064FEA840570
:1004A00001D9A5F12005D6F8008007FA05FC28EA55
:1004B0000C0803FA05F548EA0508C6F800804D68FF
:1004C000ED0062D5374DAE6946F00106AE61AD690B
:1004D00024F0030605F001050095334D06EB050CED
:1004E000DCF80850A607360F07FA06F825EA0805D3
:1004F000DFF8B880404503D14FF0000817E044E032
:10050000DFF8AC80404502D14FF001080FE0DFF882
:10051000A480404502D14FF0020808E0DFF898803F
:10052000404502D14FF0030801E04FF0040808FAFB
:1005300006F848EA0508CCF808804D68D9F800604C
:10054000ED024D4601D5164300E096432E604D68FE
:10055000DAF80060AD02554601D5164300E0964337
:100560002E604D68DBF80060AD035D4601D5164393
:1005700000E096432E604D68DEF80060ED0375469E
:1005800001D5164300E096432E60641C0D682A4690
:10059000E5407FF431AFBDE8F88F0000080401406A
:1005A000000011100010024000000140000801404E
:1005B000000C014000100140001401408068084018
:1005C00000D0012070470AB1016170470904FBE7C0
:1005D00001488068704700000000002002488168E0
:1005E000027811448160704700000020074810B570
:1005F000016841F010010160032000F067F80F204E
:1006000000F006F800F024F8002010BD00200240A1
:1006100070B50D4D04464FF47A712878B1FBF0F0B7
:100620000A490968B1FBF0F000F0CEFA48B9102C85
:1006300007D200222146501E00F028F800206C60EE
:1006400070BD012070BD0000000000200C000020E3
:100650000C4808B5816941F001018161816901F0AF
:1006600001010091C16941F08051C161C06900F090
:10067000805000900448416821F0E06141F0007131
:10068000416008BD0010024000000140F0B40E4B74
:100690001B680C46C3F30223C3F10705042D00D9E0
:1006A0000425191D072901D2002300E0DB1E0126C5
:1006B00006FA05F1491E214099409E40761E1640DB
:1006C0003143F0BC00F0E6BC0CED00E0064900F060
:1006D000070208684FF6FF03184040EA0220034A69
:1006E00010430860704700000CED00E00000FA05C0
:1006F0002DE9F0470F46050061D0434E306800F009
:100700000700B84209D2306820F007003843306053
:10071000306800F00700B84251D128683B4C81078F
:1007200012D5400703D5606840F4E0606060287827
:10073000000703D5606840F4605060606068A96895
:1007400020F0F000084360602878C00728D068686F
:10075000012810D02168022810D0890700292EDA3C
:10076000616821F0030101436160FFF731FF8046BA
:1007700041F288390DE021688903EFE78901EDE74F
:10078000FFF726FFA0EB0801494502D90320BDE889
:10079000F0876068696800F00C00B0EB810FEFD162
:1007A000306800F00700B8420BD9306820F007002D
:1007B00038433060306800F00700B84201D00120B3
:1007C000E5E72878400705D56068E96820F4E0602F
:1007D000084360602878000706D56068296920F41E
:1007E000605040EAC100606000F038F86168084A73
:1007F000C1F30311515CC84006490860064800680F
:10080000FFF706FF0020C2E7002002400010024070
:10081000F61200080C0000200400002004480549DE
:1008200000684968044AC1F30221515CC84070471E
:100830000C0000200010024006130008044805497F
:1008400000684968044AC1F3C221515CC84070473E
:100850000C00002000100240061300080E4A5168E8
:100860000E4801F00C03042B11D0082B0FD10C48BB
:10087000C1F38343C903C05C0AD55168084AC1F378
:100880004041921E515C054A5043B0FBF1F0704765
:1008900004494843704700000010024000127A00EB
:1008A000E612000800093D002DE9F84F040070D061
:1008B0002078C04DC00749D06868C0F38100012886
:1008C00007D06868C0F38100022809D16868C003B6
:1008D00006D52868800339D560680028E7D035E060
:1008E0006068B0F5803F0BD010B1B0F5A02F11D0EB
:1008F000286820F480302860286820F4802002E0F6
:10090000286840F480302860606890B1FFF760FE8E
:1009100006460AE0286840F480202860F0E700BF1F
:10092000FFF756FE801B642873D828688003F7D52C
:100930000CE0FFF74DFE064605E000BFFFF748FE5E
:10094000801B6428F0D828688003F7D420789A4E5A
:1009500080074FF001094FF0000839D5686810F0A2
:100960000C0F07D06868C0F38100022809D16868BD
:10097000C00306D42868800714D52069012808D14F
:1009800010E02069B0B1C6F80090FFF721FE0746DD
:1009900005E00AE1FFF71CFEC01B0228C4D8286846
:1009A0008007F7D52868616920F0F80040EAC100A7
:1009B00028600DE0C6F80080FFF70AFE074604E055
:1009C000FFF706FEC01B022823D828688007F7D44B
:1009D000207800072CD57948A169D9B1C0F80090DA
:1009E000FFF7F6FD074604E0FFF7F2FDC01B022803
:1009F0000FD8686A8007F7D571484FF4FA5100683C
:100A0000B0FBF1F0009000BF0098411E0091FAD2B7
:100A10000EE080E0C0F80080FFF7DAFD074604E052
:100A2000FFF7D6FDC01B022875D8686A8007F7D487
:100A30002078400760D5E8690027C00008D4E8693D
:100A400040F08050E861E869012700F08050009094
:100A50005C480168C90513D40168834641F480717C
:100A60000160FFF7B5FD824606E000BFFFF7B0FD6D
:100A7000A0EB0A0064284ED8DBF80000C005F5D5CD
:100A8000E06801280AD008B1052813D0286A20F0B0
:100A900001002862286A20F0040002E0286A40F081
:100AA00001002862E06841F2883B98B1FFF790FDB1
:100AB00082460BE0286A40F004002862EEE700BF9F
:100AC000FFF786FDA0EB0A0159455AD8286A80072E
:100AD000F6D50CE0FFF77CFD824605E0FFF778FDD8
:100AE000A0EB0A0159454CD8286A8007F6D41FB1FB
:100AF000E86920F08050E861E06988B36968C1F373
:100B00008101022944D00228C6F8608004D0FFF792
:100B10005FFD044638E034E0FFF75AFD074604E085
:100B2000FFF756FDC01B02282BD828688001F7D498
:100B3000206AB0F5803F05D16868A16820F40030D4
:100B400008436860D4E908010843696821F4741116
:100B500008436860C6F86090FFF73AFD044606E077
:100B600025E000BFFFF734FD001B022809D82868E4
:100B70008001F7D51BE000BFFFF72AFD001B02280C
:100B800002D90320BDE8F88F28688001F4D40EE074
:100B90000128F7D06868226A00F48031914204D1BC
:100BA000616A00F47010884201D00120EAE7002059
:100BB000E8E7000000100240000042428004424288
:100BC0000C0000200070004010B5401EB0F1807F86
:100BD00001D3012010BD4FF0E02460610F216017A8
:100BE00000F058FA0020A06107202061002010BD0D
:100BF00070B5040004D094F84100002510B106E05F
:100C0000012070BD84F84050204600F023F82420D5
:100C100084F841002068C16821F40051C160204679
:100C200000F08EF92068016921F49041016120688B
:100C3000416921F02A0141612068C16841F40051F5
:100C4000C1606564202084F8410084F84200656337
:100C5000002070BD30B585B000240094019402944A
:100C6000039400681449884224D11448816941F4EE
:100C700080418161816901F480410491816941F081
:100C80000401816180690E4D00F0040004904FF46E
:100C900000700090022001900320039069462846CE
:100CA000FFF79CFB2815CDE900046946284602940D
:100CB000FFF794FB05B030BD003801400010024042
:100CC000000801402DE9F843044690F841001F4612
:100CD00016460D46202802D00220BDE8F8837DB1DB
:100CE00076B100206064212084F84100FFF770FC99
:100CF000A6848046E684A068B0F5805F02D003E059
:100D00000120EAE7206910B12E4600250EE00026FA
:100D10000CE08021204600F06FF9A0B9AEB116F8C2
:100D2000010B21684860E08C401EE084E08C434663
:100D30004FF0000200970028EBD14FF04001204611
:100D400000F05AF930B10320C7E735F8020BC0F3C1
:100D50000800E6E7202084F841000020BDE7FEE718
:100D600010B586B00020019003901248816941F0CF
:100D700008018161816901F008010491816941F0F4
:100D8000040181618069012400F0040004904FF4A3
:100D900000600090694602940748FFF71FFB02209D
:100DA000CDE902400094694601940448FFF716FB20
:100DB00006B010BD00100240000C014000080140C8
:100DC0000C4810B50A4901604FF4165141600021EA
:100DD00081600C22C160C0E904128161C161FFF72A
:100DE00007FF002803D0BDE81040FFF7E3BA10BDAD
:100DF0000038014064000020FEE7FEE77047000075
:100E00004FF400610148FFF7D9BB0000000C01401E
:100E1000704700000348006800E0806C0028FCD1A7
:100E200070470000100000202DE9F0410D4607003A
:100E300004464FF0000600D045B94FF4A1720CA152
:100E400011A000F017F901E0761CF6B215F8010BBD
:100E500004F8010B0028F7D1202E05D34FF4A5721A
:100E600003A109A000F006F93846BDE8F0810000B2
:100E70002E2E5C436F72655C5372635C41755F42FA
:100E80007574746F6E2E63000A4572726F723A2524
:100E9000732C25640D0A0000FFF7A0BB10B590B0BD
:100EA00028216846FFF745F914210AA8FFF741F900
:100EB0000220009001200490102000240590079447
:100EC0006846FFF7F1FC08B172B6FEE70F20CDE9E6
:100ED0000A040C940D9400210AA80E94FFF708FC54
:100EE000002801D072B6FEE710B010BD70470000B8
:100EF00010B500230A4A0B490BA0FFF75FF90D4A12
:100F000000210848FFF74AF90B4A02210548FFF77C
:100F100045F9BDE81040094A04210248FFF73EB9EF
:100F2000010E000818000020546573744275747433
:100F30006F6E0000550200083D020008890200089B
:100F400070B5044600680169E26821F4405111431C
:100F500001612169A0680843616908432168CA6882
:100F600041F20C639A430243CA6020684169A26956
:100F700021F44071114341611E492068884202D129
:100F8000FFF75CFC01E0FFF749FC00EBC00101EB5F
:100F90000012606864218000B2FBF0F3B3FBF1F350
:100FA0006FF018067343B2FBF0F5B2FBF0F605EBF9
:100FB0008305322303EB0515B5FBF1F5B6FBF1F61E
:100FC00005F0F00505EB0615B2FBF0F6B2FBF0F00C
:100FD000B0FBF1F06FF01802504306EB800003EB1A
:100FE0000010B0FBF1F0216800F00F002844886089
:100FF00070BD0000003801402DE9F04198461746C9
:101000000E460446069D27E0681C25D02DB1FFF74B
:10101000DFFAA0EB0800A8421ED920680C3050E887
:10102000001F21F4D07140E80012002AF5D1206899
:10103000143050E8001F21F0010140E80012002A9E
:10104000F5D1202084F8410084F84200002084F883
:1010500040000320BDE8F0812068006836EA000007
:1010600004D00020B842CFD00020F3E70120F9E7F8
:10107000FEE700000FB4054B10B503A9044A02981F
:1010800000F028F810BC5DF814FB00008D12000879
:10109000140000200907090E002804DB00F1E020FD
:1010A00080F80014704700F00F0000F1E02080F895
:1010B000141D704702E008C8121F08C1002AFAD1A7
:1010C00070477047002001E001C1121F002AFBD1C8
:1010D000704700002DE9FF4F8BB09A460F4605463A
:1010E000002606E025280BD052460D9990476D1C2E
:1010F000761C28780028F5D10FB03046BDE8F08F77
:101100000024A0460122604900E0044315F8013F95
:10111000203B02FA03F00842F7D128782E2817D195
:1011200015F8010F44F004042A280ED06FF02F02A6
:101130002878A0F1300109290AD808EB880102EBD0
:10114000410100EB01086D1CF2E757F8048B6D1CA0
:10115000287869283ED006DC0028CDD063280BD043
:10116000642804D136E0732810D075284BD052463D
:101170000D999047761C85E017F8040B8DF8000058
:1011800000208DF80100E946012003E057F8049B98
:101190004FF0FF3061074FF0000401D40AE0641CF7
:1011A00044450DDA8442FADB19F804100029F6D11F
:1011B00006E0641C8442FCDB19F804100029F8D115
:1011C000264404E019F8010B52460D999047641E1D
:1011D000F8D257E001CF4FF00A0B002802DA404264
:1011E0002D2102E0210504D52B218DF824100121A9
:1011F00003E0E10705D02021F7E70DF12009089170
:101200000CE00021F9E701CF4FF00A0BF9E759464E
:10121000FEF79AFF01F1300209F8012D0028F6D1FE
:10122000ADEB090000F1200B600701D44FF001087D
:10123000D84502DDA8EB0B0000E00020804600242A
:1012400006E009A85246005D0D999047641C761C83
:1012500008988442F5DB04E0302052460D9990470F
:10126000761CB8F10001A8F10108F5DC05E019F8D9
:10127000010B52460D999047761CBBF10001ABF172
:10128000010BF4DC6D1C34E70928010038B5044675
:101290008DF800000223012269460248FFF712FD83
:1012A000204638BD64000020FFF7A0F9FFF7F6FDE7
:1012B000FFF756FDFFF784FD07A0FFF7DBFE0122D5
:1012C00011460748FFF77FF9FFF712FEFEF7CEFF42
:1012D0001420FFF771F8F9E768656C6C6F0D0A0070
:1012E00000080140010202030405060708090A0B71
:1012F0000C0D0E0F10100000000000000000010295
:1013000003040607080900000000010203040000AE
:10131000301300080000002018000000B41000087E
:10132000481300081800002098040000C4100008AA
:101330000100000010000000000000000024F40084
:081340000000000000000000A5
:04000005080000ED02
:00000001FF
