:020000040800F2
:10000000201F0020990100088D220008AB1C000869
:10001000ED1F00089B070008292C000800000000C5
:1000200000000000000000000000000001010008C6
:10003000B50700080000000045010008AD280008D1
:10004000B3010008B3010008B3010008B3010008C0
:10005000B3010008B3010008B3010008B3010008B0
:10006000B3010008B3010008B3010008B3010008A0
:10007000B3010008B3010008B3010008B301000890
:10008000B3010008B3010008B3010008B301000880
:10009000B3010008B3010008B3010008B301000870
:1000A000B3010008B3010008B3010008B301000860
:1000B000B3010008B301000845290008B301000896
:1000C000B3010008B3010008B3010008B301000840
:1000D000B3010008B3010008B3010008B301000830
:1000E000B3010008B3010008B3010008DFF80CD029
:1000F00000F016FB00480047052E0008201F0020D6
:10010000224B19680868B0E8F00F80F30988BFF344
:100110006F8F4FF0000080F311884EF00D0E704786
:100120000000000006480068006880F3088862B696
:1001300061B6BFF34F8FBFF36F8F00DF00BF00BF0B
:1001400008ED00E0EFF30980BFF36F8F0F4B1A68E3
:1001500020E9F00F106008B54FF0500080F31188CF
:10016000BFF34F8FBFF36F8F03F00AFD4FF0000016
:1001700080F31188BDE8084019680868B0E8F00FFE
:1001800080F30988BFF36F8F704700BF1400002011
:10019000EFF3058070470000064880470648004797
:1001A000FEE7FEE7FEE7FEE7FEE7FEE7FEE7FEE727
:1001B000FEE7FEE741290008ED000008202A04DBE5
:1001C000203A21FA02F00021704721FA02F3D040D0
:1001D000C2F12002914008431946704740EA0103EA
:1001E0009B0703D009E008C9121F08C0042AFAD2ED
:1001F00003E011F8013B00F8013B521EF9D27047B1
:10020000D2B201E000F8012B491EFBD27047002258
:10021000F6E710B513460A4604461946FFF7F0FF05
:10022000204610BDF0B480EA0102D40F4200B2EBC8
:10023000410F02D20246084611464A0042D0C30D81
:10024000DDB2C1F3C752AD1A202D35DAC1F3160164
:1002500041F4000204B15242C5F1200602FA06F14F
:100260002A411044B3EBD05F23D0C4B1012DA0EBE1
:10027000C35009DCF0BC4FF0004202EAC352DBB2CB
:1002800000F5000000F0C0B9400000F1807000EB04
:10029000C350A0F1807040EAD170490009E04908DC
:1002A00041EAC071A0EBC35000F50000400800EB2C
:1002B000C350F0BC00F09FB96142012202EB410142
:1002C000001BF6E7F0BC704781F00041AAE780F020
:1002D0000040A7E780EA010210B502F000434000A9
:1002E00022D04A001FD0010E01EB1261C0F356006C
:1002F000C2F3560240F4000042F40002A0FB0220C8
:1003000000047F39140400D0401C50EA124001D48C
:100310004000491EC2B20C0604EBD010401C40083D
:10032000802A02D003E0002010BD20F00100002947
:1003300000DA0020184310BD2DE9FE4F81EA0304C6
:1003400004F0004421F0004100944FF0000B23F032
:10035000004350EA01045ED052EA03045BD0C3F3C9
:100360000A54C1F30A552C44A4F2F3340194A0FBBF
:100370000254C1F3130141F48011C3F3130343F496
:10038000801301FB024400FB034E840A970A44EAEF
:10039000815447EA8357A4FB076802958D0A05FB41
:1003A00007854FEA932C04FB0C542705029D4FEA66
:1003B000065847EA1637B5EB08056EEB070C870EB3
:1003C000920E47EA811742EA8312A7FB0201B6EBBD
:1003D0000B0164EB00042B0D43EA0C335E1844EB75
:1003E0001C50DA465146E7FB0201C5F313044FEAFD
:1003F0000B3343EA14534FEA0432019C43EA0603E9
:10040000A4F10C040294009CCDE900B400F039F989
:1004100003B0BDE8F08F00200146F9E72DE9F04D6B
:1004200081EA030404F0004B21F0004514464FF02C
:10043000000A23F0004150EA050220D054EA0102EC
:100440001DD0C5F30A570246C5F31303C1F31300C9
:10045000C1F30A5640F4801543F48013A7EB060855
:10046000101BD64608F2FD3873EB050002D308F1E5
:10047000010801E092185B41B8F1000F03DA002097
:100480000146BDE8F08D00204FF4801106468446F9
:100490000EE0171B73EB050705D3121B63EB050377
:1004A00006434CEA010C49084FEA300092185B41C0
:1004B00050EA0107EDD152EA030012D082EA0400AB
:1004C00083EA0501084305D0101BAB4106D2012287
:1004D000002306E000224FF0004302E06FF001022B
:1004E00053101AEB06004CEB085110EB0A0041EBDD
:1004F0000B01BDE8F04D00F0B5B89623002211467F
:1005000000F082B80EB540F2334102910021CDE9EE
:1005100000110A460B4600F0B4F803B000BD00F02D
:10052000004230F000400AD0C10D01F56071C0F307
:10053000160042EA0151C2084007114370470020EB
:100540000146704730B5041E71F1000404DB4FF022
:100550000044404264EB0101141E73F1000405DB0A
:100560001C464FF00043524263EB04038B4208BF2A
:10057000824230BD01F0004330B421F0004150EA26
:10058000010206D00A0DA2F56072C1F31301002A20
:1005900002DC30BC00207047440F44EAC104C100B3
:1005A000E01830BC00EBC25000F025B830B50B4667
:1005B000014600202022012409E021FA02F59D4293
:1005C00005D303FA02F5491B04FA02F52844151E67
:1005D000A2F10102F1DC30BD202A04DB203A00FA4E
:1005E00002F1002070479140C2F1200320FA03F38A
:1005F0001943904070470029A8BF7047401C49002C
:1006000008BF20F00100704710B4B0FA80FC00FA77
:100610000CF050EA010404BF10BC704749B1CCF1A2
:10062000200421FA04F411FA0CF118BF012121432E
:100630000843A3EB0C01CB1D4FEA00614FEA1020E9
:1006400042BF002010BC704700EBC350104400298B
:10065000A4BF10BC7047401C490008BF20F0010037
:1006600010BC704710B5141E73F1000408DA401C6A
:1006700041F1000192185B411A4301D120F00100C1
:1006800010BD2DE9F04D92469B4611B1B1FA81F2B1
:1006900002E0B0FA80F220329046FFF79DFF044658
:1006A0000F4640EA0A0041EA0B0153465A46084306
:1006B00013D0114653EA010019D0C8F14002504648
:1006C000FFF77CFD05460E46504659464246FFF769
:1006D00083FF084305D0012004E020463946BDE8E9
:1006E000F08D0020054346EAE0762C4337430A9814
:1006F0006305E40AA0EB08000022FD0A44EA47541F
:100700000A3002D500200146E9E7010510196941C8
:10071000DDE9084500196941BDE8F04DA2E7000098
:10072000064C074D06E0E06840F0010394E807003E
:1007300098471034AC42F6D3FFF7DCFCC045000804
:10074000E045000870B5044600688168C943C907E0
:1007500017D1816821F00101816000F0EBFA0546B4
:100760000AE000BF00F0E6FA401B022804D9206826
:100770008068C043C00706D020688068C043C007B7
:10078000F0D0002070BDA06A40F01000A062E06AC6
:1007900040F00100E062012070BDFEE70448002146
:1007A00041610161C160816041600160704700008A
:1007B000081B002070470000F8B511A002F036FABF
:1007C000124F8021384600F0ABFA064679153846BC
:1007D00000F0A6FA05464021384600F0A1FA04468A
:1007E000B915384600F09CFA01462B46224608A06F
:1007F000009602F01BFABDE8F84009A002F016BA14
:100800005B44454255475D203E3E2000000C0140C0
:100810002564202564202564202564200000000034
:100820000D0A0000164B1A2810D01B2812D00E28D3
:1008300014D0202816D0212818D019281AD00C2816
:100840001CD1CAB20221184600F06FBACAB24FF4E6
:100850008061F8E7CAB24FF40061F4E7CAB24FF41E
:100860008051F0E7CAB24FF40051ECE7CAB24FF43E
:100870008041E8E7CAB24FF40041E4E77047000066
:10088000000C014010B50C4608A002F0CFF90AA0F8
:1008900002F0CCF90BA002F0C9F9E2B2BDE81040B9
:1008A0004FF40061084800F040BA00005B44454244
:1008B00055475D203E3E2000535441525420564837
:1008C000454E00000D0A00000008014072B6FEE728
:1008D000F8B50024009490F824202546012A12D06F
:1008E000012280F824204A681F23072A0DD20668B7
:1008F000776B521E02EB820293409F430B6893403A
:100900001F43776319E00220F8BD06680D2A0AD25A
:10091000376BD21F02EB820293409F430B689340D8
:100920001F43376309E0F76A0D3A02EB82029340F6
:100930009F430B6893401F43F7620A6807230668CA
:100940000A2A0AD3F7680A3A02EB420293409F430D
:100950008B6893401F43F76008E0376902EB42025F
:1009600093409F438B6893401F4337610A68102A66
:1009700001D0112A20D1124B02689A4217D19368F4
:100980001B0219D4936843F400039360096810298B
:1009900012D10C490C4A0968B1FBF2F101EB81015B
:1009A000490000E0491E00910029FBD104E0816A62
:1009B00041F020018162012480F824502046F8BDD6
:1009C000002401401000002040420F002DE9F041BA
:1009D0004FF0000704003D467ED0A06A002628B9EB
:1009E000E66284F82460204600F07EF82046FFF797
:1009F000A9FEA16AC90600D420B1A06A40F0100087
:100A0000A06269E0A16A21F4885141F00201A1626B
:100A10006268E169237B0A4347EA43010A43A1680C
:100A20004FF48077B94209D0012907D05FF0000167
:100A300094F814C0BCF1010F02D00AE03946F7E780
:100A4000F3B1A36A43F02003A362E36A43F0010316
:100A5000E3622368D3F804C02CF4694C4CEA010C1F
:100A6000C3F804C021688B68DFF870C003EA0C0388
:100A700013438B60A168B9420BD0012909D00CE067
:100A8000DFF85CC0A3690CEB43330B4343F4006114
:100A9000DFE7218A0D05A5F580152168CB6A23F4CF
:100AA00070032B43CB62216889680E4B1940914239
:100AB00008D1E662A16A21F0020141F00101A162C0
:100AC000BDE8F081A06A20F0020040F01000A062B2
:100AD000E06A40F00100E0620120F1E7FDF7E1FF8C
:100AE00000E0FFFFFE0E1FFF00B585B00021009162
:100AF00001910291039100680E49884217D10E4876
:100B0000816941F400718161816901F4007104918E
:100B1000816941F0040181618069694600F0040047
:100B20000490032000900190044800F009F805B0FB
:100B300000BD0000002401400010024000080140F8
:100B40002DE9F84FDFF8B8910024A9F1040B2346F2
:100B50000F2709F1040AABF1040EC9E00125A540F5
:100B60002A40AA427DD1674ED1F804C0ACEB0608FA
:100B7000B44532D014DCBCF1030F3AD009DCBCF12F
:100B8000000F2AD0BCF1010F1CD0BCF1020F31D1F3
:100B90001DE0BCF1110F17D0BCF1120F2AD119E0E2
:100BA000B8F5881F19D006DCB8F5803F15D0B8F528
:100BB000801F1FD111E0B8F5001F0ED0B8F5041F3B
:100BC00018D10AE0CB6815E0CB681B1D12E0CB689A
:100BD00008330FE0CB680C330CE08B682BB1012B92
:100BE0004FF0080303D0456104E0042302E00561EF
:100BF00000E00023FF2A01D8064601E000F10406C8
:100C00004FEA840501D9A5F12005D6F8008007FA3E
:100C100005FC28EA0C0803FA05F548EA0508C6F8B9
:100C200000804D68ED0062D5374DAE6946F0010693
:100C3000AE61AD6924F0030605F001050095334D62
:100C400006EB050CDCF80850A607360F07FA06F885
:100C500025EA0805DFF8B880404503D14FF00008C9
:100C600017E044E0DFF8AC80404502D14FF00108C6
:100C70000FE0DFF8A480404502D14FF0020808E001
:100C8000DFF89880404502D14FF0030801E04FF0B3
:100C9000040808FA06F848EA0508CCF808804D6808
:100CA000D9F80060ED024D4601D5164300E09643A9
:100CB0002E604D68DAF80060AD02554601D5164346
:100CC00000E096432E604D68DBF80060AD035D46A2
:100CD00001D5164300E096432E604D68DEF80060B3
:100CE000ED03754601D5164300E096432E60641C63
:100CF0000D682A46E5407FF431AFBDE8F88F00006B
:100D000008040140000011100010024000000140E2
:100D100000080140000C0140001001400014014097
:100D20008068084000D0012070470AB10161704717
:100D30000904FBE7014880687047000004000020B8
:100D400002488168027811448160704704000020E5
:100D5000074810B5016841F010010160032000F060
:100D6000A7F80F2000F006F800F050F8002010BDA2
:100D70000020024030B505461F4887B0C16941F0E8
:100D80000401C161C06906A900F00400009001A837
:100D900000F0ACF90498B0B100F0C8F94000174970
:100DA000174AB0FBF1F11748491E0260416040F25A
:100DB000E7320021C0E903218160816100F002FD7A
:100DC000040003D015E000F0B1F9E8E70D4800F0A9
:100DD0003BFD04000DD11E2000F03CF8102D07D281
:100DE000002229461E2000F043F80748056000E075
:100DF000012407B0204630BD0010024040420F00E1
:100E000000080040C0080020080000200F4808B576
:100E1000816941F001018161816901F00101009165
:100E2000C16941F08051C161C069002200F0805069
:100E300000900F21901E00F01BF80548416821F03A
:100E4000E06141F00071416008BD00000010024007
:100E500000000140002809DB00F01F020121914041
:100E60004009800000F1E020C0F800117047000048
:100E7000F0B40E4B1B680C46C3F30223C3F1070505
:100E8000042D00D90425191D072901D2002300E0F3
:100E9000DB1E012606FA05F1491E214099409E40BD
:100EA000761E16403143F0BC01F0D0BE0CED00E0E0
:100EB000064900F0070208684FF6FF03184040EAB1
:100EC0000220034A10430860704700000CED00E068
:100ED0000000FA052DE9F84305460078354CC007B7
:100EE00054D0E0690026C00008D4E06940F080508A
:100EF000E061E069012600F0805000902E48016812
:100F0000C90512D40168804641F480710160FFF781
:100F100011FF074605E000BFFFF70CFFC01B642868
:100F200023D8D8F80000C005F6D5206A10F4407028
:100F300021D0A98801F4407181421CD0206A1F4948
:100F4000012220F440700A6000220A602062C0077B
:100F500011D0FFF7EFFE074641F2883808E000BFE6
:100F6000FFF7E8FEC11B414502D90320BDE8F88325
:100F7000206A8007F4D5206A696820F4407008432D
:100F800020621EB1E06920F08050E061287880077F
:100F900005D56068A96820F440400843606028785F
:100FA000C00605D56068E96820F4800008436060E9
:100FB0000020DBE700100240007000404004424285
:100FC0002DE9F0470F46050061D0434E306800F030
:100FD0000700B84209D2306820F00700384330607B
:100FE000306800F00700B84251D128683B4C8107B7
:100FF00012D5400703D5606840F4E060606028784F
:10100000000703D5606840F4605060606068A968BC
:1010100020F0F000084360602878C00728D0686896
:10102000012810D02168022810D0890700292EDA63
:10103000616821F0030101436160FFF77BFE804698
:1010400041F288390DE021688903EFE78901EDE776
:10105000FFF770FEA0EB0801494502D90320BDE867
:10106000F0876068696800F00C00B0EB810FEFD189
:10107000306800F00700B8420BD9306820F0070054
:1010800038433060306800F00700B84201D00120DA
:10109000E5E72878400705D56068E96820F4E06056
:1010A000084360602878000706D56068296920F445
:1010B000605040EAC100606000F058F86168084A7A
:1010C000C1F30311515CC840064908600648006836
:1010D000FFF750FE0020C2E700200240001002404F
:1010E0009A45000810000020080000200F2202602E
:1010F0000C4A536803F003034360536803F0F003A2
:101100008360536803F4E063C36052684FF4E063A4
:1011100003EAD20202610448006800F00700086098
:1011200070470000001002400020024004480549BA
:1011300000684968044AC1F30221515CC840704705
:101140001000002000100240AA450008044805498C
:1011500000684968044AC1F3C221515CC840704725
:101160001000002000100240AA4500080E4A5168F5
:101170000E4801F00C03042B11D0082B0FD10C48A2
:10118000C1F38343C903C05C0AD55168084AC1F35F
:101190004041921E515C054A5043B0FBF1F070474C
:1011A00004494843704700000010024000127A00D2
:1011B0008A45000800093D002DE9F84F040070D071
:1011C0002078C04DC00749D06868C0F3810001286D
:1011D00007D06868C0F38100022809D16868C0039D
:1011E00006D52868800339D560680028E7D035E047
:1011F0006068B0F5803F0BD010B1B0F5A02F11D0D2
:10120000286820F480302860286820F4802002E0DC
:10121000286840F480302860606890B1FFF78AFD4C
:1012200006460AE0286840F480202860F0E700BF06
:10123000FFF780FD801B642873D828688003F7D5EA
:101240000CE0FFF777FD064605E000BFFFF772FDF3
:10125000801B6428F0D828688003F7D420789A4E41
:1012600080074FF001094FF0000839D5686810F089
:101270000C0F07D06868C0F38100022809D16868A4
:10128000C00306D42868800714D52069012808D136
:1012900010E02069B0B1C6F80090FFF74BFD07469B
:1012A00005E00AE1FFF746FDC01B0228C4D8286804
:1012B0008007F7D52868616920F0F80040EAC1008E
:1012C00028600DE0C6F80080FFF734FD074604E013
:1012D000FFF730FDC01B022823D828688007F7D409
:1012E000207800072CD57948A169D9B1C0F80090C1
:1012F000FFF720FD074604E0FFF71CFDC01B022896
:101300000FD8686A8007F7D571484FF4FA51006822
:10131000B0FBF1F0009000BF0098411E0091FAD29E
:101320000EE080E0C0F80080FFF704FD074604E00F
:10133000FFF700FDC01B022875D8686A8007F7D444
:101340002078400760D5E8690027C00008D4E86924
:1013500040F08050E861E869012700F0805000907B
:101360005C480168C90513D40168834641F4807163
:101370000160FFF7DFFC824606E000BFFFF7DAFC02
:10138000A0EB0A0064284ED8DBF80000C005F5D5B4
:10139000E06801280AD008B1052813D0286A20F097
:1013A00001002862286A20F0040002E0286A40F068
:1013B00001002862E06841F2883B98B1FFF7BAFC6F
:1013C00082460BE0286A40F004002862EEE700BF86
:1013D000FFF7B0FCA0EB0A0159455AD8286A8007EC
:1013E000F6D50CE0FFF7A6FC824605E0FFF7A2FC6D
:1013F000A0EB0A0159454CD8286A8007F6D41FB1E2
:10140000E86920F08050E861E06988B36968C1F359
:101410008101022944D00228C6F8608004D0FFF779
:1014200089FC044638E034E0FFF784FC074604E01A
:10143000FFF780FCC01B02282BD828688001F7D456
:10144000206AB0F5803F05D16868A16820F40030BB
:1014500008436860D4E908010843696821F47411FD
:1014600008436860C6F86090FFF764FC044606E035
:1014700025E000BFFFF75EFC001B022809D82868A2
:101480008001F7D51BE000BFFFF754FC001B0228CA
:1014900002D90320BDE8F88F28688001F4D40EE05B
:1014A0000128F7D06868226A00F48031914204D1A3
:1014B000616A00F47010884201D00120EAE7002040
:1014C000E8E700000010024000004242800442426F
:1014D000100000200070004070B5040009D0606A60
:1014E000002540B125616561A56294F8510040B1C5
:1014F0000CE0012070BD6068B0F5827FF4D0E5613A
:10150000F2E784F85050204600F040F8022084F8BA
:1015100051002068016821F040010160A088218904
:1015200000F4827001F404410843A18901F40061D0
:101530000843217C01F002010843217D01F00101F3
:101540000843218B01F400710843217F01F0380129
:10155000084394F8201001F080010843218D01F424
:101560000051084321680860A069042101EA104085
:10157000216848602068C16921F40061C161656526
:10158000012084F85100002070BD000000B585B036
:101590000021009101910291039100680F49884256
:1015A0001AD10F48816941F480518161816901F448
:1015B00080510491816941F004018161806969462B
:1015C00000F004000490A02000900220019003206D
:1015D00003900448FFF7B4FA05B000BD00300140A5
:1015E00000100240000801402DE9F84F044690F831
:1015F00050000026984615468A4601280CD001273F
:1016000084F85070FFF796FB814694F85100B3467A
:10161000012804D002269AE00220BDE8F88FBAF132
:10162000000F6FD0002D6DD0032084F85100C4F856
:1016300054B0C4F830A0A586E586C4F838B0A4F844
:101640003CB0A4F83EB0C4F844B0C4F840B0A068C0
:10165000B0F5004F09D12068016821F04001016018
:101660002068016841F480410160206801684906F2
:1016700003D4016841F040010160E068B0F5006FFB
:10168000606803D058B3012D29D049E008B1012D7D
:101690001FD1206B21680088C86006E0206881683F
:1016A000890709D5216B0988C160206B801C2063E4
:1016B000E08E401EE0860CE0FFF73CFBA0EB09014A
:1016C000414503D3B8F1FF3F03D006E0B8F1000F66
:1016D00003D0E08E0028E1D125E0032635E0206B21
:1016E00021680078087306E02068816889070AD5B8
:1016F000216B09780173206B401C2063E08E401E33
:10170000E0860DE01FE0FFF715FBA0EB0901414566
:1017100003D3B8F1FF3F03D0DFE7B8F1000FDCD00F
:10172000E08E0028E0D14A464146204600F0A4FF62
:1017300008B120206065A06818B92068C168806879
:101740000090606D08B1012601E084F8517084F8C2
:1017500050B0304661E770477047000070B590F8B0
:101760003C20012A26D0012480F83C40022280F847
:101770003D2003685A689D6822F070060A6832436B
:101780005A600D4B02689A4208D0B2F1804F05D0E2
:101790000A4B9A4202D00A4B9A4204D1496825F07A
:1017A00080031943916080F83D40002180F83C108F
:1017B000084670BD022070BD002C014000040040AE
:1017C0000008004010B5040003D094F83D0010B1AB
:1017D00007E0012010BD002084F83C00204600F006
:1017E0001FF8022084F83D00211D206801F0B0F8A8
:1017F000012084F8460084F83E0084F83F0084F815
:10180000400084F8410084F8420084F8430084F8E2
:10181000440084F8450084F83D00002010BD00001D
:1018200008B500680649884208D10648816941F434
:1018300000618161806900F40060009008BD0000D3
:10184000002C01400010024090F83D10012901D009
:1018500001207047022180F83D100168CA6842F0FB
:101860000102CA6000680B49884208D0B0F1804F7D
:1018700005D00949884202D00849884204D18168CC
:1018800001F00701062903D0016841F00101016060
:1018900000207047002C0140000400400008004078
:1018A00070B5044690F83C000025012817D00126A9
:1018B00084F83C60022084F83D002068826822F0B1
:1018C000770222F47F4282600868502838D00DDC0D
:1018D00020284FD005DC90B3102811D14AE0022017
:1018E00070BD302846D040280AD13BE060282FD078
:1018F00070280DD0B0F5805F03D0B0F5005F12D036
:10190000012584F83D60002084F83C00284670BD25
:10191000CB68D1E90121206801F050F82068816886
:1019200041F0770109E0CB68D1E90121206801F09D
:1019300045F82068816841F480418160E1E719E061
:10194000CA684968206801F04BF85021206806E019
:10195000CA684968206801F054F86021206801F0E5
:1019600037F8CEE7CA684968206801F039F84021A5
:101970002068F4E7226801461046F0E7704770B52A
:101980000446006801694FF00005C943890715D472
:10199000C168C943890711D4E91E0161012020777C
:1019A000206880698007204602D0FFF7E7FF04E047
:1019B00000F098F8204600F096F825772068016935
:1019C000C943490717D4C168C943490713D46FF005
:1019D00004010161022020772068806910F4407FB3
:1019E000204602D0FFF7CAFF04E000F07BF8204653
:1019F00000F079F8257720680169C943090716D4F2
:101A0000C168C943090712D46FF0080101610420BD
:101A100020772068C0698007204602D0FFF7AEFF1C
:101A200004E000F05FF8204600F05DF825772068BC
:101A30000169C943C90617D4C168C943C90613D48B
:101A40006FF010010161082020772068C06910F450
:101A5000407F204602D0FFF791FF04E000F042F8FB
:101A6000204600F040F8257720680169C943C9077E
:101A700008D1C168C943C90704D1891E0161204644
:101A800000F032F820680169C943090609D4C16829
:101A9000C943090605D46FF0800101612046FFF7B4
:101AA0005AFE20680169C943490609D4C168C9437F
:101AB000490605D46FF040010161204600F01EF890
:101AC00020680169C94389060BD4C168C9438906E6
:101AD00007D46FF0200101612046BDE87040FFF798
:101AE0003BBE70BD7047704700680349884201D112
:101AF000FFF726B97047000000080040704770B536
:101B0000040004D094F84100002510B106E0012043
:101B100070BD84F84050204600F024F8242084F85A
:101B200041002068C16821F40051C160204600F0E6
:101B3000E3FF2068016921F4904101612068416957
:101B400021F02A0141612068C16841F40051C1605F
:101B50006564202084F8410084F842006563002019
:101B600070BD000070B586B000240094019402940A
:101B70000394234E0368234902200322224DB342DB
:101B800019D18B6943F480438B618B6903F48043E3
:101B900004938B6943F004038B618969039201F01C
:101BA000040104910102CDE9001069462846FEF7C0
:101BB000C7FF28151BE0154EB3421FD1CB6943F474
:101BC0000033CB61CB6903F4003304938B6943F09A
:101BD00004038B618969039201F0040104910421DB
:101BE000CDE9001069462846FEF7AAFF0820CDE996
:101BF0000004694628460294FEF7A2FF06B070BDB5
:101C0000003801400010024000080140004400403C
:101C10002DE9F843044690F841001F4616460D464C
:101C2000202802D00220BDE8F8837DB176B10020E3
:101C30006064212084F84100FFF77CF8A684804688
:101C4000E684A068B0F5805F02D003E00120EAE7F7
:101C5000206910B12E4600250EE000260CE0802100
:101C6000204600F0A5FFA0B9AEB116F8010B21681F
:101C70004860E08C401EE084E08C43464FF0000258
:101C800000970028EBD14FF04001204600F090FF74
:101C900030B10320C7E735F8020BC0F30800E6E7D0
:101CA000202084F841000020BDE7FEE710B513A016
:101CB00000F0BCFF14A000F0B9FF16A000F0B6FFC2
:101CC0000021162000F07AFA0021132000F076FAA5
:101CD0000021172000F072FA0021152000F06EFAA2
:101CE000FEF76AFD05A000F0A1FF0BA000F09EFF2B
:101CF000BDE8104007A000F099BF00005B444542DA
:101D000055475D203E3E2000496E69745F4D6F74FB
:101D10006F7221000D0A0000496E69745F4D6F7487
:101D20006F722066696E69736821000010B5FFF755
:101D3000BDFF00F06CFD00211120FEF7A3FDBDE802
:101D40001040AFF300807047FEB50025174800959E
:101D5000019515490295016089158160057301247B
:101D60000475022606614FF460214560C0E9064112
:101D7000FEF72CFE08B1FEF7A9FD07200095CDE97E
:101D8000014069460948FEF7A3FD08B1FEF79EFD34
:101D9000CDE9004669460548FEF79AFD002801D0C6
:101DA000FEF794FDFEBD0000002401406007002006
:101DB00000B587B01C2206496846FEF70FFA0021DD
:101DC000684601F077F80349086007B000BD0000DD
:101DD0006C450008000000202DE9F04385B0002488
:101DE00035480094019402940394816941F02001E4
:101DF0008161816901F020010491816941F0040150
:101E00008161816901F004010491816941F0080157
:101E100081618069DFF8A48000F00800049000224E
:101E20004FF6C1714046FEF780FF01220221404675
:101E3000FEF77BFFDFF888904FF4006700223946F9
:101E40004846FEF772FF102001258DE831006946F3
:101E50004846FEF775FE0320CDE900050226CDE9D0
:101E6000025669464046FEF76BFE4FF6C070CDE95C
:101E70000005CDE9024669464046FEF761FE2802AC
:101E800000901048CDE9010469464846FEF758FE27
:101E900000970396CDE9015469464846FEF750FE87
:101EA000002205211720FEF7E3FF1720FEF7D2FFDF
:101EB00005B0BDE8F083000000100240000C0140B6
:101EC0000008014000001110114810B50F490160D1
:101ED0004FF4827141604FF4004181600021C16084
:101EE0004FF400720161C0E905120822C0E9072120
:101EF000416281620A21C162FFF7EEFA002803D035
:101F0000BDE81040FEF7E2BC10BD0000003001400B
:101F10009007002010B586B0002417480094019463
:101F20000294039404941349059401604721C0E985
:101F300001144FF6FF71C0E9031444618461FFF797
:101F400041FC08B1FEF7C2FC4FF480500090694696
:101F50000948FFF7A5FC08B1FEF7B8FC049404A9F2
:101F600005480594FFF7FAFB002801D0FEF7AEFC08
:101F700006B010BD002C0140E80700200C4810B549
:101F80000A4901604FF4E1314160002181600C2277
:101F9000C160C0E904128161C161FFF7B0FD002892
:101FA00003D0BDE81040FEF791BC10BD00380140E1
:101FB000300800200C4810B50A4901604FF4E131A7
:101FC0004160002181600C22C160C0E9041281617E
:101FD000C161FFF794FD002803D0BDE81040FEF773
:101FE00075BC10BD0044004078080020FEE70000EA
:101FF00070B519A000F01AFE1AA000F017FE1CA080
:1020000000F014FE1B4DA5F10804207815F82010EF
:10201000162000F0D3F8207805EB800041781320DB
:1020200000F0CCF8207805EB80008178172000F0D4
:10203000C5F8207805EB8000C178152000F0BEF8C7
:10204000FEF7BAFB2078401CC0B22070082801D3EC
:102050000020207070BD00005B44454255475D2064
:102060003E3E20004D6F746F722072756E2100002D
:102070000D0A0000900000202DE9F04105462AA03D
:1020800000F0D4FD2BA000F0D1FD2FA000F0CEFD7C
:102090002E4C0027DFF8B88042E02C4E207808361E
:1020A00016F82010162000F089F8207806EB800042
:1020B0004178132000F082F8207806EB80008178C8
:1020C000172000F07BF8207806EB8000C1781520FF
:1020D00000F074F8FEF770FB2078401CC0B220704E
:1020E000082800D32770D8F800104F62D8F80010E5
:1020F0000A6842F001020A60D8F800004FF47A61E1
:10210000426A8A42FCD3016A41F21112114207D19C
:10211000016A9210114203D1016821F001010160AE
:102120006D1EBAD2BDE8F0815B44454255475D2043
:102130003E3E20004D6F746F722072756E20737476
:1021400065707321000000000D0A00008800002067
:10215000E807002010B511A000F068FD12A000F003
:1021600065FD14A000F062FD0021162000F026F8A5
:102170000021132000F022F80021172000F01EF8A3
:102180000021152000F01AF80B484068002803D001
:10219000BDE8104000F0B8BE10BD00005B444542F1
:1021A00055475D203E3E20004D6F746F7220737462
:1021B0006F7021000D0A0000880000200C4B1628CB
:1021C0000AD013280CD017280DD015280FD1CAB269
:1021D00080211846FEF7A9BDCAB24FF48071F8E716
:1021E000CAB24021F5E7CAB24FF40071F1E7704777
:1021F000000C014010B50C46B0B1FFF7ABFF1BA0BF
:1022000000F014FD1CA000F011FD1FA000F00EFD59
:1022100000211120FEF736FB00F0F9FA01210C2015
:10222000FEF700FB012010BDFFF7E2FEFF2C07D0F8
:10223000204600F02DF80320FFF71EFF002010BD00
:102240000024204600F024F80AE0204600F020F8A0
:10225000012C03D0032C01D0052C01D1FFF7C8FEBF
:10226000641CE4B2062CF0D3E8E700005B4445426E
:1022700055475D203E3E200053746F7020507269B8
:102280006E74696E672100000D0A0000FEE7000011
:102290002DE9F05F41F21115DFF8C8A3DFF8C8930C
:1022A000DFF8C8B3AE10F24C062859D2DFE800F0D0
:1022B000035AA6F6F4F301211A20FEF7B3FA2168B7
:1022C000002048622068016841F001010160A046D9
:1022D000E8480078FEF716F900225346FEF79EF80C
:1022E00004460F465946D9F80000FDF79BFFFEF75C
:1022F00016F922463B46FEF71FF80746D8F80000BD
:102300000C46406AFEF7FEF83A462346FEF71AF9F5
:10231000DED3D8F800004446016A294206D1016A9A
:10232000314203D1016821F00101016000211A202E
:10233000FEF778FA2168002048622068016841F0C1
:10234000010101602068416AC829FCD3016A294261
:1023500006D1016A314203D1016821F00101016017
:10236000BDE8F09F01211B20FEF75CFA21680020E8
:1023700048622068016841F001010160A046BD4843
:102380000078FEF7BFF800225346FEF747F80446F0
:102390000F465946D9F80400FDF744FFFEF7BFF891
:1023A0003B462246FDF7C8FF0446D8F800000F461A
:1023B000406AFEF7A7F822463B46FEF7C3F8DED395
:1023C000D8F800004446016A294206D1016A314228
:1023D00003D1016821F00101016000211B20FEF7FB
:1023E00021FA2168002048622068016841F001015B
:1023F00001602068416AC829FCD3A7E701210E20AB
:10240000FEF710FA2168002048622068016841F058
:1024100001010160CA46A14696480078FEF772F8AD
:102420000022904BFDF7FAFF0C4607465946DAF8B2
:102430000800FDF7F7FEFEF772F83A462346FDF76F
:102440007BFF0746D9F800000C46406AFEF75AF8B1
:102450003A462346FEF776F8DED3D9F800004C461C
:10246000016A294206D1016A314203D1016821F093
:102470000101016000210E20FEF7D4F9216800203F
:1024800048622068016841F0010101602068416AEA
:10249000C829FCD35AE799E04CE0FFE7012120204E
:1024A000FEF7C0F92168002048622068016841F009
:1024B00001010160A0466F480078FEF723F8002272
:1024C0005346FDF7ABFF0C4607465946D9F80C00BA
:1024D000FDF7A8FEFEF723F83A462346FDF72CFF4A
:1024E0000746D8F800000C46406AFEF70BF83A465B
:1024F0002346FEF727F8DED3D8F800004446016AE9
:10250000294206D1016A314203D1016821F001015B
:10251000016000212020FEF785F921680020486233
:102520002068016841F0010101602068416AC82902
:10253000FCD30BE701212120FEF774F9216800206C
:1025400048622068016841F001010160A0464948E5
:102550000078FDF7D7FF00225346FDF75FFF0746DF
:102560000C465946D9F81000FDF75CFEFDF7D7FF81
:102570003A462346FDF7E0FE0746D8F800000C4631
:10258000406AFDF7BFFF3A462346FDF7DBFFDED387
:10259000D8F800004446016A294206D1016A314256
:1025A00003D1016821F00101016000212120FEF723
:1025B00039F92168002048622068016841F0010172
:1025C00001602068416AC829FCD3BFE601211920B7
:1025D000FEF728F92168002048622068016841F070
:1025E00001010160A04623480078FDF78BFF00221F
:1025F0005346FDF713FF07460C465946D9F8140019
:10260000FDF710FEFDF78BFF3A462346FDF794FEDB
:102610000746D8F800000C46406AFDF773FF3A46BB
:102620002346FDF78FFFDED3D8F800004446016A49
:10263000294206D1016A314203D1016821F001012A
:10264000016000211920FEF7EDF8216800204862A2
:102650002068016841F0010101602068416AC829D1
:10266000FCD373E600005940081B0020008022457F
:10267000E8070020B000002038B50B460092044661
:102680000022802100F008F8002804D0606D40F09E
:1026900020006065032038BD2DE9F8431E469146B1
:1026A00088460446089DFEF745FB401B351AFEF799
:1026B00041FB074625480068C0F3CB30684338E04B
:1026C000701C37D0FEF736FBC01BA84203D215B1F1
:1026D000009860B32CE02068416821F0E00141607F
:1026E0006068B0F5827F0BD1A068B0F5004F02D0D2
:1026F000B0F5806F04D12068016821F040010160CD
:10270000A06AB0F5005F09D12068016821F400518A
:1027100001602068016841F400510160012084F8E3
:102720005100002084F850000320BDE8F883002504
:10273000401E00902068816838EA010004D0002122
:102740004945BDD10020F0E70121F9E71000002044
:102750002DE9F0410746FEF721F8254D002400261B
:1027600006EBC400385CFDF7C8FE55F82410FDF7F1
:1027700059FD761CF6B245F82400082EF0D3014628
:10278000FDF7A8FDFDF7CBFE1A4A1B4BFDF7D4FD64
:10279000FDF7F0FE45F82400641CE4B2062CDED3FD
:1027A0003021384600F04EF800210C20FEF73AF8B0
:1027B000124800210268516201680A6842F0010271
:1027C0000A600068416A0029FCD0016A41F21112D6
:1027D000114207D1016A9210114203D1016821F020
:1027E00001010160BDE8F04101210C20FEF71AB89B
:1027F000081B0020FCA9F1D24D62503FE8070020E1
:10280000002155224254491CF029FBD3704710B5D2
:1028100000211A20FEF706F800211B20FEF702F81F
:1028200000210E20FDF7FEFF00212020FDF7FAFF1A
:1028300000212120FDF7F6FF0021BDE810401920FE
:10284000FDF7F0BF0A460146FF230148FEF7CCBE64
:1028500090070020012000F021FBFBE72DE9F0416B
:102860000025174680460C462E46FFF7D0FF012173
:102870000C20FDF7D7FF01211120FEF703F8AF422E
:1028800005D92046FFF764FF3034303500E00126DB
:1028900041463046FFF7AEFC08B9002EEFD02820A5
:1028A000FFF7EAFBBDE8F041FFF754BC10B550203C
:1028B00080F31188BFF34F8FBFF36F8F01F0AAFC35
:1028C00018B104494FF080500860002080F311884F
:1028D00010BD000004ED00E030B593B0282168463B
:1028E000FDF795FC14210AA8FDF791FC00240120B6
:1028F0000F940225049000951020119405901094D7
:10290000129407946846FEF757FC08B172B6FEE7CA
:102910000F20CDE90A040C940D9400210AA80E940E
:10292000FEF74EFB08B172B6FEE70FA80F951194A3
:10293000FEF7D0FA002801D072B6FEE713B030BD22
:10294000704700000148FFF71AB80000C0080020D7
:10295000F0B50268164B174C174D4FF08047984260
:1029600005D0B84203D0A04201D0A84203D122F042
:1029700070064A683243984205D0B84203D0A0425C
:1029800001D0A84203D122F44074CA6822434C69A2
:1029900022F08002224302608A68C2620A68826270
:1029A000984201D10969016301214161F0BD000034
:1029B000002C0140000400400008004010B584686D
:1029C00042EA032224F47F440A432243826010BD7A
:1029D000826822F070020A4342F00701816070476A
:1029E00010B5036A046A24F001040462846924F0C7
:1029F000F00444EA021423F00A020A4384610262EA
:102A000010BD10B5036A046A24F0100404628469DE
:102A100023F0A00324F4704444EA023243EA011193
:102A20008261016210BD000010B5C8B0F02422A080
:102A300000F0FCF823A000F0F9F82AA000F0F6F866
:102A40006846FFF7DDFE224669460020FFF706FFD5
:102A50006846FFF7D5FE224669460120FFF7FEFED5
:102A60006846FFF7CDFE224669460220FFF7F6FED4
:102A70006846FFF7C5FE224669460320FFF7EEFED3
:102A80006846FFF7BDFE224669460420FFF7E6FED2
:102A90006846FFF7B5FE224669460520FFF7DEFED1
:102AA00005A000F0C3F810A000F0C0F80DA000F0E1
:102AB000BDF848B010BD00005B44454255475D205D
:102AC0003E3E2000537461727420546573745354F5
:102AD000422C2053657175656E63653A313233342B
:102AE000353621000D0A000046696E69736820546E
:102AF0006573745354427E0070B5044600680169E2
:102B0000E26821F44051114301612169A068084342
:102B1000616908432168CA6841F20C639A43024321
:102B2000CA6020684169A26921F440711143416182
:102B30001E492068884202D1FEF708FB01E0FEF73B
:102B4000F5FA00EBC00101EB00126068642180001F
:102B5000B2FBF0F3B3FBF1F36FF018067343B2FB73
:102B6000F0F5B2FBF0F605EB8305322303EB051518
:102B7000B5FBF1F5B6FBF1F605F0F00505EB061532
:102B8000B2FBF0F6B2FBF0F0B0FBF1F06FF0180220
:102B9000504306EB800003EB0010B0FBF1F021681E
:102BA00000F00F002844886070BD0000003801402C
:102BB0002DE9F041984617460E460446069D27E04B
:102BC000681C25D02DB1FEF7B5F8A0EB0800A8428F
:102BD0001ED920680C3050E8001F21F4D07140E865
:102BE0000012002AF5D12068143050E8001F21F0AF
:102BF000010140E80012002AF5D1202084F84100AC
:102C000084F84200002084F840000320BDE8F081F1
:102C10002068006836EA000004D00020B842CFD017
:102C20000020F3E70120F9E7FEE700000FB4054BB1
:102C300010B503A9044A029800F028F810BC5DF80A
:102C400014FB0000E12D0008B40000200907090E64
:102C5000002804DB00F1E02080F80014704700F049
:102C60000F0000F1E02080F8141D704702E008C852
:102C7000121F08C1002AFAD170477047002001E0F6
:102C800001C1121F002AFBD1704700002DE9FF4F40
:102C900089B09B460446002506E025280BD05A46FD
:102CA0000B999047641C6D1C20780028F5D10DB05D
:102CB0002846BDE8F08F0027B8460122474900E0CA
:102CC000074314F8013F203B02FA03F00842F7D112
:102CD00020782E2819D114F8010F47F004072A286C
:102CE0000ED06FF02F022078A0F1300109290CD806
:102CF00008EB880102EB410100EB0108641CF2E7DC
:102D00000A98641C50F8048B0A9020780028CED0D2
:102D1000642808D0692806D075281ED05A460B9919
:102D200090476D1C58E00A994FF00A0901C90A91B1
:102D3000002802DA40422D2102E0390504D52B217A
:102D40008DF82010012103E0F90704D02021F7E7D6
:102D50008A4608AE0DE00021FAE70A994FF00A0909
:102D600001C90A91F7E74946FDF720FC303106F822
:102D7000011D0028F7D1ADEB060000F1200978070E
:102D800001D44FF00108C84502DDA8EB090000E0BE
:102D900000208046002706E008A85A46C05D0B992F
:102DA00090476D1C7F1C5745F6DB04E030205A46E7
:102DB0000B9990476D1CB8F10001A8F10108F5DCF2
:102DC00005E016F8010B5A460B9990476D1CB9F1B6
:102DD0000001A9F10109F4DC641C65E70928010080
:102DE00013B54FF6FF73012269460248FEF710FF44
:102DF00000981CBD30080020EFF30580002800D0AB
:102E0000012070471CB5FDF7A3FFFFF765FDFEF736
:102E1000E3FFFEF799FFFFF757F8FFF77BF8FFF79F
:102E2000ADF8FFF7C7F8012211460D48FDF77DFF09
:102E300000210120CDE900010B46802209A10B48A9
:102E400001F07CF9FEF7B4FF09A0FFF7EFFE0BA03D
:102E5000FFF7ECFE0DA0FFF7E9FE00F026F8FEE715
:102E60000008014074657374000000008537000895
:102E70005B44454255475D203E3E200044656275F7
:102E800067206E6F206572726F7221000D0A00005C
:102E900001460020842900D0C81C704710B500B935
:102EA000012000F0B9FD002010BD10B500F01CFE9F
:102EB000002010BD7FB50D4604464169B0F90800F9
:102EC00081B1A16971B1FFF7E3FFD4E905128DE883
:102ED0000700D4E900102B46226901F05CF9039049
:102EE00004B070BDFFF7D4FF03A9CDE90001208A2B
:102EF0002B4682B2D4E9001001F020F9012801D05C
:102F00000020EDE70398EBE77CB5002506462C464C
:102F10000195FFF771FF0094A0B101AB00220821D9
:102F2000304601F0F3FA012801D0FF207CBD019862
:102F300088B10A494FF080500860BFF34F8FBFF34C
:102F40006F8F08E000231A460321304601F0DEFAB5
:102F5000012800D0FF2528467CBD000004ED00E0DC
:102F60002DE9F041184C0F46054666692068001DA2
:102F700000F022FC38B9206890F82C10012088401D
:102F8000A1698143A161681C07D137B12168BDE8FF
:102F9000F0410E48091D00F05FBC20683544B54281
:102FA0004560216805D2A068BDE8F041091D00F028
:102FB0003BBC6068091D00F037FC206B854200D2E5
:102FC0002563BDE8F081000014000020240A0020E1
:102FD0002DE9F041054600F04BFC2E4C2069401CC9
:102FE000206120682C4F10B1E06940B32DE02560CE
:102FF0002069012829D1002606EB860007EB800016
:1030000000F004FC761C072EF6D323488C3000F029
:10301000FDFB2148A03000F0F9FB1F48B43000F060
:10302000F5FB1D48C83000F0F1FB1B48DC3000F018
:10303000EDFB19488C3060601430A06005E020681A
:10304000E96AC06A884200D82560E06A401CE062F4
:10305000E96A0120A26988401043A06101EB810068
:1030600007EB8000291D00F0F7FB00F021FCE06970
:1030700000280CD02068E96AC06A884207D2074954
:103080004FF080500860BFF34F8FBFF36F8FBDE8E4
:10309000F0810000140000204809002004ED00E049
:1030A00038B500F0E5FB104CA068C8B90F4800F037
:1030B000ADFB0E48143000F0A9FB0C482060143022
:1030C00060600A4B00202833009003F148020C2175
:1030D0000A2000F0D7FDA06010B105A100F066FC49
:1030E000BDE8384000F0E4BB50000020380A002062
:1030F000546D72510000000030B4026C0B46002A7F
:103100000BD0C1681144C1604468A14201D3016879
:10311000C16030BC1846FDF761B830BC70472DE97E
:10312000F041856B174604460026026C82B1C7B198
:10313000E068FDF753F8E168206C091AE160226845
:10314000914202D26168081AE060022F16D017E09F
:103150002068A8B9606801F0C1F8064600206060E8
:103160000EE0A068FDF73AF8216CA0680844A06062
:103170006168884204D32068A06001E005B16D1E3B
:103180006D1CA5633046BDE8F08110B5044690F88B
:10319000510058B101280CD002280FD0502080F3E4
:1031A0001188BFF34F8FBFF36F8FFEE7206B00F0E6
:1031B00093FB2046BDE8104000F08EBB10BD000020
:1031C0000F4840F6E871420705D0C01D0C4A20F0B8
:1031D0000700821A891A0B4A00230144C2E900033E
:1031E0000839103A21F0070111604B600B600B1A8F
:1031F000C0E9001393604FF000405360D060704707
:10320000200B002074000020144E154CA6F1C807B6
:103210004FF08058DFF84C9012E000BF00F028FB20
:10322000F068C568281D00F0C7FA2069401E2061BB
:10323000E068401EE06000F03BFB2846FFF7A5FF7A
:10324000E0680028EAD138680128F9D9C9F8008077
:10325000BFF34F8FBFF36F8FF2E70000100A00201B
:103260001400002004ED00E00346009829B102603C
:10327000C0E90F31012100F039BD0060F8E72DE908
:10328000F0479A46DDE9098481466FF00303206B1D
:1032900003EB82021044089D20F00706700707D058
:1032A000502080F31188BFF34F8FBFF36F8FFEE77D
:1032B00023180A5C83F834200A5C12B1401C1028E1
:1032C000F6D3002784F84370072D00D30625E56266
:1032D000C4E91157201D00F0A4FA04F1180000F011
:1032E000A0FA2461C5F107006462A061E76484F874
:1032F000507052464946304600F032FA2060B8F12C
:10330000000F01D0C8F80040BDE8F08730B5114982
:1033100000E011460A688242FBD34B685C18844285
:1033200003D1406818444860084643681C1894421A
:1033300009D1084C103C2468A24209D052681A44B2
:1033400042600A6812680260814200D0086030BDA5
:103350000460F9E77400002070B5002441600B4D53
:103360000061914206D8D11A8269914206D2011DAC
:10337000686807E09A4203D2994201D3012403E02E
:10338000011D286800F050FA204670BD5000002052
:1033900010B5044600F06CFAA06B28B15FF0000491
:1033A00000F086FA204610BD0124F9E730B587B059
:1033B0002C4D4EE0049800284BDB069C606910B150
:1033C000201D00F0F9F902A800F0B8F802460498B0
:1033D0000A283ED2DFE800F00505053D2637050541
:1033E0003D260598A169034601442046FFF7B4FF36
:1033F00000B3616A20468847E069012829D100208E
:1034000000900598A169002342181946204601F052
:103410007DF878B9502080F31188BFF34F8FBFF348
:103420006F8FFEE70598A06128B1811813462046EA
:10343000FFF792FF0DE0502080F31188BFF34F8F0C
:10344000BFF36F8FFEE794F8280010B9204600F014
:1034500043FA002204A9A86800F09AFD0028A9D127
:1034600007B030BD500000202DE9FC410F46054655
:1034700000F07EFB01A800F061F80446019818B145
:1034800000F0B2FFBDE8FC81224EAFB17068006869
:10349000A8B30027291B3A46B06800F09BFA00F059
:1034A000A3FF0028EED11C494FF080500860BFF305
:1034B0004F8FBFF36F8FE5E7A542EBD800F094FF85
:1034C00030682746C068C468201D00F075F9E069BF
:1034D000012810D1A0692B4641193A462046FFF732
:1034E0003BFF40B100200346014600902A4620469B
:1034F00001F00CF820B1616A20468847C2E707E076
:10350000502080F31188BFF34F8FBFF36F8FFEE71A
:103510000127BFE75000002004ED00E006484168A5
:10352000096829B14168C968C96849680163704779
:103530004FF0FF31FAE700001400002070B5054697
:1035400000F062FE064E04463069844203D200F069
:1035500009F8012000E0002028602046346170BD99
:1035600050000020F8B5194D1FE0C068C468066817
:10357000201D00F021F9616A20468847E069012892
:1035800013D1A0693044B04206D924616060211D86
:10359000286800F049F908E0002003460146009041
:1035A0003246204600F0B2FF38B128680168002991
:1035B000DBD16968C5E90010F8BD502080F311889F
:1035C000BFF34F8FBFF36F8FFEE700005000002066
:1035D00008484068401C4FF0500080F3118804D028
:1035E000BFF34F8FBFF36F8FFEE7BFF34F8FBFF374
:1035F0006F8FFEE77C000020074C2068016841B116
:10360000C0680021D0F80000FFF72EFFFFF7CEFEC4
:10361000F3E701210020F7E7500000202DE9F041F9
:10362000044600F025F994F9455004F1240609E018
:10363000606A48B1304600F09DFE08B100F01AFA09
:103640006D1E6DB2002DF3DC4FF0FF3684F845603F
:1036500000F02EF900F00CF994F9445004F1100731
:1036600009E0206948B1384600F084FE08B100F056
:1036700001FA6D1E6DB2002DF3DC84F84460BDE8E4
:10368000F04100F015B900002DE9F0410546002792
:1036900000F06EFA314E306808B9FFF791FDF0681E
:1036A00005424BD1C5B3083568070ED005F00700B9
:1036B000C0F108000544680707D0502080F3118846
:1036C000BFF34F8FBFF36F8FFEE72DB37068854256
:1036D00034D82248103001460C6801E020460C46E0
:1036E0006168A94202D221680029F7D131688C4271
:1036F00024D007682168016060680837411B1029E1
:103700000FD96019420708D0502080F31188BFF309
:103710004F8FBFF36F8FFEE710E041606560FFF7EA
:10372000F5FD61687068401A7060B268904200D21E
:10373000B060F06801430020C4E9000100F054FECD
:10374000780707D0502080F31188BFF34F8FBFF365
:103750006F8FFEE73846BDE8F0810000640000206E
:1037600010B5031F4FF080741C601B1F21F0010176
:103770001960191F024B0B60143940380A6010BDE4
:10378000D1350008FEF7D2FAFFF74EF9094D4FF494
:103790007A74002201212846FDF7C7FA204600F07E
:1037A0003BF9012211462846FDF7BFFA204600F0FA
:1037B00033F9EEE7000C0140D0E9013201699A606B
:1037C000D0E901235A604A68824201D182684A6086
:1037D000002202610868401E086008687047000007
:1037E000034B036003F154000860802010607047B1
:1037F000B8000020044B036003F1540008604FF44C
:1038000080701060704700000C03002000F1080178
:103810004FF0FF32C0E90112C16001610021016077
:10382000704700210161704730B50B685A1C02D007
:1038300000F1080202E0026904E0224654682568AB
:103840009D42FAD953684B6099608A605160086163
:103850000168491C016030BD42684A6093688B6012
:1038600093685960916008610168491C0160704764
:10387000502080F31188BFF34F8FBFF36F8F0A4939
:103880004868401C486001280CD10848006810F0C6
:10389000FF0F07D0502080F31188BFF34F8FBFF385
:1038A0006F8FFEE7704700007C00002004ED00E011
:1038B0000849486828B1401E486001D180F311884A
:1038C0007047502080F31188BFF34F8FBFF36F8F85
:1038D000FEE700007C00002070B5002827D0144DC2
:1038E000A0F108046168E868014207D1502080F324
:1038F0001188BFF34F8FBFF36F8FFEE722683AB195
:10390000502080F31188BFF34F8FBFF36F8FFEE716
:103910008143616000F02CF9606869680844686060
:103920002046FFF7F3FCBDE8704000F05DBD70BDC0
:10393000640000204FF0E020002101618161054911
:103940004FF47A720968B1FBF2F1491E4161072117
:10395000016170471000002010B5FCF719FC1149F7
:1039600010280ED300F1E02090F8F0030A7890427E
:1039700007D2502080F31188BFF34F8FBFF36F8FB2
:10398000FEE709480068896800F4E060884207D9CA
:10399000502080F31188BFF34F8FBFF36F8FFEE786
:1039A00010BD00007C0000200CED00E010B5084BBD
:1039B000002200BF53F832401CB1521C082AF9D330
:1039C00010BD43F8321003EBC201486010BD000087
:1039D0000809002070B515460E460446FFF748FF5B
:1039E00094F944100020491C01D184F8440094F952
:1039F0004510491C01D184F84500FFF759FFA06B21
:103A000028B92A46314604F1240000F051F8204636
:103A1000BDE87040FFF702BE10B5020014D00F4899
:103A2000806B38B1502080F31188BFF34F8FBFF304
:103A30006F8FFEE700F09CF800211046FFF790FA28
:103A400000F0D2FC002807D105494FF080500860F3
:103A5000BFF34F8FBFF36F8F10BD00001400002025
:103A600004ED00E002498A6A0260496941607047DA
:103A70001400002001490120486270471400002012
:103A800010B50C4650B1094909681831FFF7CCFE52
:103A90002046BDE810400121FFF762BA502080F3B4
:103AA0001188BFF34F8FBFF36F8FFEE71400002024
:103AB00070B514460D4668B10A4909681831FFF718
:103AC000CBFE0CB14FF0FF3521462846BDE87040D3
:103AD000FFF746BA502080F31188BFF34F8FBFF332
:103AE0006F8FFEE71400002030B587B000240394E8
:103AF00005AA04A903A80494FFF772FEDDE90301F7
:103B00000094CDE90110002315A11748059A00F093
:103B100042FB164D002868631FD000F0C7FC012847
:103B200009D0401C19D1502080F31188BFF34F8F6A
:103B3000BFF36F8FFEE7502080F31188BFF34F8FE4
:103B4000BFF36F8F4FF0FF3028630120E8616C6195
:103B500007B0BDE8304000F041B807B030BD00000C
:103B600049444C45000000000932000814000020C0
:103B70000248816B491C81637047000014000020DB
:103B80001448816B11B101214162704700214162EB
:103B90008169B1FA81F1C1F11F0101EB81020E4986
:103BA00051F822306BB101EB820101F108034A6840
:103BB00052684A609A4201D152684A60D1680160F5
:103BC0007047502080F31188BFF34F8FBFF36F8F82
:103BD000FEE7000014000020480900201CB526491B
:103BE00008780190FF20087008788DF800009DF893
:103BF00000009DF8002000F0F000904207D0502017
:103C000080F31188BFF34F8FBFF36F8FFEE79DF8EE
:103C100000001A4B00F0500018700720986005E073
:103C20009DF8002052008DF80020401E9DF80020D5
:103C30001206F5D49860032807D0502080F311882D
:103C4000BFF34F8FBFF36F8FFEE74FF44070986064
:103C5000019808700A48016841F470010160016828
:103C600041F070410160FFF765FE00205860FCF7ED
:103C700059FA00201CBD000000E400E07C00002098
:103C800020ED00E038B5049D18B153B1CAB181B13F
:103C900020E0502080F31188BFF34F8FBFF36F8F68
:103CA000FEE7502080F31188BFF34F8FBFF36F8F73
:103CB000FEE7502080F31188BFF34F8FBFF36F8F63
:103CC000FEE739B1502080F31188BFF34F8FBFF367
:103CD0006F8FFEE748241C46012384F846302B46AC
:103CE0000094FFF7C1FA204638BD000070B50D46BC
:103CF000040025D0FFF7BCFDD4E90F20216802FBAA
:103D0000001161600021A1632168A1600A46D4E925
:103D10000F01401E00FB0121E16021464FF0FF3002
:103D200001F8440F487004F110008DB1FFF76EFDEB
:103D300004F12400FFF76AFDFFF7BAFD012070BD12
:103D4000502080F31188BFF34F8FBFF36F8FFEE7D2
:103D500021690029F0D000F00DFB0028ECD00449C7
:103D60004FF080500860BFF34F8FBFF36F8FE3E7D2
:103D700004ED00E02DE9FF4782B01D468A464FF072
:103D80000008040003D0BAF1000F08D011E0502061
:103D900080F31188BFF34F8FBFF36F8FFEE7206C66
:103DA00038B1502080F31188BFF34F8FBFF36F8F6E
:103DB000FEE7022D0AD1E06B012807D0502080F3E6
:103DC0001188BFF34F8FBFF36F8FFEE700F00EFA3D
:103DD0003F4F4FF000094FF0805648B9049838B172
:103DE000502080F31188BFF34F8FBFF36F8FFEE732
:103DF000FFF73EFDA06BE16B884207D3022D05D093
:103E00000498D0B1B8F1000F1AD01EE02A465146EE
:103E10002046FFF784F9616A19B104F1240000F02B
:103E2000A9FA20B13E60BFF34F8FBFF36F8FFFF74A
:103E30003FFD012006B0BDE8F087FFF739FD22E025
:103E40006846FFF70FFE4FF00108FFF731FDFFF75F
:103E50008FFEFFF70DFD94F94400401C01D184F85A
:103E6000449094F94500401C01D184F84590FFF737
:103E70001FFD04A9684600F027F930B12046FFF77E
:103E8000CDFB00F0B1FA0020D4E7FFF7F1FCA06B06
:103E9000E16B884213D1FFF70BFD04F11000049988
:103EA000FFF7EEFD2046FFF7B9FB00F09DFA002872
:103EB0009ED13E60BFF34F8FBFF36F8F98E7FFF740
:103EC000F7FC2046FFF7AAFB00F08EFA90E700000F
:103ED00004ED00E02DE9F0471F46904689460400B6
:103EE00003D0B9F1000F08D011E0502080F3118801
:103EF000BFF34F8FBFF36F8FFEE7206C38B15020B8
:103F000080F31188BFF34F8FBFF36F8FFEE7022F4F
:103F10000AD1E06B012807D0502080F31188BFF34D
:103F20004F8FBFF36F8FFEE7FFF716FD5020EFF3C3
:103F3000118680F31188BFF34F8FBFF36F8FA06B93
:103F4000E16B884206D3022F04D0002086F311884B
:103F5000BDE8F08794F945503A4649462046FFF7B8
:103F6000DEF8681C04D06D1C84F845500120EDE794
:103F7000606A0028FAD004F1240000F0FBF9002860
:103F8000F4D0B8F1000FF1D00121C8F80010EDE72E
:103F90002DE9F747002683B08A46040003D0BAF122
:103FA000000F08D011E0502080F31188BFF34F8F2D
:103FB000BFF36F8FFEE7206C38B1502080F311887B
:103FC000BFF34F8FBFF36F8FFEE700F00FF9DFF8FD
:103FD000F4804FF000094FF0805748B9059838B188
:103FE000502080F31188BFF34F8FBFF36F8FFEE730
:103FF000FFF73EFCA56BC5B151462046FFF77CF8A4
:104000006D1EA563206950B104F1100000F0B2F9F3
:1040100028B1C8F80070BFF34F8FBFF36F8FFFF761
:1040200047FC012006B0BDE8F087059808B11EB135
:1040300006E0FFF73DFC27E06846FFF713FD012689
:10404000FFF736FCFFF794FDFFF712FC94F94400EC
:10405000401C01D184F8449094F94500401C01D1E2
:1040600084F84590FFF724FC05A9684600F02CF879
:10407000002820460AD0FFF7D1FA00F0B5F9204613
:10408000FFF786F90028B3D00020CBE7FFF780F9CF
:1040900090B104F124000599FFF7F2FC2046FFF7E8
:1040A000BDFA00F0A1F90028A2D1C8F80070BFF352
:1040B0004F8FBFF36F8F9BE72046FFF7AFFA00F0FB
:1040C00093F995E704ED00E02DE9F0410C46050079
:1040D00011D0C4B1FFF7CCFB174B5A696E6820684A
:1040E000911B471C17D02F689B6A9F4219D096429C
:1040F00017D8012410E0502080F31188BFF34F8FB0
:10410000BFF36F8FFEE7502080F31188BFF34F8F0E
:10411000BFF36F8FFEE70024FFF7CAFB2046BDE820
:10412000F081884205D9401A20602846FFF79AFCA2
:10413000F1E700202060DCE7140000202DE9FF5F9C
:104140008346DDE90E87994616468A469000FFF7BA
:104150009BFA05001CD05420FFF796FA040014D0F7
:104160000020256384F85100CDE90240CDE90087A5
:104170004B46324651465846FFF781F82046FEF737
:1041800027FF012004B0BDE8F09F2846FFF7A4FBFD
:104190004FF0FF30F6E7F0B585B0DDE90B640A9D1E
:1041A000A6B1DCB1542700972663022684F851603B
:1041B000002604AFCDE90246CDE90057FFF75FF8CE
:1041C0002046FEF705FF049805B0F0BD502080F3AF
:1041D0001188BFF34F8FBFF36F8FFEE7502080F33E
:1041E0001188BFF34F8FBFF36F8FFEE70548C1699A
:1041F00019B1806B18B10020704701207047022070
:10420000704700001400002001484069704700001A
:10421000140000202DE9F0412E4C0027A06B40B186
:10422000206A401C2062606A00B101273846BDE860
:10423000F0816669761C666113D16068006838B1E8
:10424000502080F31188BFF34F8FBFF36F8FFEE7CD
:104250006068A1686160A060A06A401CA062FFF76E
:104260005DF9206BDFF87080864209D360680068D2
:1042700080B16068C068C568686886420DD22063F6
:104280002068C06A00EB800158F821000128CAD9D3
:104290000127C8E74FF0FF30F1E7281DFFF78CFA40
:1042A000A86A18B105F11800FFF786FAE86A01213B
:1042B000A26981401143A16100EB800108EB8100FC
:1042C000291DFFF7C9FAE86A2168C96A8842CDD377
:1042D0000127CBE7140000204809002070B5040036
:1042E0004FF0000140D0214D2868844207D0502073
:1042F00080F31188BFF34F8FBFF36F8FFEE7A06C81
:1043000038B1401EA064636CE26A9A422CD040B17E
:104310002AE0502080F31188BFF34F8FBFF36F8FD7
:10432000FEE7201DFFF748FA114A012150B9E06A63
:1043300000EB800352F8233023B9AB6901FA00F097
:104340008343AB61606CE062C0F10700A061E06A8A
:10435000AB6981401943A96100EB800002EB80004A
:10436000211DFFF779FA0121084670BD14000020D5
:10437000480900202DE9F041C068C468ACB104F1DF
:1043800018000746FFF718FA154DA86B0126A0B1D3
:1043900039461448FFF760FAE06A2968C96A88421A
:1043A0001CD901206E62BDE8F081502080F3118895
:1043B000BFF34F8FBFF36F8FFEE7201DFFF7FCF9B0
:1043C000E16AAA6906FA01F01043A86101EB8100D5
:1043D0000449B43901EB8000211DDBE70020E2E74E
:1043E00014000020FC0900202DE9F0472C4D00248A
:1043F0002746A86B38B1FFF73BFAA86B401EA863AD
:10440000A86B40B146E0502080F31188BFF34F8F76
:10441000BFF36F8FFEE72969224E0120D1B3A6F1C9
:10442000B40980463068E8B1F068C46804F1180047
:10443000FFF7C2F9201DFFF7BFF9E06AAA6908FA81
:1044400000F11143A96100EB800109EB8100211DFE
:10445000FFF702FAE06A2968C96A8842E2D3C5F820
:104460002480DFE70CB1FFF759F82C6A44B14646C7
:10447000FFF7D0FE00B16E62641EF9D10020286201
:10448000686A38B10849012738070860BFF34F8FC1
:10449000BFF36F8FFFF70CFA3846BDE8F0870000D6
:1044A00014000020FC09002004ED00E010B586B0E7
:1044B000FEF7F6FD114CA068B8B1002003900490FF
:1044C00005AA04A903A8FFF795F9DDE90321022055
:1044D0008DE8070000230AA10B48059AFFF75BFE51
:1044E000E06010B106B0012010BD502080F31188AB
:1044F000BFF34F8FBFF36F8FFEE700005000002027
:10450000546D722053766300F9350008FEB51E46DF
:1045100013460200089D4FF0000014D0124CA7680B
:10452000002F0FD0CDE900130292062915DAFFF70C
:104530005DFE02284FF000030DD000226946A068FE
:10454000FFF718FCFEBD502080F31188BFF34F8F9A
:10455000BFF36F8FFEE72A46F0E700233246694635
:104560003846FFF7B7FCFEBD50000020B4450008F8
:104570005528000800000000000000008000000036
:10458000000000000000000001020203040506070D
:1045900008090A0B0C0D0E0F10100000000000009F
:1045A00000000102030406070809000000000102E0
:1045B0000304000064656661756C745461736B007C
:1045C000E045000800000020B80000006C2C000846
:1045D00098460008B8000020681E00007C2C0008E7
:1045E00000000000010000001000000000000000BA
:1045F0000024F400000000000000000000000000A3
:1046000000000000000000000000000000000000AA
:10461000000000000000000000000000000000009A
:10462000000000000000000000000000000000008A
:10463000000000000000000000000000000000007A
:10464000000000000000000000000000000000006A
:10465000000000000000000000000000000000005A
:10466000AAAAAAAA000000000000000000000000A2
:104670000100000100000001000001010000010034
:104680000001010000010000010100000100000024
:084690004000000000000000E2
:04000005080000ED02
:00000001FF
