:020000040800F2
:10000000E84F002099010008013200085328000839
:10001000FD2F0008910D0008A34200080000000019
:1000200000000000000000000000000001010008C6
:10003000ED0F00080000000045010008DD3D00084C
:10004000B3010008B3010008B3010008B3010008C0
:10005000B3010008B3010008B3010008B3010008B0
:10006000B3010008B3010008B3010008B3010008A0
:10007000B3010008B3010008B3010008B301000890
:10008000B3010008B3010008B3010008B301000880
:10009000B3010008B3010008B3010008B301000870
:1000A000B3010008B3010008B3010008B301000860
:1000B000B3010008B3010008853E0008B301000841
:1000C000B3010008B3010008B3010008B301000840
:1000D000B3010008B3010008B3010008B301000830
:1000E000B3010008B3010008B3010008DFF80CD029
:1000F00000F07EFC0048004715490008E84F00204A
:10010000224B19680868B0E8F00F80F30988BFF344
:100110006F8F4FF0000080F311884EF00D0E704786
:100120000000000006480068006880F3088862B696
:1001300061B6BFF34F8FBFF36F8F00DF00BF00BF0B
:1001400008ED00E0EFF30980BFF36F8F0F4B1A68E3
:1001500020E9F00F106008B54FF0500080F31188CF
:10016000BFF34F8FBFF36F8F05F058FB4FF00000C8
:1001700080F31188BDE8084019680868B0E8F00FFE
:1001800080F30988BFF36F8F704700BF180000200D
:10019000EFF3058070470000064880470648004797
:1001A000FEE7FEE7FEE7FEE7FEE7FEE7FEE7FEE727
:1001B000FEE7FEE7813E0008ED000008202A04DB90
:1001C000203A21FA02F00021704721FA02F3D040D0
:1001D000C2F12002914008431946704740EA0103EA
:1001E0009B0703D009E008C9121F08C0042AFAD2ED
:1001F00003E011F8013B00F8013B521EF9D27047B1
:10020000D2B201E000F8012B491EFBD27047002258
:10021000F6E710B513460A4604461946FFF7F0FF05
:10022000204610BD421C10F8011B0029FBD1801A8A
:100230007047F0B480EA0102D40F4200B2EB410FE4
:1002400002D20246084611464A0042D0C30DDDB232
:10025000C1F3C752AD1A202D35DAC1F3160141F4AE
:10026000000204B15242C5F1200602FA06F12A4109
:100270001044B3EBD05F23D0C4B1012DA0EBC35029
:1002800009DCF0BC4FF0004202EAC352DBB200F5D9
:10029000000000F0F9BA400000F1807000EBC3509C
:1002A000A0F1807040EAD170490009E0490841EAB4
:1002B000C071A0EBC35000F50000400800EBC35034
:1002C000F0BC00F0D8BA6142012202EB4101001BF0
:1002D000F6E7F0BC704781F00041AAE780F00040EB
:1002E000A7E780EA010210B502F00043400022D0E7
:1002F0004A001FD0010E01EB1261C0F35600C2F399
:10030000560240F4000042F40002A0FB0220000468
:100310007F39140400D0401C50EA124001D4400040
:10032000491EC2B20C0604EBD010401C4008802AC3
:1003300002D003E0002010BD20F00100002900DA07
:100340000020184310BD30B480EA010202F00045DD
:1003500030F0004221F0004013D090B1C30DD40D15
:10036000C2F31601C0F31600E41A41F4000140F490
:1003700000027D34914201D3641C00E04900002C4E
:1003800002DA30BC002070474FF400000023914295
:1003900001D3891A034340084FEA4101F7D151B113
:1003A000914202D14FF0004105E002D24FF001012D
:1003B00001E06FF0010103EBC450284430BC00F0B1
:1003C0005ABA420005D0C0F3C7525242914201DCF2
:1003D0000020704700EBC15070472DE9FE4F80466A
:1003E00081EA0300C00F0C46009021F0004123F089
:1003F0000045B8EB0200A94105D24046214690468F
:100400001C460B46024623F00040104347D0270D00
:10041000C7F30A00C3F30A510290401A0190402822
:100420006BDAC3F3130040F4801B0098924620B1AE
:100430000023D2EB030A63EB0B0B01985946C0F182
:100440004002504600F0F6F906460D465046594621
:10045000019A00F0FEF910EB08006141002487EAE0
:10046000115284EAE7731A4340D0009A62B3019AAA
:10047000012A4FEA075215DC001B61EB02014FF025
:10048000004202EA0752CDE90042001C41F580110A
:1004900032462B4600F035FA03B0BDE8F08F4046F7
:1004A0002146F9E7001B61EB0201001C41F58013B6
:1004B00000185B412018A2F5001747EB030140EA42
:1004C000D570B6196D4111E06D084FEA360645EA60
:1004D000C0754FEA0752001B61EB0201001C41F599
:1004E000801149084FEA30000019514132462B462D
:1004F00003B0BDE8F04F00F0F5B9009801224000CC
:100500000023D0EB020263EBE073009821464FEA30
:10051000E074B8EB000061EB0401E9E783F000430D
:100520005BE781F0004158E72DE9FE4F81EA0304C3
:1005300004F0004421F0004100944FF0000B23F040
:10054000004350EA01045ED052EA03045BD0C3F3D7
:100550000A54C1F30A552C44A4F2F3340194A0FBCD
:100560000254C1F3130141F48011C3F3130343F4A4
:10057000801301FB024400FB034E840A970A44EAFD
:10058000815447EA8357A4FB076802958D0A05FB4F
:1005900007854FEA932C04FB0C542705029D4FEA74
:1005A000065847EA1637B5EB08056EEB070C870EC1
:1005B000920E47EA811742EA8312A7FB0201B6EBCB
:1005C0000B0164EB00042B0D43EA0C335E1844EB83
:1005D0001C50DA465146E7FB0201C5F313044FEA0B
:1005E0000B3343EA14534FEA0432019C43EA0603F7
:1005F000A4F10C040294009CCDE900B400F081F950
:1006000003B0BDE8F08F00200146F9E72DE9F04D79
:1006100081EA030404F0004B21F0004514464FF03A
:10062000000A23F0004150EA050220D054EA0102FA
:100630001DD0C5F30A570246C5F31303C1F31300D7
:10064000C1F30A5640F4801543F48013A7EB060863
:10065000101BD64608F2FD3873EB050002D308F1F3
:10066000010801E092185B41B8F1000F03DA0020A5
:100670000146BDE8F08D00204FF480110646844607
:100680000EE0171B73EB050705D3121B63EB050385
:1006900006434CEA010C49084FEA300092185B41CE
:1006A00050EA0107EDD152EA030012D082EA0400B9
:1006B00083EA0501084305D0101BAB4106D2012295
:1006C000002306E000224FF0004302E06FF0010239
:1006D00053101AEB06004CEB085110EB0A0041EBEB
:1006E0000B01BDE8F04D00F0FDB8C10F80EAE070ED
:1006F0000844CA079623002100F0C6B896230022BA
:10070000114600F0C1B80EB540F23341029100210C
:10071000CDE900110A460B4600F0F3F803B000BD26
:1007200000F0004220F00040C10DC0F3160040F47C
:1007300000007F2901DA00207047962903DCC1F10F
:100740009601C84001E096398840002AF4D0404222
:10075000704720F00040C10DC0F3160040F40000C7
:100760007F2901DA00207047962903DCC1F1960148
:10077000C840704796398840704700F0004230F01A
:1007800000400AD0C10D01F56071C0F3160042EAC5
:100790000151C208400711437047002001467047CD
:1007A00030B5041E71F1000404DB4FF000444042F8
:1007B00064EB0101141E73F1000405DB1C464FF0CD
:1007C0000043524263EB04038B4208BF824230BDB8
:1007D00001F0004330B421F0004150EA010206D09C
:1007E0000A0DA2F56072C1F31301002A02DC30BCCD
:1007F00000207047440F44EAC104C100E01830BC37
:1008000000EBC25000F037B830B50B46014600206F
:100810002022012409E021FA02F59D4205D303FAC2
:1008200002F5491B04FA02F52844151EA2F1010243
:10083000F1DC30BD202A04DB203A00FA02F100206E
:1008400070479140C2F1200320FA03F3194390400E
:100850007047202A06DBCB17203A41FA02F043EA20
:10086000E07306E041FA02F3D040C2F12002914069
:100870000843194670470029A8BF7047401C49002B
:1008800008BF20F00100704710B4B0FA80FC00FAF5
:100890000CF050EA010404BF10BC704749B1CCF120
:1008A000200421FA04F411FA0CF118BF01212143AC
:1008B0000843A3EB0C01CB1D4FEA00614FEA102067
:1008C00042BF002010BC704700EBC3501044002909
:1008D000A4BF10BC7047401C490008BF20F00100B5
:1008E00010BC704710B5141E73F1000408DA401CE8
:1008F00041F1000192185B411A4301D120F001003F
:1009000010BD2DE9F04D92469B4611B1B1FA81F22E
:1009100002E0B0FA80F220329046FFF78BFF0446E7
:100920000F4640EA0A0041EA0B0153465A46084383
:1009300013D0114653EA010019D0C8F140025046C5
:10094000FFF73CFC05460E46504659464246FFF727
:1009500071FF084305D0012004E020463946BDE878
:10096000F08D0020054346EAE0762C4337430A9891
:100970006305E40AA0EB08000022FD0A44EA47549C
:100980000A3002D500200146E9E701051019694146
:10099000DDE9084500196941BDE8F04DA2E770B5F1
:1009A00021F0004303430CD0C1F30A550024D5EBDA
:1009B000040564EB0403D617AD1AB34102DB002033
:1009C000014670BD201841EB025170BD0EB5C10F3C
:1009D00080EAE0700844CA07002140F233438DE802
:1009E0000E000A460B46FFF78CFF03B000BD000067
:1009F000064C074D06E0E06840F0010394E807006C
:100A000098471034AC42F6D3FFF774FBB866000881
:100A1000D866000870B5044600688168C943C907F4
:100A200017D1816821F00101816000F0F7FE0546D1
:100A30000AE000BF00F0F2FE401B022804D9206843
:100A40008068C043C00706D020688068C043C007E4
:100A5000F0D0002070BDA06A40F01000A062E06AF3
:100A600040F00100E062012070BD0000F8B50026F2
:100A70000446009600688168C943C9072DD0816883
:100A800041F001018160164816490068B0FBF1F0A1
:100A900000E0401E00900028FBD100F0BFFE05469C
:100AA00016E000BF00F0BAFE401B022810D92068F3
:100AB0008068C043C0070BD0A06A40F01000A0625D
:100AC000E06A40F00100E06284F824600120F8BD93
:100AD00020688068C043C007E4D10020F8BD000052
:100AE0001400002040420F0070B502680026134633
:100AF00035460AE050F82540944201D2224602E0F1
:100B00009C4200D9234626446D1C8D42F2DBD0184E
:100B1000301A891EB0FBF1F070BD000010B511490C
:100B2000FFF711FCFFF729FE03F046FD00220E4BF4
:100B3000FFF76CFD4FF060420C4BFFF74EFC024696
:100B40000B4600200A49FFF761FD4FF0C042094BF8
:100B5000FFF7E4FC0022084BFFF73FFCBDE8104024
:100B6000FFF736BE0060EA4600DCAE40E1796B3F3D
:100B70000000F03F661271400000E03F0D4808B5EC
:100B80000078002814D000F0E5FA41788DF80010C4
:100B900081788DF80110C1788DF8021000798DF8F8
:100BA00003004FF6FF7304226946034801F004FE78
:100BB00008BD0000B8000020D808002070B50C4C1B
:100BC000E078002813D0C82004F020FD09A003F02D
:100BD00069FB0B490BA003F065FB0EA003F062FB61
:100BE0000025642106482562FFF711FBE57070BD02
:100BF000B80000205B494E464F5D203E3E2000007D
:100C000098170020436C65616E202D2D2D202573D3
:100C1000000000000D0A000010B505A003F042FB23
:100C200006A003F03FFBBDE8104009A003F03ABB6B
:100C30005B494E464F5D203E3E2000004275747475
:100C40006F6E20446F75626C6520436C69636B0046
:100C50000D0A000010B506A003F024FB07A003F066
:100C600021FB0AA003F01EFB09490120087010BDFA
:100C70005B494E464F5D203E3E2000004275747435
:100C80006F6E20446F776E21000000000D0A000097
:100C900000010020154810B54178002924D1012118
:100CA000417013A003F0FEFA14A003F0FBFA16A0A3
:100CB00003F0F8FA00F04EFAC17819B9007930B1B2
:100CC000032804D0BDE81040012002F09BBB08A01F
:100CD00003F0E8FA0DA003F0E5FA0BA003F0E2FA46
:100CE000BDE8104002F008BA10BD0000000100206D
:100CF0005B494E464F5D203E3E20000042757474B5
:100D00006F6E204C6F6E67000D0A000042746E5FBC
:100D10004C6F6E675F43616C6C6261636B3A20502D
:100D20006170657253746172744D6F766500000076
:100D3000084910B50020487007A003F0B3FA09A0D5
:100D400003F0B0FA11A003F0ADFABDE8104002F0D4
:100D5000EBB90000000100205B494E464F5D203E8C
:100D60003E20000042746E5F4C6F6E675F46726596
:100D7000655F43616C6C6261636B3A2053746F70A2
:100D800050617065724D6F76650000000D0A0000BD
:100D9000FEE70000052903D000EB8100C262704726
:100DA0005FF0000100EB8103491CC9B2DA62062939
:100DB000F8D370472DE9FC411E4615460C00074646
:100DC00004D116221AA120A003F06CFA4C2120466F
:100DD000FFF71DFA3946201D02F0C8FF072004F86E
:100DE000240F6070207144F8245CA670A847E0705E
:100DF000002084F82200184801686162243C0460E5
:100E000016A003F04FFA94F8271094F82600CDE9C5
:100E1000000194F8283094F82420211D124803F092
:100E200041FA12A003F03EFABDE8FC4102F0A0BE78
:100E30002E2E5C436F72655C68616C5C41755F422D
:100E40007574746F6E2E63000A4572726F723A2564
:100E5000732C25640D0A0000FC0000205B494E46FF
:100E60004F5D203E3E200000E86500080D0A0000AE
:100E7000054810B5046803E0204600F007F8A46CAC
:100E8000002CF9D110BD0000FC0000202DE9F0413C
:100E900004460068804794F82710002581421DD041
:100EA00094F84610491CC9B284F84610022915D39B
:100EB00084F8270084F8465094F82400072803D0CB
:100EC000022801D018B109E084F8245006E001207E
:100ED00084F82400216B09B12046884794F8240047
:100EE0000327D8B1072601282FD0022814D194F85F
:100EF0004500401CC0B284F845000F280CD384F88C
:100F0000246084F8256084F84550E16A09B12046E0
:100F1000884704F8246F6570BDE8F08194F82700D5
:100F200094F826108842F7D184F8285094F84700A6
:100F3000401CC0B284F847003228EDD384F82870F2
:100F4000FF28E9D184F84770E6E794F8280058B103
:100F50000328E1D1E16B09B12046884784F8475066
:100F600004F8246F6770D7E794F8451002200F2922
:100F700003D894F82510022907D004F8455FA5701E
:100F800004F8210C04F8200CC6E784F82800616BF3
:100F900009B12046884704F8246F6670BCE700005A
:100FA0000149002048607047B80000200248002135
:100FB0004160016081607047D84B002001490020EA
:100FC00008707047F0000020044800214161016171
:100FD000C16081604160016070470000801700209F
:100FE0000148406803F024BDF00000207047000075
:100FF000164B0E2810D01B2812D01A2814D01928EE
:1010000016D0212818D020281AD00C281CD1CAB2FA
:101010000221184600F0FDBBCAB24FF48061F8E728
:10102000CAB24FF40061F4E7CAB24FF48051F0E75E
:10103000CAB24FF40051ECE7CAB24FF48041E8E77E
:10104000CAB24FF40041E4E770470000000C0140D1
:10105000122804D1CAB20121014800F0DABB70475E
:10106000000C0140CAB24FF40061014800F0D1BB4E
:101070000008014072B6FEE770B512484068FFF7FD
:101080003DFB1149FFF72DF96FF00B01FFF799F9BF
:101090000546FFF772FB4FF066320C4BFFF741FA43
:1010A00006460C460A492846FFF71BF9FFF765FB81
:1010B00032462346FFF7AAFAFFF78AFBBDE87040E5
:1010C000FFF72CBDE80000203333534066660A402A
:1010D00000401C4670B594B000246D460AAE184816
:1010E00000F028FA6421164800F086F920B9144867
:1010F00000F0C4F845F82400114800F01BFA642100
:101100000F4800F079F920B90D4800F0B7F846F81B
:1011100024000B4800F06EFA641C0A2CDFDB0A2165
:101120006846FFF7E1FC074C0A2120600AA8FFF798
:10113000DBFC6060024800F05DFA206814B070BD0E
:10114000C0070020E8000020014800787047000038
:10115000B800002000487047020100200148407894
:1011600070470000F0000020014800787047000040
:10117000F00000200148D0F898037047484800204C
:10118000F8B50024009490F824202546012A12D0B6
:10119000012280F824204A681F23072A0DD20668FE
:1011A000776B521E02EB820293409F430B68934081
:1011B0001F43776319E00220F8BD06680D2A0AD2A2
:1011C000376BD21F02EB820293409F430B68934020
:1011D0001F43376309E0F76A0D3A02EB820293403E
:1011E0009F430B6893401F43F7620A680723066812
:1011F0000A2A0AD3F7680A3A02EB420293409F4355
:101200008B6893401F43F76008E0376902EB4202A6
:1012100093409F438B6893401F4337610A68102AAD
:1012200001D0112A20D1124B02689A4217D193683B
:101230001B0219D4936843F40003936009681029D2
:1012400012D10C490C4A0968B1FBF2F101EB8101A2
:10125000490000E0491E00910029FBD104E0816AA9
:1012600041F020018162012480F824502046F8BD1D
:10127000002401401400002040420F000068C06CB0
:10128000704700002DE9F0414FF0000704003D4693
:101290007ED0A06A002628B9E66284F82460204641
:1012A00000F07EF82046FFF7B5FBA16AC90600D41E
:1012B00020B1A06A40F01000A06269E0A16A21F4A8
:1012C000885141F00201A1626268E169237B0A430F
:1012D00047EA43010A43A1684FF48077B94209D035
:1012E000012907D05FF0000194F814C0BCF1010F90
:1012F00002D00AE03946F7E7F3B1A36A43F02003CE
:10130000A362E36A43F00103E3622368D3F804C0F5
:101310002CF4694C4CEA010CC3F804C021688B68BA
:10132000DFF870C003EA0C0313438B60A168B94275
:101330000BD0012909D00CE0DFF85CC0A3690CEBED
:1013400043330B4343F40061DFE7218A0D05A5F524
:1013500080152168CB6A23F470032B43CB6221688C
:1013600089680E4B1940914208D1E662A16A21F0CA
:10137000020141F00101A162BDE8F081A06A20F004
:10138000020040F01000A062E06A40F00100E0625C
:101390000120F1E7FDF7E1FF00E0FFFFFE0E1FFF78
:1013A00000B585B000210091019102910391006880
:1013B0000E49884217D10E48816941F4007181615C
:1013C000816901F400710491816941F00401816136
:1013D0008069694600F004000490032000900190A9
:1013E000044800F021F905B000BD000000240140D0
:1013F00000100240000801402DE9F84300270D4687
:101400000446009700F00AFA804620688168C90502
:1014100008D5A06A40F02000A06284F82470012062
:10142000BDE8F8834168C90503D4C06A10F4700FA1
:101430002AD0022000F0C2FA3B490968B1FBF0F65D
:101440002068036939490B424FEA61014FEAA11252
:101450001FD1C3684FEA611C13EA0C0F19D103694D
:101460000B4225D1C068104222D1142023E0681C11
:101470000AD02DB100F0D2F9A0EB0800A84203D9A0
:1014800020680068800725D5206800688007EED5B1
:101490002DE003690B4202D1C168114206D00269F6
:1014A00023490A4206D1C068084203D1542002E011
:1014B000292000E0FC204643009816E0681C11D06B
:1014C0002DB100F0ABF9A0EB0800A8420AD90098B2
:1014D000B04207D2A06A40F00400A06284F82470F1
:1014E00003209DE70098401C0090B042E6D321689D
:1014F0006FF012000860A06A40F40070A0622068DB
:101500008068C0F3424007280CD1207B50B9A06A04
:1015100020F48070A062A06AC00403D4A06A40F0E6
:101520000100A06200207BE71400002024499224DF
:101530004992240070B5044690F8240001280DD08B
:10154000012084F824002046FFF790FA02004FF0B3
:10155000000005D084F82400104670BD022070BD44
:10156000A16A40F20123994341F48071A1621F4DA9
:1015700023681F49AB4218D10E6816F4702F14D09F
:10158000A66A46F48016A6620E68760505D5A66A98
:1015900026F4005646F48056A662A66AF6040AD5DA
:1015A000E66A26F00606E66206E0A66A26F48016DB
:1015B000A6625E68E9E7E06284F824006FF002004A
:1015C000186020688368C3F34243072B05D1A84203
:1015D00008D1096811F4702F04D0816841F480119A
:1015E0008160B9E7816841F4A001F9E70028014072
:1015F0000424014010B5044690F82400012807D0C7
:10160000012084F824002046FFF704FA10B107E017
:10161000022010BDA16A21F4885141F00101A162AC
:10162000002184F8241010BD2DE9F84FDFF8B8919F
:101630000024A9F1040B23460F2709F1040AABF19A
:10164000040EC9E00125A5402A40AA427DD1674E7B
:10165000D1F804C0ACEB0608B44532D014DCBCF1C0
:10166000030F3AD009DCBCF1000F2AD0BCF1010F06
:101670001CD0BCF1020F31D11DE0BCF1110F17D00D
:10168000BCF1120F2AD119E0B8F5881F19D006DC79
:10169000B8F5803F15D0B8F5801F1FD111E0B8F51F
:1016A000001F0ED0B8F5041F18D10AE0CB6815E072
:1016B000CB681B1D12E0CB6808330FE0CB680C33FE
:1016C0000CE08B682BB1012B4FF0080303D0456170
:1016D00004E0042302E0056100E00023FF2A01D8B2
:1016E000064601E000F104064FEA840501D9A5F1A0
:1016F0002005D6F8008007FA05FC28EA0C0803FA52
:1017000005F548EA0508C6F800804D68ED0062D589
:10171000374DAE6946F00106AE61AD6924F00306AF
:1017200005F001050095334D06EB050CDCF808507B
:10173000A607360F07FA06F825EA0805DFF8B8808D
:10174000404503D14FF0000817E044E0DFF8AC80DB
:10175000404502D14FF001080FE0DFF8A48040457A
:1017600002D14FF0020808E0DFF89880404502D12E
:101770004FF0030801E04FF0040808FA06F848EAC1
:101780000508CCF808804D68D9F80060ED024D4698
:1017900001D5164300E096432E604D68DAF80060EC
:1017A000AD02554601D5164300E096432E604D68C4
:1017B000DBF80060AD035D4601D5164300E09643BB
:1017C0002E604D68DEF80060ED03754601D51643C6
:1017D00000E096432E60641C0D682A46E5407FF4C5
:1017E00031AFBDE8F88F000008040140000011107F
:1017F000001002400000014000080140000C0140C0
:1018000000100140001401408068084000D0012011
:1018100070470AB1016170470904FBE7014880681D
:1018200070470000080000200248816802781144D7
:101830008160704708000020074810B5016841F03A
:1018400010010160032000F0A7F80F2000F006F857
:1018500000F050F8002010BD0020024030B50546D1
:101860001F4887B0C16941F00401C161C06906A980
:1018700000F00400009001A800F0FEF90498B0B157
:1018800000F01AFA40001749174AB0FBF1F1174867
:10189000491E0260416040F2E7320021C0E90321A5
:1018A0008160816100F054FD040003D015E000F078
:1018B00003FAE8E70D4800F08DFD04000DD11E206D
:1018C00000F03CF8102D07D2002229461E2000F01F
:1018D00043F80748056000E0012407B0204630BD0A
:1018E0000010024040420F00000800402009002084
:1018F0000C0000200F4808B5816941F001018161A9
:10190000816901F001010091C16941F08051C1611B
:10191000C069002200F0805000900F21901E00F05E
:101920001BF80548416821F0E06141F00071416019
:1019300008BD00000010024000000140002809DB43
:1019400000F01F02012191404009800000F1E020D9
:10195000C0F8001170470000F0B40E4B1B680C4635
:10196000C3F30223C3F10705042D00D90425191D73
:10197000072901D2002300E0DB1E012606FA05F14B
:10198000491E214099409E40761E16403143F0BCCE
:1019900002F098BC0CED00E0064900F00702086870
:1019A0004FF6FF03184040EA0220034A1043086044
:1019B000704700000CED00E00000FA0510B501468C
:1019C0000020234C012922D0022939D010291DD111
:1019D00061682268D20119D51E48C1F38342C90348
:1019E000805C0AD561681B4AC1F34041921E515C7C
:1019F000194AB2FBF1F1484301E0184948436168D4
:101A0000490203D440000321B0FBF1F010BD226A6B
:101A1000C2F30121012903D1920701D5C80310BDEA
:101A2000022905D1626A920702D549F6404010BDED
:101A30000329FCD121688903F9D54FF2244010BD58
:101A400000F04AF96168C1F38131491C4900DBE7C4
:101A5000001002400465000800127A0000093D00F1
:101A60002DE9F84305460078354CC00754D0E069AD
:101A70000026C00008D4E06940F08050E061E069D1
:101A8000012600F0805000902E480168C90512D44C
:101A90000168804641F480710160FFF7BFFE074690
:101AA00005E000BFFFF7BAFEC01B642823D8D8F8B2
:101AB0000000C005F6D5206A10F4407021D0A98836
:101AC00001F4407181421CD0206A1F49012220F498
:101AD00040700A6000220A602062C00711D0FFF740
:101AE0009DFE074641F2883808E000BFFFF796FEEA
:101AF000C11B414502D90320BDE8F883206A800755
:101B0000F4D5206A696820F44070084320621EB151
:101B1000E06920F08050E0612878800705D5606892
:101B2000A96820F44040084360602878C00605D5C5
:101B30006068E96820F48000084360600020DBE70B
:101B40000010024000700040400442422DE9F0477E
:101B50000F46050061D0434E306800F00700B842E0
:101B600009D2306820F0070038433060306800F058
:101B70000700B84251D128683B4C810712D5400775
:101B800003D5606840F4E06060602878000703D502
:101B9000606840F4605060606068A96820F0F00000
:101BA000084360602878C00728D06868012810D0F2
:101BB0002168022810D0890700292EDA616821F0F7
:101BC000030101436160FFF729FE804641F2883935
:101BD0000DE021688903EFE78901EDE7FFF71EFEBD
:101BE000A0EB0801494502D90320BDE8F0876068F1
:101BF000696800F00C00B0EB810FEFD1306800F0A5
:101C00000700B8420BD9306820F007003843306035
:101C1000306800F00700B84201D00120E5E72878DD
:101C2000400705D56068E96820F4E060084360601B
:101C30002878000706D56068296920F4605040EADA
:101C4000C100606000F058F86168084AC1F30311F0
:101C5000515CC8400649086006480068FFF7FEFD71
:101C60000020C2E700200240001002401465000876
:101C7000140000200C0000200F2202600C4A536860
:101C800003F003034360536803F0F0038360536879
:101C900003F4E063C36052684FF4E06303EAD202E6
:101CA00002610448006800F0070008607047000007
:101CB00000100240002002400448054900684968BD
:101CC000044AC1F30221515CC8407047140000204F
:101CD000001002402465000804480549006849686E
:101CE000044AC1F3C221515CC8407047140000206F
:101CF00000100240246500080E4A51680E4801F0A9
:101D00000C03042B11D0082B0FD10C48C1F38343D3
:101D1000C903C05C0AD55168084AC1F34041921E0C
:101D2000515C054A5043B0FBF1F070470449484309
:101D3000704700000010024000127A00F2640008B0
:101D400000093D002DE9F84F040070D02078C04D07
:101D5000C00749D06868C0F38100012807D06868CF
:101D6000C0F38100022809D16868C00306D528683D
:101D7000800339D560680028E7D035E06068B0F5A9
:101D8000803F0BD010B1B0F5A02F11D0286820F4FF
:101D900080302860286820F4802002E0286840F421
:101DA00080302860606890B1FFF738FD06460AE091
:101DB000286840F480202860F0E700BFFFF72EFD80
:101DC000801B642873D828688003F7D50CE0FFF7E0
:101DD00025FD064605E000BFFFF720FD801B6428B7
:101DE000F0D828688003F7D420789A4E80074FF007
:101DF00001094FF0000839D5686810F00C0F07D0C2
:101E00006868C0F38100022809D16868C00306D45D
:101E10002868800714D52069012808D110E02069BE
:101E2000B0B1C6F80090FFF7F9FC074605E00AE1FB
:101E3000FFF7F4FCC01B0228C4D828688007F7D538
:101E40002868616920F0F80040EAC10028600DE0D0
:101E5000C6F80080FFF7E2FC074604E0FFF7DEFC6F
:101E6000C01B022823D828688007F7D420780007F1
:101E70002CD57948A169D9B1C0F80090FFF7CEFC04
:101E8000074604E0FFF7CAFCC01B02280FD8686AA7
:101E90008007F7D571484FF4FA510068B0FBF1F0B4
:101EA000009000BF0098411E0091FAD20EE080E041
:101EB000C0F80080FFF7B2FC074604E0FFF7AEFC75
:101EC000C01B022875D8686A8007F7D420784007BD
:101ED00060D5E8690027C00008D4E86940F0805068
:101EE000E861E869012700F0805000905C480168D3
:101EF000C90513D40168834641F480710160FFF77E
:101F00008DFC824606E000BFFFF788FCA0EB0A00CC
:101F100064284ED8DBF80000C005F5D5E06801283C
:101F20000AD008B1052813D0286A20F001002862E1
:101F3000286A20F0040002E0286A40F001002862CC
:101F4000E06841F2883B98B1FFF768FC82460BE0FD
:101F5000286A40F004002862EEE700BFFFF75EFC4D
:101F6000A0EB0A0159455AD8286A8007F6D50CE03B
:101F7000FFF754FC824605E0FFF750FCA0EB0A0196
:101F800059454CD8286A8007F6D41FB1E86920F07B
:101F90008050E861E06988B36968C1F38101022972
:101FA00044D00228C6F8608004D0FFF737FC04460E
:101FB00038E034E0FFF732FC074604E0FFF72EFC80
:101FC000C01B02282BD828688001F7D4206AB0F5FE
:101FD000803F05D16868A16820F40030084368603C
:101FE000D4E908010843696821F474110843686062
:101FF000C6F86090FFF712FC044606E025E000BF3B
:10200000FFF70CFC001B022809D828688001F7D5CF
:102010001BE000BFFFF702FC001B022802D90320CF
:10202000BDE8F88F28688001F4D40EE00128F7D0CD
:102030006868226A00F48031914204D1616A00F438
:102040007010884201D00120EAE70020E8E7000094
:10205000001002400000424280044242140000206E
:102060000070004070B5040009D0606A002540B1DE
:1020700025616561A56294F8510040B10CE0012032
:1020800070BD6068B0F5827FF4D0E561F2E784F856
:102090005050204600F040F8022084F8510020689B
:1020A000016821F040010160A088218900F482705C
:1020B00001F404410843A18901F400610843217C33
:1020C00001F002010843217D01F001010843218B49
:1020D00001F400710843217F01F03801084394F8AE
:1020E000201001F080010843218D01F400510843C4
:1020F00021680860A069042101EA10402168486055
:102100002068C16921F40061C1616565012084F81E
:102110005100002070BD000000B585B00021009185
:1021200001910291039100680F4988421AD10F482A
:10213000816941F480518161816901F48051049188
:10214000816941F0040181618069694600F0040001
:102150000490A020009002200190032003900448E6
:10216000FFF762FA05B000BD0030014000100240E8
:10217000000801402DE9F84F044690F85000002671
:10218000984615468A4601280CD0012784F85070DD
:10219000FFF744FB814694F85100B346012804D070
:1021A00002269AE00220BDE8F88FBAF1000F6FD046
:1021B000002D6DD0032084F85100C4F854B0C4F849
:1021C00030A0A586E586C4F838B0A4F83CB0A4F8E1
:1021D0003EB0C4F844B0C4F840B0A068B0F5004FB9
:1021E00009D12068016821F0400101602068016880
:1021F00041F48041016020680168490603D4016808
:1022000041F040010160E068B0F5006F606803D004
:1022100058B3012D29D049E008B1012D1FD1206B01
:1022200021680088C86006E020688168890709D5B0
:10223000216B0988C160206B801C2063E08E401EEA
:10224000E0860CE0FFF7EAFAA0EB0901414503D371
:10225000B8F1FF3F03D006E0B8F1000F03D0E08EE5
:102260000028E1D125E0032635E0206B21680078C5
:10227000087306E02068816889070AD5216B097810
:102280000173206B401C2063E08E401EE0860DE051
:102290001FE0FFF7C3FAA0EB0901414503D3B8F1F2
:1022A000FF3F03D0DFE7B8F1000FDCD0E08E00285D
:1022B000E0D14A464146204601F0EEFB08B120201D
:1022C0006065A06818B92068C16880680090606D7A
:1022D00008B1012601E084F8517084F850B030460E
:1022E00061E770477047000070B590F83C20012A04
:1022F00026D0012480F83C40022280F83D2003686B
:102300005A689D6822F070060A6832435A600D4B85
:1023100002689A4208D0B2F1804F05D00A4B9A4227
:1023200002D00A4B9A4204D1496825F08003194330
:10233000916080F83D40002180F83C10084670BD57
:10234000022070BD002C0140000400400008004045
:1023500010B5040003D094F83D0010B107E001204F
:1023600010BD002084F83C00204600F01FF8022039
:1023700084F83D00211D206801F08AFD012084F8C9
:10238000460084F83E0084F83F0084F8400084F85A
:10239000410084F8420084F8430084F8440084F843
:1023A000450084F83D00002010BD000008B500681D
:1023B0000649884208D10648816941F4006181617B
:1023C000806900F40060009008BD0000002C01400E
:1023D0000010024090F83D10012901D00120704703
:1023E000022180F83D100168CA6842F00102CA600B
:1023F00000680B49884208D0B0F1804F05D00949E8
:10240000884202D00849884204D1816801F007015E
:10241000062903D0016841F00101016000207047E6
:10242000002C0140000400400008004070B5044644
:1024300090F83C000025012817D0012684F83C6064
:10244000022084F83D002068826822F0770222F49E
:102450007F4282600868502838D00DDC20284FD099
:1024600005DC90B3102811D14AE0022070BD30285D
:1024700046D040280AD13BE060282FD070280DD0EC
:10248000B0F5805F03D0B0F5005F12D0012584F86D
:102490003D60002084F83C00284670BDCB68D1E93F
:1024A0000121206801F02AFD2068816841F0770150
:1024B00009E0CB68D1E90121206801F01FFD206807
:1024C000816841F480418160E1E719E0CA684968A8
:1024D000206801F025FD5021206806E0CA6849689F
:1024E000206801F02EFD6021206801F011FDCEE78B
:1024F000CA684968206801F013FD40212068F4E7AC
:10250000226801461046F0E7704770B5044600683F
:1025100001694FF00005C943890715D4C168C94353
:10252000890711D4E91E01610120207720688069A4
:102530008007204602D0FFF7E7FF04E000F098F89C
:10254000204600F096F8257720680169C9434907BD
:1025500017D4C168C943490713D46FF0040101615E
:10256000022020772068806910F4407F204602D046
:10257000FFF7CAFF04E000F07BF8204600F079F88E
:10258000257720680169C943090716D4C168C94382
:10259000090712D46FF00801016104202077206838
:1025A000C0698007204602D0FFF7AEFF04E000F0CC
:1025B0005FF8204600F05DF8257720680169C9437F
:1025C000C90617D4C168C943C90613D46FF01001F6
:1025D0000161082020772068C06910F4407F204600
:1025E00002D0FFF791FF04E000F042F8204600F02F
:1025F00040F8257720680169C943C90708D1C16837
:10260000C943C90704D1891E0161204600F032F890
:1026100020680169C943090609D4C168C94309068C
:1026200005D46FF0800101612046FFF75AFE206853
:102630000169C943490609D4C168C943490605D49B
:102640006FF040010161204600F01EF8206801692A
:10265000C94389060BD4C168C943890607D46FF002
:10266000200101612046BDE87040FFF73BBE70BD10
:102670007047704700680349884201D1FFF7D4B81A
:102680007047000000080040704770B5040004D097
:1026900094F84100002510B106E0012070BD84F8D7
:1026A0004050204600F024F8242084F8410020689F
:1026B000C16821F40051C160204601F03FFD20684F
:1026C000016921F4904101612068416921F02A01EA
:1026D00041612068C16841F40051C16065642020F7
:1026E00084F8410084F842006563002070BD00005A
:1026F00070B586B000240094019402940394234E94
:102700000368234902200322224DB34219D18B6969
:1027100043F480438B618B6903F4804304938B699A
:1027200043F004038B618969039201F00401049171
:102730000102CDE9001069462846FEF775FF28150D
:102740001BE0154EB3421FD1CB6943F40033CB617C
:10275000CB6903F4003304938B6943F004038B616A
:102760008969039201F0040104910421CDE900106C
:1027700069462846FEF758FF0820CDE9000469465F
:1027800028460294FEF750FF06B070BD00380140A5
:1027900000100240000801400044004090F8423020
:1027A000202B01D00220704721B11AB1002303630E
:1027B00001F020BD012070472DE9F843044690F850
:1027C00041001F4616460D46202802D00220BDE8D3
:1027D000F8837DB176B100206064212084F8410047
:1027E000FFF71CF8A6848046E684A068B0F5805FF9
:1027F00002D003E00120EAE7206910B12E4600254F
:102800000EE000260CE08021204601F00EFDA0B96C
:10281000AEB116F8010B21684860E08C401EE084E0
:10282000E08C43464FF0000200970028EBD14FF0B8
:102830004001204601F0F9FC30B10320C7E735F82C
:10284000020BC0F30800E6E7202084F841000020D6
:10285000BDE7FEE710B50548FEF76CFEBDE8104089
:102860004FF47A710148FEF7C7BD0000C007002091
:1028700070B5754C01254FF6FF76606A401C6062AA
:10288000322002F0C3FE6078E0B101281AD002289D
:102890002CD003282AD004283CD005283AD006287A
:1028A0004CD007284AD008285CD00A285AD00B28D8
:1028B0006ED009286CD00C286AD00D287FD00E2845
:1028C0007CD09FE061A001F0EDFC63A001F0EAFC88
:1028D00066A001F0E7FCA068FDF7A4FC82B23346D5
:1028E0006348A168FFF768FF65708BE057A001F0AF
:1028F000D9FC60A001F0D6FC5CA001F0D3FCE0683C
:10290000FDF790FC82B233465948E168FFF754FF67
:10291000032050E04DA001F0C5FC60A001F0C2FC16
:1029200052A001F0BFFC2069FDF77CFC82B2334667
:102930004F482169FFF740FF05203CE043A001F02C
:10294000B1FC5EA001F0AEFC48A001F0ABFC6069F8
:10295000FDF768FC82B2334645486169FFF72CFFFA
:10296000072028E039A001F09DFC5AA001F09AFC54
:102970003EA001F097FCA069FDF754FC82B23346FB
:102980003B48A169FFF718FF0A206070A57039E085
:102990002EA001F087FC54A001F084FC33A001F0CC
:1029A00081FCE069FDF73EFC82B233463048E169C4
:1029B000FFF702FF0C20607024E000E010E023A08D
:1029C00001F070FC4DA001F06DFC28A001F06AFC44
:1029D000A07800281DA023D001F064FC4BA022E0C9
:1029E0001AA001F05FFC50A001F05CFC1FA001F0F8
:1029F00059FCE069FDF716FC82B233461C48E169D8
:102A0000FFF7DAFE11A001F04DFC61784DA001F056
:102A100049FC16A001F046FC032000F0F3FC2CE773
:102A200001F040FC4DA001F03DFC10A001F03AFC8B
:102A30004FF47A7002F0EAFD00202062BDE8704099
:102A400064214D48FDF7E3BBB80000205B494E46CA
:102A50004F5D203E3E200000424C453A456E746575
:102A6000722041545F4D4F44450000000D0A0000A4
:102A7000D8080020424C453A536574205374617461
:102A800075732830292C20436C6F7365204465765C
:102A9000696365205374617475730000424C453A54
:102AA000517565727920436C6F7365204465766952
:102AB000636520537461747573000000424C453A9D
:102AC000517565727920446576696365204E616D44
:102AD00065000000424C453A5365742044657669B0
:102AE0006365204E616D6500424C453A51756974CD
:102AF0002041545F4D4F44450000000051756974FA
:102B000020426C6520496E6974000000E9858DE7FC
:102B1000BDAEE5AE8CE688902C20E9878DE590AFC0
:102B2000E4BDBFE794A80000424C453A424C452022
:102B3000524553455420517569742041545F4D4F9F
:102B400044450000475F424C455F494E49545F533E
:102B5000544550203D20256400000000E9858DE7A4
:102B6000BDAEE5AE8CE688902C20E6ADA3E5B8B806
:102B7000E4BDBFE794A800009817002010B500231B
:102B80000D4A0E490EA0FEF715F90F4A00210B4819
:102B9000FEF700F90D4A02210848FEF7FBF80C4A3F
:102BA00003210648FEF7F6F8BDE81040094A042163
:102BB0000248FEF7EFB80000D9320008FC170020E9
:102BC000427574746F6E0000550C0008190C0008F3
:102BD000950C0008310D00080548002164220160B1
:102BE000017142701E2282700170C1707047000036
:102BF0000201002001211220FEF72ABA10B500219F
:102C0000162000F0ADFA0021132000F0A9FA0021EF
:102C1000172000F0A5FA0021BDE81040152000F0B3
:102C20009FBA10B5FFF7EAFF01F027F80021112045
:102C3000FEF718FABDE8104000F01CB810B500F01F
:102C4000E1FA01F01AF801210C20FEF7D1F9012177
:102C5000BDE810401120FEF705BA000010B5FEF7E0
:102C6000A5F9012002F05CFE0149086010BD0000DA
:102C700008010020704700001CB519A001F012FBEC
:102C80001AA001F00FFB1CA001F00CFBFFF7A4FF42
:102C900000F04CF8FFF7AEFFFFF7E0FFFFF7DAFDBB
:102CA000FFF76CFFFFF7BDFF00240120CDE9000412
:102CB0002346802211A1144803F078F900940023E0
:102CC000802212A11448019403F070F90220CDE98A
:102CD0000004C201002311A1134803F067F91CBDD1
:102CE0005B494E464F5D203E3E200000496E6974B0
:102CF000205461736B0000000D0A00005461736B77
:102D00005265706F72740000654000085461736B07
:102D1000427574746F6E0000693F00085461736BF4
:102D20005072696E74657200D53F00081CB5084981
:102D30000022D1E90001CDE900010121684601F03E
:102D400057FE0449486042F2107101F087FE1CBD35
:102D500034650008F0000020FEB5002517480095F6
:102D6000019515490295016089158160057301245B
:102D70000475022606614FF460214560C0E90641F2
:102D8000FEF780FA08B1FEF775F907200095CDE946
:102D9000014069460948FEF7F3F908B1FEF76AF900
:102DA000CDE9004669460548FEF7EAF9002801D05A
:102DB000FEF760F9FEBD000000240140C0070020BE
:102DC00000B587B01C2206496846FDF707FA0021C6
:102DD000684601F0E3FD0349086007B000BD00004C
:102DE000D4640008000000202DE9F04385B00024E1
:102DF00035480094019402940394816941F02001C4
:102E00008161816901F020010491816941F004012F
:102E10008161816901F004010491816941F0080137
:102E200081618069DFF8A48000F00800049000222E
:102E30004FF6C1714046FEF7ECFC012202214046EC
:102E4000FEF7E7FCDFF888904FF400670022394670
:102E50004846FEF7DEFC102001258DE8310069466A
:102E60004846FEF7E1FB0320CDE900050226CDE947
:102E7000025669464046FEF7D7FB4FF6C070CDE9D3
:102E80000005CDE9024669464046FEF7CDFB280223
:102E900000901048CDE9010469464846FEF7C4FB9E
:102EA00000970396CDE9015469464846FEF7BCFBFE
:102EB000002205211720FEF74FFD1720FEF73EFDEB
:102EC00005B0BDE8F083000000100240000C014096
:102ED0000008014000001110114810B50F490160B1
:102EE0004FF4827141604FF4004181600021C16064
:102EF0004FF400720161C0E905120822C0E9072100
:102F0000416281620A21C162FFF7ACF8002803D058
:102F1000BDE81040FEF7AEB810BD00000030014023
:102F2000F007002010B586B00024174800940194E3
:102F30000294039404941349059401604721C0E965
:102F400001144FF6FF71C0E9031444618461FFF777
:102F5000FFF908B1FEF78EF84FF4805000906946F3
:102F60000948FFF763FA08B1FEF784F8049404A94E
:102F700005480594FFF7B8F9002801D0FEF77AF864
:102F800006B010BD002C0140480800200C4810B5C8
:102F90000A4901604FF4E1314160002181600C2257
:102FA000C160C0E904128161C161FFF76EFB0028B6
:102FB00003D0BDE81040FEF75DB810BD00380140F9
:102FC000900800200C4810B50A4901604FF4E13127
:102FD0004160002181600C22C160C0E9041281615E
:102FE000C161FFF752FB002803D0BDE81040FEF797
:102FF00041B810BD00440040D8080020FEE70000A2
:1030000070B5134DA5F10804207815F8201016208E
:1030100000F0A6F8207805EB80004178132000F03E
:103020009FF8207805EB80008178172000F098F851
:10303000207805EB8000C178152000F091F8207809
:10304000401CC0B22070082801D30020207070BD41
:10305000940000202DE9F0410546254C0027DFF8BB
:10306000948040E0224E2078083616F82010162072
:1030700000F076F8207806EB80004178132000F00D
:103080006FF8207806EB80008178172000F068F850
:10309000207806EB8000C178152000F061F82078D8
:1030A000401CC0B22070082800D32770D8F8001048
:1030B0004F62D8F800100A6842F001020A60D8F89E
:1030C00000004FF47A61426A8A42FCD3016A41F2FD
:1030D0001112114207D1016A9210114203D1016805
:1030E00021F0010101606D1EBCD2BDE8F08100003D
:1030F0008C000020480800201CB5094C606850B9BD
:1031000008490022D1E90001CDE90001012168460A
:1031100001F06EFC6060BDE81C40022101F09EBC25
:103120008C0000202C65000810B50021162000F04E
:1031300017F80021132000F013F80021172000F0E9
:103140000FF80021152000F00BF804484068002813
:1031500003D0BDE8104001F0AFBC10BD8C000020D2
:103160000C4B16280AD013280CD017280DD0152880
:103170000FD1CAB280211846FEF74BBBCAB24FF43A
:103180008071F8E7CAB24021F5E7CAB24FF4007186
:10319000F1E77047000C014010B50C4678B1FFF71D
:1031A000C3FFFDF71DFF00211120FDF75BFF00F0BD
:1031B00064FD01210C20FDF71BFF012010BDFFF76E
:1031C0001FFFFF2C07D0204600F072FA0320FFF704
:1031D00041FF002010BD0024204600F069FA0AE0FB
:1031E000204600F065FA012C03D0032C01D0052CF9
:1031F00001D1FFF705FF641CE4B2062CF0D3E8E729
:10320000FEE700001CB5094C002000226070084851
:10321000D0E90210CDE900101146684601F0E8FB44
:1032200044F62061A06001F019FC1CBDF0000020F4
:10323000346500080149012048707047F000002003
:1032400010B50446FDF78AFF08B1012010BDFDF757
:1032500081FFC078012804D0FDF77CFF80784128E9
:1032600008D91CB1FDF7A2FEFDF788FC012000F093
:10327000C9F8EAE7002010BD10B500F007F800F02B
:1032800079F8BDE8104000F063B8000070B5FDF7B4
:1032900021FF64240E4D0F4EA0F60200FDF725FA23
:1032A0003146FDF750F82946FDF71BF8FDF738FACF
:1032B000002800DA00200546FDF74CFF4570FDF7B9
:1032C00049FF4078642802D9FDF744FF447070BD7F
:1032D0000000C8420000F54310210148FEF794BAEF
:1032E0000008014070B5134DA5F10804207815F8C9
:1032F00020101620FFF734FF207805EB800041787E
:103300001320FFF72DFF207805EB80008178172030
:10331000FFF726FF207805EB8000C1781520FFF726
:103320001FFF2078401CC0B22070082801D3002065
:10333000207070BD940000200448017819B100216C
:10334000017001207047002070470000E00000205D
:1033500010B54FF480710648FEF756FA20B1FDF71C
:10336000F9FE0121C17010BDFDF7F4FE0021F9E75F
:103370000008014010B5FDF77FFE0749884206DBD3
:10338000FDF7E7F90446FDF7E5FE847010BDFDF793
:10339000E1FE0021817010BD95BFD63370B5164D8A
:1033A0000A21286802F00CFD012823D11348D0F827
:1033B0009813C9B1491EC0F89813D0F89043611C06
:1033C000C0F89013B1F5897F02D90021C0F890139D
:1033D00000231A461946286802F048FB084904EB06
:1033E000440001EB001070BD00231A4619462868FE
:1033F00002F03CFB002070BD08010020484800207E
:10340000481800202DE9F041002641F21115604CCA
:10341000AF10A8B1012832D002287DD003287CD17A
:1034200000211220FDF714FE206846622068016822
:1034300041F0010101602068416A6429FCD30EE07B
:1034400000211220FDF704FE206846622068016812
:1034500041F0010101602068416A6429FCD3016ADE
:10346000294206D1016A394203D1016821F00101E4
:103470000160BDE8F04101211220FDF7E9BD002106
:103480001220FDF7E5FD206846622068016841F0E2
:10349000010101602068416A6429FCD3016A294264
:1034A00006D1016A394203D1016821F001010160AE
:1034B00001211220FDF7CCFD2068466220680168DA
:1034C00041F0010101602068416A6429FCD3016A6E
:1034D000294206D1016A394203D1016821F0010174
:1034E000016000211220FDF7B3FD206846622068CC
:1034F000016841F0010101602068416A6429FCD340
:10350000016A294206D1016A394203D1016821F0DA
:1035100001010160012101E028E037E01220FDF700
:1035200097FD206846622068016841F00101016052
:103530002068416A6429FCD3016A294206D1016AE4
:10354000394203D1016821F00101016000211220FC
:10355000FDF77EFD206846622068016841F00101A8
:1035600001602068416A6429FCD378E700211220B9
:10357000FDF76EFD206846622068016841F0010198
:1035800001602068416A6429FCD368E7BDE8F081E6
:103590004808002010B5FDF7DDFD0446007801283D
:1035A00015D1207908B1032811D100202070012005
:1035B0002071FDF7E3FA0AA000F074FE0BA000F002
:1035C00071FE11A000F06EFE0220FFF71BFF2079B4
:1035D000012803D100F09EFB0320207110BD0000E4
:1035E0005B494E464F5D203E3E20000052756E5FA7
:1035F0005072696E7465723A5072696E74657220A9
:1036000053746172740000000D0A000010B5FDF7DC
:10361000ABFD88B1FDF7D2FCFFF72EFEFDF794FD60
:1036200050B10EA000F03EFE0FA000F03BFE16A031
:1036300000F038FEFDF7A2FAFFF77EFE00280CD05E
:1036400006A000F02FFE11A000F02CFE0EA000F04E
:1036500029FEBDE81040FDF791BA10BD5B494E460A
:103660004F5D203E3E20000052756E5F5265706FC8
:1036700072743A205265706F727420446576696383
:1036800065205374617465000D0A000052756E5F09
:103690005265706F72743A20506170657220697261
:1036A000712C204E656564205265706F7274000045
:1036B0002DE9F05F41F21115DFF8C8A3DFF8C893D8
:1036C000DFF8C8B3AE10F24C062859D2DFE800F09C
:1036D000035AA6F6F4F301210E20FDF789FC2168B8
:1036E000002048622068016841F001010160A046A5
:1036F000E8480078FDF707F800225346FCF786FFFC
:1037000004460F465946D9F80000FCF792FDFDF734
:1037100034F822463B46FCF707FF0746D8F800007E
:103720000C46406AFCF7EFFF3A462346FDF738F8AF
:10373000DED3D8F800004446016A294206D1016A66
:10374000314203D1016821F00101016000210E2006
:10375000FDF74EFC2168002048622068016841F0B6
:10376000010101602068416AC829FCD3016A29422D
:1037700006D1016A314203D1016821F001010160E3
:10378000BDE8F09F01211B20FDF732FC21680020DD
:1037900048622068016841F001010160A046BD480F
:1037A0000078FCF7B0FF00225346FCF72FFF0446D9
:1037B0000F465946D9F80400FCF73BFDFCF7DDFF46
:1037C0003B462246FCF7B0FE0446D8F800000F4600
:1037D000406AFCF798FF22463B46FCF7E1FFDED348
:1037E000D8F800004446016A294206D1016A3142F4
:1037F00003D1016821F00101016000211B20FDF7C8
:10380000F7FB2168002048622068016841F001014F
:1038100001602068416AC829FCD3A7E701211A206A
:10382000FDF7E6FB2168002048622068016841F04E
:1038300001010160CA46A14696480078FCF763FF83
:103840000022904BFCF7E2FE0C4607465946DAF898
:103850000800FCF7EEFCFCF790FF3A462346FCF725
:1038600063FE0746D9F800000C46406AFCF74BFFA0
:103870003A462346FCF794FFDED3D9F800004C46C5
:10388000016A294206D1016A314203D1016821F05F
:103890000101016000211A20FDF7AAFB2168002028
:1038A00048622068016841F0010101602068416AB6
:1038B000C829FCD35AE799E04CE0FFE70121192021
:1038C000FDF796FB2168002048622068016841F0FE
:1038D00001010160A0466F480078FCF714FF002248
:1038E0005346FCF793FE0C4607465946D9F80C00A0
:1038F000FCF79FFCFCF741FF3A462346FCF714FE19
:103900000746D8F800000C46406AFCF7FCFE3A4631
:103910002346FCF745FFDED3D8F800004446016A91
:10392000294206D1016A314203D1016821F0010127
:10393000016000211920FDF75BFB2168002048622F
:103940002068016841F0010101602068416AC829CE
:10395000FCD30BE701212120FDF74AFB2168002061
:1039600048622068016841F001010160A0464948B1
:103970000078FCF7C8FE00225346FCF747FE0746D6
:103980000C465946D9F81000FCF753FCFCF7F5FE3D
:103990003A462346FCF7C8FD0746D8F800000C4617
:1039A000406AFCF7B0FE3A462346FCF7F9FEDED348
:1039B000D8F800004446016A294206D1016A314222
:1039C00003D1016821F00101016000212120FDF7F0
:1039D0000FFB2168002048622068016841F0010166
:1039E00001602068416AC829FCD3BFE6012120207C
:1039F000FDF7FEFA2168002048622068016841F066
:103A000001010160A04623480078FCF77CFE0022FB
:103A10005346FCF7FBFD07460C465946D9F81400FF
:103A2000FCF707FCFCF7A9FE3A462346FCF77CFDB1
:103A30000746D8F800000C46406AFCF764FE3A4698
:103A40002346FCF7ADFEDED3D8F800004446016AF9
:103A5000294206D1016A314203D1016821F00101F6
:103A6000016000212020FDF7C3FA21680020486290
:103A70002068016841F0010101602068416AC8299D
:103A8000FCD373E6000059408017002000802245D7
:103A900048080020B400002038B50B4600920446C8
:103AA0000022802100F008F8002804D0606D40F06A
:103AB00020006065032038BD2DE9F8431E4691467D
:103AC00088460446089DFDF7A9FE401B351AFDF700
:103AD000A5FE074625480068C0F3CB30684338E0B0
:103AE000701C37D0FDF79AFEC01BA84203D215B157
:103AF000009860B32CE02068416821F0E00141604B
:103B00006068B0F5827F0BD1A068B0F5004F02D09D
:103B1000B0F5806F04D12068016821F04001016098
:103B2000A06AB0F5005F09D12068016821F4005156
:103B300001602068016841F400510160012084F8AF
:103B40005100002084F850000320BDE8F8830025D0
:103B5000401E00902068816838EA010004D00021EE
:103B60004945BDD10020F0E70121F9E7140000200C
:103B700010B5084804680AE007A000F093FB211D77
:103B800008A000F08FFB0CA000F08CFBA46C002CB4
:103B9000F2D110BDFC0000205B494E464F5D203E37
:103BA0003E200000427574746F6E206E6F64652055
:103BB00068617665202573000D0A00002DE9F0414B
:103BC0000746FDF701FA254D0024002606EBC40048
:103BD000385CFCF793FD55F82410FCF72AFB761CA3
:103BE000F6B245F82400082EF0D30146FCF779FB25
:103BF000FCF7C3FD1A4A1B4BFCF796FCFCF7E8FDEB
:103C000045F82400641CE4B2062CDED3302138468B
:103C100000F04EF800210C20FDF7EAF912480021CF
:103C20000268516201680A6842F001020A60006895
:103C3000416A0029FCD0016A41F21112114207D1F8
:103C4000016A9210114203D1016821F00101016063
:103C5000BDE8F04101210C20FDF7CAB98017002012
:103C6000FCA9F1D24D62503F4808002000215522A6
:103C70004254491CF029FBD3704710B500210E2097
:103C8000FDF7B6F900211B20FDF7B2F900211A203B
:103C9000FDF7AEF900211920FDF7AAF90021212036
:103CA000FDF7A6F90021BDE810402020FDF7A0B9DE
:103CB0000A460146FF230148FEF75CBAF0070020E0
:103CC000012000F05FFEFBE72DE9F04100251746DB
:103CD00080460C462E46FEF7B1FFAF4205D920467E
:103CE000FFF76CFF3034303500E0012641463046A6
:103CF000FFF752FA38B9FDF731FA20B90020FFF783
:103D00009FFA0028E9D02820FFF7A4F9BDE8F04188
:103D1000FFF70ABA10B5FEF791FF00BFFDF72AFAC8
:103D200050B1FFF73BFB50B1FFF748FFFF210020E8
:103D3000FFF732FA58B902E0FF210120F8E7FDF75A
:103D40000DFA20B90120FFF77BFA0028E6D06420A5
:103D5000FFF780F9FFF7E8F9BDE81040FDF720B95B
:103D60000149012008707047F00000202DE9F04162
:103D70000D46070004464FF0000600D045B94FF449
:103D8000A1720CA111A000F08DFA01E0761CF6B230
:103D900015F8010B04F8010B0028F7D1202E05D3EC
:103DA0004FF4A57203A109A000F07CFA3846BDE8E3
:103DB000F08100002E2E5C436F72655C68616C5C64
:103DC00041755F427574746F6E2E63000A4572729E
:103DD0006F723A25732C25640D0A000010B550202F
:103DE00080F31188BFF34F8FBFF36F8F02F04AF952
:103DF00018B104494FF080500860002080F311880A
:103E000010BD000004ED00E030B593B028216846F5
:103E1000FCF7FDF914210AA8FCF7F9F900250120A7
:103E20000F9510951195010412958DE823000490CB
:103E30004FF4E010CDE90810022407946846FDF71E
:103E400081FF08B172B6FEE70AA90F2081E83100B0
:103E50004FF48060CDE90D0502210AA8FDF776FE3A
:103E600008B172B6FEE74FF4004011900F940FA80E
:103E7000FDF7F6FD002801D072B6FEE713B030BDA5
:103E8000704700000148FEF740BB000020090020F9
:103E9000F0B50268164B174C174D4FF0804798420B
:103EA00005D0B84203D0A04201D0A84203D122F0ED
:103EB00070064A683243984205D0B84203D0A04207
:103EC00001D0A84203D122F44074CA6822434C694D
:103ED00022F08002224302608A68C2620A6882621B
:103EE000984201D10969016301214161F0BD0000DF
:103EF000002C0140000400400008004010B5846818
:103F000042EA032224F47F440A432243826010BD24
:103F1000826822F070020A4342F007018160704714
:103F200010B5036A046A24F001040462846924F071
:103F3000F00444EA021423F00A020A438461026294
:103F400010BD10B5036A046A24F010040462846989
:103F500023F0A00324F4704444EA023243EA01113E
:103F60008261016210BD000000240CA000F09AF9EB
:103F70000DA00CE0FCF77CFF142001F047FB641C53
:103F8000FA2CF7DB002405A000F08CF90BA000F060
:103F900089F90FA000F086F9ECE700005B494E4676
:103FA0004F5D203E3E2000005461736B20427574CB
:103FB000746F6E20496E6974000000005461736B69
:103FC00020427574746F6E20496E666F00000000A9
:103FD0000D0A00000024FEF74BFC13A000F062F96C
:103FE00014A000F05FF918A000F05CF90027174D4D
:103FF00041F28836FCF7E2FDFFF7CCFA012001F030
:1040000005FB287810B12F7000F062F8641CB442F0
:10401000F0DB002404A000F045F90DA000F042F907
:1040200009A000F03FF9E5E75B494E464F5D203EB1
:104030003E2000005461736B205072696E7465728B
:1040400020496E69740000000D0A00000001002084
:104050005461736B205072696E74657220496E668C
:104060006F00000000240CA000F01CF90DA00CE073
:10407000FFF7CCFA642001F0C9FA641C322CF7DB9C
:10408000002405A000F00EF90BA000F00BF90FA022
:1040900000F008F9ECE700005B494E464F5D203E1A
:1040A0003E2000005461736B205265706F72742063
:1040B000496E6974000000005461736B2052657092
:1040C0006F727420496E666F000000000D0A0000D8
:1040D00010B5C8B0F0246846FFF7C8FD224669460F
:1040E0000020FFF7F1FD6846FFF7C0FD2246694654
:1040F0000120FFF7E9FD6846FFF7B8FD2246694653
:104100000220FFF7E1FD6846FFF7B0FD2246694651
:104110000320FFF7D9FD6846FFF7A8FD2246694650
:104120000420FFF7D1FD6846FFF7A0FD224669464F
:104130000520FFF7C9FD48B010BD000070B504466A
:1041400000680169E26821F440511143016121696D
:10415000A0680843616908432168CA6841F20C639A
:104160009A430243CA6020684169A26921F4407100
:10417000114341611E492068884202D1FDF7ACFD20
:1041800001E0FDF799FD00EBC00101EB0012606852
:1041900064218000B2FBF0F3B3FBF1F36FF018067B
:1041A0007343B2FBF0F5B2FBF0F605EB8305322367
:1041B00003EB0515B5FBF1F5B6FBF1F605F0F005DF
:1041C00005EB0615B2FBF0F6B2FBF0F0B0FBF1F038
:1041D0006FF01802504306EB800003EB0010B0FBB9
:1041E000F1F0216800F00F002844886070BD0000E5
:1041F0000038014081628285C2850021416422210C
:1042000080F84210016921B10168CA6842F48072E5
:10421000CA6001684A6942F001024A610068C168E7
:1042200041F02001C160002070472DE9F04198461F
:1042300017460E460446069D27E0681C25D02DB182
:10424000FDF7ECFAA0EB0800A8421ED920680C305C
:1042500050E8001F21F4D07140E80012002AF5D187
:104260002068143050E8001F21F0010140E80012DE
:10427000002AF5D1202084F8410084F84200002073
:1042800084F840000320BDE8F0812068006836EA29
:10429000000004D00020B842CFD00020F3E7012076
:1042A000F9E7FEE70FB4054B10B503A9044A0298DD
:1042B00000F094F810BC5DF814FB00009545000870
:1042C000100100200907090E002804DB00F1E0209E
:1042D00080F80014704700F00F0000F1E02080F833
:1042E000141D70472DE9F0414F1E00EBC701044635
:1042F000D1E9000115461E4637F006020DD02A46C8
:104300003346FCF711F97F1E04EBC703D3E9002302
:10431000FCF763F837F00602F1D1022F25D0042F05
:1043200013D0062F18BFBDE8F0812A463346FCF7AC
:10433000FBF8D4E90A23FCF750F82A463346FCF789
:10434000F3F8D4E90823FCF748F82A463346FCF78B
:10435000EBF8D4E90623FCF740F82A463346FCF78D
:10436000E3F8D4E90423FCF738F82A463346FCF78F
:10437000DBF8D4E90223FCF730F82A463346FCF791
:10438000D3F8D4E90023BDE8F041FCF726B80000DB
:104390000022134610460149FCF738B90000F03FEF
:1043A0000122FCF7FCBA0022134610461146FCF726
:1043B0002DB902E008C8121F08C1002AFAD17047BF
:1043C0007047002001E001C1121F002AFBD1704795
:1043D0000149086070470000140100202DE9FF4FDB
:1043E0008BB09A460F460546002606E025280BD0DE
:1043F00052460D9990476D1C761C28780028F5D1FF
:104400000FB03046BDE8F08F0024A046012260497D
:1044100000E0044315F8013F203B02FA03F0084294
:10442000F7D128782E2817D115F8010F44F004048D
:104430002A280ED06FF02F022878A0F13001092928
:104440000AD808EB880102EB410100EB01086D1C62
:10445000F2E757F8048B6D1C287869283ED006DCFB
:104460000028CDD063280BD0642804D136E073280F
:1044700010D075284BD052460D999047761C85E098
:1044800017F8040B8DF8000000208DF80100E946B4
:10449000012003E057F8049B4FF0FF3061074FF015
:1044A000000401D40AE0641C44450DDA8442FADBBE
:1044B00019F804100029F6D106E0641C8442FCDBE4
:1044C00019F804100029F8D1264404E019F8010B6A
:1044D00052460D999047641EF8D257E001CF4FF035
:1044E0000A0B002802DA40422D2102E0210504D502
:1044F0002B218DF82410012103E0E10705D02021B4
:10450000F7E70DF1200908910CE00021F9E701CF50
:104510004FF00A0BF9E75946FCF776F901F1300242
:1045200009F8012D0028F6D1ADEB090000F1200BB0
:10453000600701D44FF00108D84502DDA8EB0B005D
:1045400000E000208046002406E009A85246005DF5
:104550000D999047641C761C08988442F5DB04E0B2
:10456000302052460D999047761CB8F10001A8F111
:104570000108F5DC05E019F8010B52460D9990474A
:10458000761CBBF10001ABF1010BF4DC6D1C34E7D0
:104590000928010013B54FF6FF730122694602484E
:1045A000FEF70AF900981CBD90080020EFF3058083
:1045B000002800D0012070472DE9F04DC84A0024A2
:1045C00090B0914205DA21F00043934201D805D121
:1045D00020B110B0BDE8F04DFFF7E2BEB1F5801F8D
:1045E0001BDA53EA000209D0002911DA0120FFF793
:1045F000EFFE10B0BDE8F04DFFF7D5BE0220FFF78B
:10460000E7FEFFF7C5FE10B081F00041BDE8F08D78
:104610006FF035043622FCF7C2F904EB2152C1F3E6
:104620001308B049A2F2FF33414401F4801282F032
:104630007F6103EB225281F04051009241EA080170
:104640000022A94BFBF76AFF044608F10200A74EBF
:10465000C0F313000D467E44032867D2D6E9002339
:104660002046FCF79DF81ED10098002802BFD6E92D
:10467000000110B0BDE8F08DFCF7A8F907460C4624
:104680009B4A9C4BFBF750FF06460D469A4A9B4BB4
:1046900038462146FBF748FF10B032462B46BDE8AE
:1046A000F04DFBF79ABE4FF05532954B2046294608
:1046B000FBF73AFF0022934BFBF733FF06460F460A
:1046C00022462B4610461946FBF72EFF32463B4644
:1046D000FBF72AFF064600980F46F0B1FCF776F983
:1046E00080468A46824A834BFBF71EFF32463B4692
:1046F000FBF717FF22462B46FBF710FF05460C463B
:104700007D4A7E4B40465146FBF70EFF10B02A46CD
:104710002346BDE8F04DFBF701BF0B4610B0324613
:1047200020462946BDE8F04DFBF7F8BE00224FF0C9
:1047300080432046FBF751FE02460B4620462946A1
:10474000FBF764FF06460F460098FCF73FF9CDE9FA
:10475000040132463B4610463946FBF7E5FE0C9015
:1047600069480C9A4044019009910B461046FBF7AA
:10477000DBFE8246024665488B46C8F151080B466F
:1047800008F5D72803217844FFF7ACFD52465B4675
:10479000FBF7CAFE0A905E480D9152465B46042123
:1047A0007844FFF79FFD099B0C9AFBF7BDFE8446FA
:1047B00001980D9B40EA080860460A9AFBF70DFE37
:1047C00083460891B8F1000F4EDD4FF0FF322046CE
:1047D0002946FCF7E4F822462B46FBF7A5FE804667
:1047E00000988A4660B3DDE90401414A414BFBF77A
:1047F0009BFE099100905A4640465146089BFBF7A4
:10480000ECFD32463B46FBF78FFE099B009AFBF717
:10481000E4FD42465346FBF784FE22462B46FBF757
:104820007DFE04460D46DDE90401334A334BFBF7B8
:104830007BFE10B022462B46BDE8F04DFBF76EBE66
:104840005A464046089BFBF7C8FD32463B46FBF7FD
:104850006BFE42465346FBF764FE10B022462B46E1
:10486000BDE8F04DFBF75DBE009840B3DDE9040103
:104870001F4A204BFBF758FE80468A465A46204680
:104880002946089BFBF74AFE32463B46FBF74CFEA7
:1048900042465346FBF742FE22462B46FBF73EFEBE
:1048A00004460D46DDE90401134A144BFBF73CFEB8
:1048B00010B022462B46BDE8F04DFBF72FBE0B464D
:1048C0005A4620462946FBF729FE32463B46FBF76F
:1048D0002BFE10B022462B46BDE8F04DFBF721BE63
:1048E0000000F07F645F09000000F03F261F000019
:1048F000763C7935EF39EA3D0000E0FE422EE63F96
:104900005555D53F0000E03F86EBF9FFBE1D000086
:10491000BC1D0000FCF790FFFFF776FAFEF764FA83
:10492000FEF71AFAFEF7D8FAFEF7FCFAFEF72EFBAE
:10493000FEF748FB07A0FFF7B5FC01220C490D4824
:10494000FDF72CFFFEF798F9FEF73AFA00F021F890
:10495000FEE700002A2A2A205072696E74657220D0
:10496000496E69742076312E30202A2A2A0D0A00D9
:1049700004000020D808002001460020842900D02F
:10498000C81C704710B500B9012000F03FFE0020A0
:1049900010BD10B500F0F6FE002010BD7FB50D462D
:1049A00004464169B0F9080081B1A16971B1FFF70E
:1049B000E3FFD4E905128DE80700D4E900102B4687
:1049C000226901F020FB039004B070BDFFF7D4FF13
:1049D00003A9CDE90001208A2B4682B2D4E9001058
:1049E00001F0E4FA012801D00020EDE70398EBE79D
:1049F0001CB511C86CB1CDE90004012907D0002015
:104A000013460246012109A001F0ECFC1CBD012067
:104A1000F6E70090012907D0002013460246012145
:104A200002A001F0C5FC1CBD0120F6E7000000005B
:104A300038B505460024FFF7B9FD08B1822038BD1E
:104A40004FF0FF30002300901A460521284601F060
:104A500011FD012800D0FF24204638BD2DE9FC417E
:104A6000002507462E4601950C0000D10124FFF7D2
:104A70009DFD009690B101AB22460921384601F018
:104A8000F9FC012812D1019888B10A494FF08050F1
:104A90000860BFF34F8FBFF36F8F08E000232246FB
:104AA0000421384601F0E6FC012800D0FF25284605
:104AB000BDE8FC8104ED00E07CB5002506462C46EF
:104AC0000195FFF773FD0094A0B101AB002208210E
:104AD000304601F0CFFC012801D0FF207CBD0198B9
:104AE00088B10A494FF080500860BFF34F8FBFF381
:104AF0006F8F08E000231A460321304601F0BAFC0C
:104B0000012800D0FF2528467CBD000004ED00E010
:104B10002DE9F041184C0F46054666692068001DD6
:104B200000F044FC38B9206890F82C10012088402F
:104B3000A1698143A161681C07D137B12168BDE833
:104B4000F0410E48091D00F081BC20683544B54293
:104B50004560216805D2A068BDE8F041091D00F05C
:104B60005DBC6068091D00F059FC206B854200D2D5
:104B70002563BDE8F081000018000020840A0020B1
:104B80002DE9F041054600F06DFC2E4C2069401CDB
:104B9000206120682C4F10B1E06940B32DE0256002
:104BA0002069012829D1002606EB860007EB80004A
:104BB00000F026FC761C072EF6D323488C3000F03C
:104BC0001FFC2148A03000F01BFC1F48B43000F04F
:104BD00017FC1D48C83000F013FC1B48DC3000F007
:104BE0000FFC19488C3060601430A06005E020682C
:104BF000E96AC06A884200D82560E06A401CE06229
:104C0000E96A0120A26988401043A06101EB81009C
:104C100007EB8000291D00F019FC00F043FCE0695F
:104C200000280CD02068E96AC06A884207D2074988
:104C30004FF080500860BFF34F8FBFF36F8FBDE818
:104C4000F081000018000020A809002004ED00E019
:104C500038B500F007FC104CA068C8B90F4800F048
:104C6000CFFB0E48143000F0CBFB0C482060143012
:104C700060600A4B00202833009003F148020C21A9
:104C80000A2000F07CFEA06010B105A100F088FCB5
:104C9000BDE8384000F006BC54000020980A00200F
:104CA000546D72510000000030B4026C0B46002AB3
:104CB0000BD0C1681144C1604468A14201D30168AE
:104CC000C16030BC1846FBF789BA30BC70472DE98B
:104CD000F041856B174604460026026C82B1C7B1CD
:104CE000E068FBF77BFAE168206C091AE160226852
:104CF000914202D26168081AE060022F16D017E0D4
:104D00002068A8B9606801F021FA064600206060BA
:104D10000EE0A068FBF762FA216CA0680844A0606E
:104D20006168884204D32068A06001E005B16D1E6F
:104D30006D1CA5633046BDE8F08110B5044690F8BF
:104D4000510058B101280CD002280FD0502080F318
:104D50001188BFF34F8FBFF36F8FFEE7206B00F01A
:104D6000B5FB2046BDE8104000F0B0BB10BD000010
:104D700010484FF44061420706D0C01D0D4920F095
:104D80000700411AC1F540610B4A00230144C2E902
:104D900000030839103A21F0070111604B600B60E5
:104DA0000B1AC0E9001393604FF000405360D060CD
:104DB00070470000800B002078000020144E154C36
:104DC000A6F1C8074FF08058DFF84C9012E000BF02
:104DD00000F048FBF068C568281D00F0E7FA20697C
:104DE000401E2061E068401EE06000F05BFB28464A
:104DF000FFF7A3FFE0680028EAD138680128F9D955
:104E0000C9F80080BFF34F8FBFF36F8FF2E7000048
:104E1000700A00201800002004ED00E0002807D0F0
:104E20000021416001600B460A46C16000F01EBED1
:104E300070470346009829B10260C0E90F31012193
:104E400000F0D0BD0060F8E72DE9F0479A46DDE9B3
:104E5000098481466FF00303206B03EB8202104448
:104E6000089D20F00706700707D0502080F31188B6
:104E7000BFF34F8FBFF36F8FFEE723180A5C83F8F1
:104E800034200A5C12B1401C1028F6D3002784F8A5
:104E90004370072D00D30625E562C4E91157201D94
:104EA00000F0B9FA04F1180000F0B5FA2461C5F178
:104EB00007006462A061E76484F850705246494676
:104EC000304600F061FA2060B8F1000F01D0C8F858
:104ED0000040BDE8F0872DE9F0471E46DDE9089463
:104EE00017460D0080460ED0002C14D0FFF7B0FE00
:104EF000C4F80080C4E90657C4E90869201DBDE86C
:104F0000F04700F088BA502080F31188BFF34F8F2C
:104F1000BFF36F8FFEE7BDE8F087000030B51149A1
:104F200000E011460A688242FBD34B685C18844259
:104F300003D1406818444860084643681C189442EE
:104F400009D1084C103C2468A24209D052681A4486
:104F500042600A6812680260814200D0086030BD79
:104F60000460F9E77800002070B5002441600B4D23
:104F70000061914206D8D11A8269914206D2011D80
:104F8000686807E09A4203D2994201D3012403E002
:104F9000011D286800F042FA204670BD5400002030
:104FA00010B5044600F05EFAA06B28B15FF0000473
:104FB00000F078FA204610BD0124F9E730B587B03B
:104FC0002C4D4EE0049800284BDB069C606910B124
:104FD000201D00F0EBF902A800F0B8F80246049892
:104FE0000A283ED2DFE800F00505053D2637050515
:104FF0003D260598A169034601442046FFF7B4FF0A
:1050000000B3616A20468847E069012829D1002061
:1050100000900598A169002342181946204601F026
:1050200029FA78B9502080F31188BFF34F8FBFF36E
:105030006F8FFEE70598A06128B1811813462046BE
:10504000FFF792FF0DE0502080F31188BFF34F8FE0
:10505000BFF36F8FFEE794F8280010B9204600F0E8
:1050600035FA002204A9A86800F00EFE0028A9D194
:1050700007B030BD540000202DE9FC410F46054625
:1050800000F0C4FB01A800F061F80446019818B1D3
:1050900001F02CF9BDE8FC81224EAFB170680068C8
:1050A000A8B30027291B3A46B06800F08DFA01F03A
:1050B0001DF90028EED11C494FF080500860BFF365
:1050C0004F8FBFF36F8FE5E7A542EBD801F00EF9E4
:1050D00030682746C068C468201D00F067F9E069A1
:1050E000012810D1A0692B4641193A462046FFF706
:1050F0003BFF40B100200346014600902A4620466F
:1051000001F0B8F920B1616A20468847C2E707E09C
:10511000502080F31188BFF34F8FBFF36F8FFEE7EE
:105120000127BFE75400002004ED00E00648416875
:10513000096829B14168C968C9684968016370474D
:105140004FF0FF31FAE700001800002070B5054667
:1051500000F092FF064E04463069844203D200F00C
:1051600009F8012000E0002028602046346170BD6D
:1051700054000020F8B5194D1FE0C068C4680668E7
:10518000201D00F013F9616A20468847E069012874
:1051900013D1A0693044B04206D924616060211D5A
:1051A000286800F03BF908E0002003460146009023
:1051B0003246204601F05EF938B1286801680029BE
:1051C000DBD16968C5E90010F8BD502080F3118873
:1051D000BFF34F8FBFF36F8FFEE700005400002036
:1051E00008484068401C4FF0500080F3118804D0FC
:1051F000BFF34F8FBFF36F8FFEE7BFF34F8FBFF348
:105200006F8FFEE780000020074C2068016841B1E5
:10521000C0680021D0F80000FFF72EFFFFF7CEFE98
:10522000F3E701210020F7E7540000202DE9F041C9
:10523000044600F017F994F9455004F1240609E0FA
:10524000606A48B1304601F017F808B100F00CFA76
:105250006D1E6DB2002DF3DC4FF0FF3684F8456013
:1052600000F020F900F0FEF894F9445004F1100722
:1052700009E0206948B1384600F0FEFF08B100F0AF
:10528000F3F96D1E6DB2002DF3DC84F84460BDE8C7
:10529000F04100F007B900002DE9F0410546002774
:1052A00000F0B4FA314E306808B9FFF761FDF068DC
:1052B00005424BD1C5B3083568070ED005F007008D
:1052C000C0F108000544680707D0502080F311881A
:1052D000BFF34F8FBFF36F8FFEE72DB3706885422A
:1052E00034D82248103001460C6801E020460C46B4
:1052F0006168A94202D221680029F7D131688C4245
:1053000024D007682168016060680837411B1029B4
:105310000FD96019420708D0502080F31188BFF3DD
:105320004F8FBFF36F8FFEE710E041606560FFF7BE
:10533000F5FD61687068401A7060B268904200D2F2
:10534000B060F06801430020C4E9000100F0CEFF26
:10535000780707D0502080F31188BFF34F8FBFF339
:105360006F8FFEE73846BDE8F0810000680000203E
:105370000449086818B10868826C521C8264086885
:10538000704700001800002010B5031F4FF0807414
:105390001C601B1F21F001011960191F024B0B60DB
:1053A000143940380A6010BDE1510008D0E90132DB
:1053B00001699A60D0E901235A604A68824201D1AA
:1053C00082684A60002202610868401E086008681E
:1053D00070470000034B036003F154000860802015
:1053E0001060704718010020044B036003F1540063
:1053F00008604FF480701060704700006C0300205C
:1054000000F108014FF0FF32C0E90112C1600161F3
:1054100000210160704700210161704730B50B68C1
:105420005A1C02D000F1080202E0026904E02246A0
:10543000546825689D42FAD953684B6099608A6028
:10544000516008610168491C016030BD42684A60D2
:1054500093688B6093685960916008610168491C8A
:1054600001607047502080F31188BFF34F8FBFF366
:105470006F8F0A494868401C486001280CD10848D1
:10548000006810F0FF0F07D0502080F31188BFF3A1
:105490004F8FBFF36F8FFEE7704700008000002042
:1054A00004ED00E00849486828B1401E486001D179
:1054B00080F311887047502080F31188BFF34F8F1D
:1054C000BFF36F8FFEE700008000002070B500285A
:1054D00027D0144DA0F108046168E868014207D1A3
:1054E000502080F31188BFF34F8FBFF36F8FFEE71B
:1054F00022683AB1502080F31188BFF34F8FBFF379
:105500006F8FFEE78143616000F080F96068696831
:10551000084468602046FFF701FDBDE8704000F0D8
:10552000E5BE70BD680000204FF0E0200021016161
:10553000816105494FF47A720968B1FBF2F1491EA5
:1055400041610721016170471400002010B5FAF78E
:105550001FFE114910280ED300F1E02090F8F0034F
:105560000A78904207D2502080F31188BFF34F8F02
:10557000BFF36F8FFEE709480068896800F4E060B8
:10558000884207D9502080F31188BFF34F8FBFF3B3
:105590006F8FFEE710BD0000800000200CED00E0E2
:1055A00010B5084B002200BF53F832401CB1521C0A
:1055B000082AF9D310BD43F8321003EBC20148604A
:1055C00010BD00006809002070B515460E4604465F
:1055D000FFF748FF94F944100020491C01D184F8DA
:1055E000440094F94510491C01D184F84500FFF7A7
:1055F00059FFA06B28B92A46314604F1240000F077
:1056000051F82046BDE87040FFF710BE10B502000B
:1056100014D00F48806B38B1502080F31188BFF34D
:105620004F8FBFF36F8FFEE700F0F0F800211046B8
:10563000FFF76EFA00F05AFE002807D105494FF037
:1056400080500860BFF34F8FBFF36F8F10BD000015
:105650001800002004ED00E002498A6A02604969EE
:1056600041607047180000200149012048627047DE
:105670001800002010B50C4650B1094909681831CE
:10568000FFF7CCFE2046BDE810400121FFF740BAED
:10569000502080F31188BFF34F8FBFF36F8FFEE769
:1056A0001800002070B514460D4668B10A49096813
:1056B0001831FFF7CBFE0CB14FF0FF3521462846DD
:1056C000BDE87040FFF724BA502080F31188BFF383
:1056D0004F8FBFF36F8FFEE71800002070B50400F6
:1056E0004BD0A26CA2B1606C884200D30146E06A44
:1056F000884242D0012A40D1204D2A6894420FD1DD
:10570000502080F31188BFF34F8FBFF36F8FFEE7F8
:10571000502080F31188BFF34F8FBFF36F8FFEE7E8
:10572000E162A269002A02DBC1F10701A161144E06
:1057300000EB8000616906EB800081421DD1201DD5
:10574000FFF734FE012150B9E06A00EB800256F801
:10575000222022B9AA6901FA00F08243AA61E06A14
:10576000AA6981401143A96100EB800006EB80002B
:10577000211DBDE87040FFF769BE70BD1800002014
:10578000A809002030B587B00024039405AA04A915
:1057900003A80494FFF71EFEDDE903010094CDE9A0
:1057A0000110002315A11748059A00F02CFC164D96
:1057B000002868631FD000F02DFE012809D0401C8E
:1057C00019D1502080F31188BFF34F8FBFF36F8F33
:1057D000FEE7502080F31188BFF34F8FBFF36F8F28
:1057E0004FF0FF3028630120E8616C6107B0BDE82D
:1057F000304000F041B807B030BD000049444C458E
:1058000000000000BD4D0008180000200248816B18
:10581000491C816370470000180000201448816B08
:1058200011B1012141627047002141628169B1FAE1
:1058300081F1C1F11F0101EB81020E4951F82230C3
:105840006BB101EB820101F108034A6852684A60BA
:105850009A4201D152684A60D16801607047502075
:1058600080F31188BFF34F8FBFF36F8FFEE7000007
:1058700018000020A80900201CB5264908780190CE
:10588000FF20087008788DF800009DF800009DF852
:10589000002000F0F000904207D0502080F31188E3
:1058A000BFF34F8FBFF36F8FFEE79DF800001A4BD9
:1058B00000F0500018700720986005E09DF8002067
:1058C00052008DF80020401E9DF800201206F5D4ED
:1058D0009860032807D0502080F31188BFF34F8FC2
:1058E000BFF36F8FFEE74FF4407098600198087027
:1058F0000A48016841F470010160016841F070419B
:105900000160FFF711FE00205860FAF70BFC002041
:105910001CBD000000E400E08000002020ED00E05D
:1059200010B502460021012000F005F80446FFF7FB
:1059300075FA204610BDF8B517460E46050014D07E
:10594000DEB105FB06F04830FFF7A6FC04000AD0E4
:10595000002084F8460004F148023B4631462846C0
:105960000094FFF766FA2046F8BD502080F31188B6
:10597000BFF34F8FBFF36F8FFEE70020E3E738B52B
:10598000049D18B153B1CAB181B120E0502080F319
:105990001188BFF34F8FBFF36F8FFEE7502080F366
:1059A0001188BFF34F8FBFF36F8FFEE7502080F356
:1059B0001188BFF34F8FBFF36F8FFEE739B15020CF
:1059C00080F31188BFF34F8FBFF36F8FFEE748243A
:1059D0001C46012384F846302B460094FFF729FA31
:1059E000204638BD70B50D46040025D0FFF73AFDBE
:1059F000D4E90F20216802FB001161600021A1633E
:105A00002168A1600A46D4E90F01401E00FB012174
:105A1000E16021464FF0FF3001F8440F487004F177
:105A200010008DB1FFF7ECFC04F12400FFF7E8FC57
:105A3000FFF738FD012070BD502080F31188BFF3BF
:105A40004F8FBFF36F8FFEE721690029F0D000F080
:105A500013FC0028ECD004494FF080500860BFF3DD
:105A60004F8FBFF36F8FE3E704ED00E02DE9FF47B1
:105A700082B01D468A464FF00008040003D0BAF1F8
:105A8000000F08D011E0502080F31188BFF34F8F32
:105A9000BFF36F8FFEE7206C38B1502080F3118880
:105AA000BFF34F8FBFF36F8FFEE7022D0AD1E06B7C
:105AB000012807D0502080F31188BFF34F8FBFF328
:105AC0006F8FFEE700F0CAFA3F4F4FF000094FF02A
:105AD000805648B9049838B1502080F31188BFF33C
