:020000040800F2
:1000000080210020990100082D1A000877160008A9
:100010009119000803030008891D00080000000072
:1000200000000000000000000000000001010008C6
:10003000050300080000000045010008951A0008AB
:10004000B3010008B3010008B3010008B3010008C0
:10005000B3010008B3010008B3010008B3010008B0
:10006000B3010008B3010008B3010008B3010008A0
:10007000B3010008B3010008B3010008B301000890
:10008000B3010008B3010008B3010008B301000880
:10009000B3010008B3010008B3010008B301000870
:1000A000B3010008B3010008B3010008B301000860
:1000B000B3010008B30100082D1B0008B3010008BC
:1000C000B3010008B3010008B3010008B301000840
:1000D000B3010008B3010008B3010008B301000830
:1000E000B3010008B3010008B3010008DFF80CD029
:1000F00000F09EF800480047CD1F00088021002036
:10010000224B19680868B0E8F00F80F30988BFF344
:100110006F8F4FF0000080F311884EF00D0E704786
:100120000000000006480068006880F3088862B696
:1001300061B6BFF34F8FBFF36F8F00DF00BF00BF0B
:1001400008ED00E0EFF30980BFF36F8F0F4B1A68E3
:1001500020E9F00F106008B54FF0500080F31188CF
:10016000BFF34F8FBFF36F8F02F09CFE4FF0000084
:1001700080F31188BDE8084019680868B0E8F00FFE
:1001800080F30988BFF36F8F704700BF8C02002097
:10019000EFF3058070470000064880470648004797
:1001A000FEE7FEE7FEE7FEE7FEE7FEE7FEE7FEE727
:1001B000FEE7FEE7291B0008ED00000840EA010306
:1001C0009B0703D009E008C9121F08C0042AFAD20D
:1001D00003E011F8013B00F8013B521EF9D27047D1
:1001E000D2B201E000F8012B491EFBD27047002279
:1001F000F6E710B513460A4604461946FFF7F0FF26
:10020000204610BD30B50B460146002020220124B7
:1002100009E021FA02F59D4205D303FA02F5491BD4
:1002200004FA02F52844151EA2F10102F1DC30BDEA
:10023000064C074D06E0E06840F0010394E8070033
:1002400098471034AC42F6D3FFF754FF50390008FA
:100250007039000870B58C1810F8015B15F00703B1
:1002600001D110F8013B2A1106D110F8012B03E04F
:1002700010F8016B01F8016B5B1EF9D12B0705D457
:100280000023521E0DD401F8013BFAE710F8013BA0
:10029000CB1A921C03E013F8015B01F8015B521EBC
:1002A000F9D5A142D8D3002070BD000070B5044636
:1002B00000688168C943C90717D1816821F001012D
:1002C000816000F0D5FA05460AE000BF00F0D0FAE0
:1002D000401B022804D920688068C043C00706D0AC
:1002E00020688068C043C007F0D0002070BDA06ABD
:1002F00040F01000A062E06A40F00100E0620120DE
:1003000070BDFEE770470000F8B511A001F03EFD9A
:10031000124F8021384600F0A1FA0646791538467A
:1003200000F09CFA05464021384600F097FA044652
:10033000B915384600F092FA01462B46224608A02D
:10034000009601F023FDBDE8F84009A001F01EBDB4
:100350005B44454255475D203E3E2000000C014075
:1003600025642025642025642025642000000000E9
:100370000D0A000072B6FEE72DE9F041DFF860805B
:1003800000244FF48071404600F068FA0546402191
:10039000404600F063FA06464FF40071404600F014
:1003A0005DFA07468021404600F058FA01460D48A4
:1003B00010F82420AA420DD100EB84025378B342F6
:1003C00008D19378BB4205D1D2788A4202D1204627
:1003D000BDE8F081641CE4B2082CE9D30820F7E7FB
:1003E000000C014008030020F8B50024009490F8A8
:1003F00024202546012A12D0012280F824204A68B0
:100400001F23072A0DD20668776B521E02EB820269
:1004100093409F430B6893401F43776319E002208A
:10042000F8BD06680D2A0AD2376BD21F02EB820292
:1004300093409F430B6893401F43376309E0F76A7B
:100440000D3A02EB820293409F430B6893401F4397
:10045000F7620A68072306680A2A0AD3F7680A3A85
:1004600002EB420293409F438B6893401F43F76027
:1004700008E0376902EB420293409F438B68934048
:100480001F4337610A68102A01D0112A20D1124B6C
:1004900002689A4217D193681B0219D4936843F4F7
:1004A000000393600968102912D10C490C4A0968AD
:1004B000B1FBF2F101EB8101490000E0491E00911E
:1004C0000029FBD104E0816A41F02001816201240E
:1004D00080F824502046F8BD002401408802002006
:1004E00040420F002DE9F0414FF0000704003D4667
:1004F0007ED0A06A002628B9E66284F824602046EF
:1005000000F07EF82046FFF7D1FEA16AC90600D4AC
:1005100020B1A06A40F01000A06269E0A16A21F455
:10052000885141F00201A1626268E169237B0A43BC
:1005300047EA43010A43A1684FF48077B94209D0E2
:10054000012907D05FF0000194F814C0BCF1010F3D
:1005500002D00AE03946F7E7F3B1A36A43F020037B
:10056000A362E36A43F00103E3622368D3F804C0A3
:100570002CF4694C4CEA010CC3F804C021688B6868
:10058000DFF870C003EA0C0313438B60A168B94223
:100590000BD0012909D00CE0DFF85CC0A3690CEB9B
:1005A00043330B4343F40061DFE7218A0D05A5F5D2
:1005B00080152168CB6A23F470032B43CB6221683A
:1005C00089680E4B1940914208D1E662A16A21F078
:1005D000020141F00101A162BDE8F081A06A20F0B2
:1005E000020040F01000A062E06A40F00100E0620A
:1005F0000120F1E7FDF7E1FF00E0FFFFFE0E1FFF26
:1006000000B585B00021009101910291039100682D
:100610000E49884217D10E48816941F40071816109
:10062000816901F400710491816941F004018161E3
:100630008069694600F00400049003200090019056
:10064000044800F01BF805B000BD00000024014084
:10065000001002400008014070B5044600F008F99F
:100660000546601C02D004480078044400F000F9FC
:10067000401BA042FAD370BD7C0200202DE9F84F48
:10068000DFF8B8910024A9F1040B23460F2709F1E4
:10069000040AABF1040EC9E00125A5402A40AA4294
:1006A0007DD1674ED1F804C0ACEB0608B44532D01A
:1006B00014DCBCF1030F3AD009DCBCF1000F2AD0E6
:1006C000BCF1010F1CD0BCF1020F31D11DE0BCF117
:1006D000110F17D0BCF1120F2AD119E0B8F5881FFD
:1006E00019D006DCB8F5803F15D0B8F5801F1FD1B2
:1006F00011E0B8F5001F0ED0B8F5041F18D10AE0BC
:10070000CB6815E0CB681B1D12E0CB6808330FE007
:10071000CB680C330CE08B682BB1012B4FF0080336
:1007200003D0456104E0042302E0056100E00023FA
:10073000FF2A01D8064601E000F104064FEA8405CD
:1007400001D9A5F12005D6F8008007FA05FC28EAB2
:100750000C0803FA05F548EA0508C6F800804D685C
:10076000ED0062D5374DAE6946F00106AE61AD6968
:1007700024F0030605F001050095334D06EB050C4A
:10078000DCF80850A607360F07FA06F825EA080530
:10079000DFF8B880404503D14FF0000817E044E08F
:1007A000DFF8AC80404502D14FF001080FE0DFF8E0
:1007B000A480404502D14FF0020808E0DFF898809D
:1007C000404502D14FF0030801E04FF0040808FA59
:1007D00006F848EA0508CCF808804D68D9F80060AA
:1007E000ED024D4601D5164300E096432E604D685C
:1007F000DAF80060AD02554601D5164300E0964395
:100800002E604D68DBF80060AD035D4601D51643F0
:1008100000E096432E604D68DEF80060ED037546FB
:1008200001D5164300E096432E60641C0D682A46ED
:10083000E5407FF431AFBDE8F88F000008040140C7
:1008400000001110001002400000014000080140AB
:10085000000C014000100140001401408068084075
:1008600000D0012070470AB1016170470904FBE71D
:1008700001488068704700007C02002002488168BF
:1008800002781144816070477C020020074810B54F
:10089000016841F010010160032000F0A7F80F206B
:1008A00000F006F800F050F8002010BD00200240D3
:1008B00030B505461F4887B0C16941F00401C161E8
:1008C000C06906A900F00400009001A800F0ACF98E
:1008D0000498B0B100F0C8F940001749174AB0FBBE
:1008E000F1F11748491E0260416040F2E7320021F1
:1008F000C0E903218160816100F04AFC040003D05B
:1009000015E000F0B1F9E8E70D4800F083FC0400C1
:100910000DD11E2000F03CF8102D07D200222946F0
:100920001E2000F043F80748056000E0012407B0EE
:10093000204630BD0010024040420F000008004039
:10094000340B0020800200200F4808B5816941F077
:1009500001018161816901F001010091C16941F0EA
:100960008051C161C069002200F0805000900F21C9
:10097000901E00F01BF80548416821F0E06141F04D
:100980000071416008BD00000010024000000140FD
:10099000002809DB00F01F0201219140400980007E
:1009A00000F1E020C0F8001170470000F0B40E4BD9
:1009B0001B680C46C3F30223C3F10705042D00D9BD
:1009C0000425191D072901D2002300E0DB1E0126A2
:1009D00006FA05F1491E214099409E40761E1640B8
:1009E0003143F0BC01F0E2B90CED00E0064900F043
:1009F000070208684FF6FF03184040EA0220034A46
:100A000010430860704700000CED00E00000FA059C
:100A10002DE9F84305460078354CC00754D0E0690D
:100A20000026C00008D4E06940F08050E061E06931
:100A3000012600F0805000902E480168C90512D4AC
:100A40000168804641F480710160FFF711FF07469D
:100A500005E000BFFFF70CFFC01B642823D8D8F8BF
:100A60000000C005F6D5206A10F4407021D0A98896
:100A700001F4407181421CD0206A1F49012220F4F8
:100A800040700A6000220A602062C00711D0FFF7A0
:100A9000EFFE074641F2883808E000BFFFF7E8FEA6
:100AA000C11B414502D90320BDE8F883206A8007B5
:100AB000F4D5206A696820F44070084320621EB1B2
:100AC000E06920F08050E0612878800705D56068F3
:100AD000A96820F44040084360602878C00605D526
:100AE0006068E96820F48000084360600020DBE76C
:100AF0000010024000700040400442422DE9F047DF
:100B00000F46050061D0434E306800F00700B84240
:100B100009D2306820F0070038433060306800F0B8
:100B20000700B84251D128683B4C810712D54007D5
:100B300003D5606840F4E06060602878000703D562
:100B4000606840F4605060606068A96820F0F00060
:100B5000084360602878C00728D06868012810D052
:100B60002168022810D0890700292EDA616821F057
:100B7000030101436160FFF77BFE804641F2883943
:100B80000DE021688903EFE78901EDE7FFF770FECB
:100B9000A0EB0801494502D90320BDE8F087606851
:100BA000696800F00C00B0EB810FEFD1306800F005
:100BB0000700B8420BD9306820F007003843306096
:100BC000306800F00700B84201D00120E5E728783E
:100BD000400705D56068E96820F4E060084360607C
:100BE0002878000706D56068296920F4605040EA3B
:100BF000C100606000F058F86168084AC1F3031151
:100C0000515CC8400649086006480068FFF750FE7E
:100C10000020C2E7002002400010024022390008F4
:100C200088020020800200200F2202600C4A5368D4
:100C300003F003034360536803F0F00383605368D9
:100C400003F4E063C36052684FF4E06303EAD20246
:100C500002610448006800F0070008607047000067
:100C6000001002400020024004480549006849681D
:100C7000044AC1F30221515CC84070478802002039
:100C800000100240323900080448054900684968EC
:100C9000044AC1F3C221515CC84070478802002059
:100CA00000100240323900080E4A51680E4801F027
:100CB0000C03042B11D0082B0FD10C48C1F3834334
:100CC000C903C05C0AD55168084AC1F34041921E6D
:100CD000515C054A5043B0FBF1F07047044948436A
:100CE000704700000010024000127A00123900081C
:100CF00000093D002DE9F84F040070D02078C04D68
:100D0000C00749D06868C0F38100012807D068682F
:100D1000C0F38100022809D16868C00306D528689D
:100D2000800339D560680028E7D035E06068B0F509
:100D3000803F0BD010B1B0F5A02F11D0286820F45F
:100D400080302860286820F4802002E0286840F481
:100D500080302860606890B1FFF78AFD06460AE09F
:100D6000286840F480202860F0E700BFFFF780FD8E
:100D7000801B642873D828688003F7D50CE0FFF740
:100D800077FD064605E000BFFFF772FD801B642873
:100D9000F0D828688003F7D420789A4E80074FF067
:100DA00001094FF0000839D5686810F00C0F07D022
:100DB0006868C0F38100022809D16868C00306D4BE
:100DC0002868800714D52069012808D110E020691F
:100DD000B0B1C6F80090FFF74BFD074605E00AE109
:100DE000FFF746FDC01B0228C4D828688007F7D546
:100DF0002868616920F0F80040EAC10028600DE031
:100E0000C6F80080FFF734FD074604E0FFF730FD29
:100E1000C01B022823D828688007F7D42078000751
:100E20002CD57948A169D9B1C0F80090FFF720FD11
:100E3000074604E0FFF71CFDC01B02280FD8686AB4
:100E40008007F7D571484FF4FA510068B0FBF1F014
:100E5000009000BF0098411E0091FAD20EE080E0A1
:100E6000C0F80080FFF704FD074604E0FFF700FD2F
:100E7000C01B022875D8686A8007F7D4207840071D
:100E800060D5E8690027C00008D4E86940F08050C8
:100E9000E861E869012700F0805000905C48016833
:100EA000C90513D40168834641F480710160FFF7DE
:100EB000DFFC824606E000BFFFF7DAFCA0EB0A0089
:100EC00064284ED8DBF80000C005F5D5E06801289D
:100ED0000AD008B1052813D0286A20F00100286242
:100EE000286A20F0040002E0286A40F0010028622D
:100EF000E06841F2883B98B1FFF7BAFC82460BE00C
:100F0000286A40F004002862EEE700BFFFF7B0FC5B
:100F1000A0EB0A0159455AD8286A8007F6D50CE09B
:100F2000FFF7A6FC824605E0FFF7A2FCA0EB0A0152
:100F300059454CD8286A8007F6D41FB1E86920F0DB
:100F40008050E861E06988B36968C1F381010229D2
:100F500044D00228C6F8608004D0FFF789FC04461C
:100F600038E034E0FFF784FC074604E0FFF780FC3C
:100F7000C01B02282BD828688001F7D4206AB0F55E
:100F8000803F05D16868A16820F40030084368609C
:100F9000D4E908010843696821F4741108436860C2
:100FA000C6F86090FFF764FC044606E025E000BF49
:100FB000FFF75EFC001B022809D828688001F7D5DE
:100FC0001BE000BFFFF754FC001B022802D90320DE
:100FD000BDE8F88F28688001F4D40EE00128F7D02E
:100FE0006868226A00F48031914204D1616A00F499
:100FF0007010884201D00120EAE70020E8E70000F5
:101000000010024000004242800442428802002058
:101010000070004070B5040009D0606A002540B13E
:1010200025616561A56294F8510040B10CE0012092
:1010300070BD6068B0F5827FF4D0E561F2E784F8B6
:101040005050204600F040F8022084F851002068FB
:10105000016821F040010160A088218900F48270BC
:1010600001F404410843A18901F400610843217C93
:1010700001F002010843217D01F001010843218BA9
:1010800001F400710843217F01F03801084394F80E
:10109000201001F080010843218D01F40051084324
:1010A00021680860A069042101EA104021684860B5
:1010B0002068C16921F40061C1616565012084F87F
:1010C0005100002070BD000000B585B000210091E6
:1010D00001910291039100680F4988421AD10F488B
:1010E000816941F480518161816901F480510491E9
:1010F000816941F0040181618069694600F0040062
:101100000490A02000900220019003200390044846
:10111000FFF7B4FA05B000BD0030014000100240F6
:10112000000801407047704770B590F83C20012AD4
:1011300026D0012480F83C40022280F83D2003683C
:101140005A689D6822F070060A6832435A600D4B57
:1011500002689A4208D0B2F1804F05D00A4B9A42F9
:1011600002D00A4B9A4204D1496825F08003194302
:10117000916080F83D40002180F83C10084670BD29
:10118000022070BD002C0140000400400008004017
:1011900010B5040003D094F83D0010B107E0012021
:1011A00010BD002084F83C00204600F01FF802200B
:1011B00084F83D00211D206800F0BEFC012084F869
:1011C000460084F83E0084F83F0084F8400084F82C
:1011D000410084F8420084F8430084F8440084F815
:1011E000450084F83D00002010BD000008B50068EF
:1011F0000649884208D10648816941F4006181614D
:10120000806900F40060009008BD0000002C0140DF
:101210000010024090F83D10012901D001207047D4
:10122000022180F83D100168CA6842F00102CA60DC
:1012300000680B49884208D0B0F1804F05D00949B9
:10124000884202D00849884204D1816801F0070130
:10125000062903D0016841F00101016000207047B8
:10126000002C0140000400400008004070B5044616
:1012700090F83C000025012817D0012684F83C6036
:10128000022084F83D002068826822F0770222F470
:101290007F4282600868502838D00DDC20284FD06B
:1012A00005DC90B3102811D14AE0022070BD30282F
:1012B00046D040280AD13BE060282FD070280DD0BE
:1012C000B0F5805F03D0B0F5005F12D0012584F83F
:1012D0003D60002084F83C00284670BDCB68D1E911
:1012E0000121206800F05EFC2068816841F07701F0
:1012F00009E0CB68D1E90121206800F053FC2068A7
:10130000816841F480418160E1E719E0CA68496879
:10131000206800F059FC5021206806E0CA6849683E
:10132000206800F062FC6021206800F045FCCEE7F8
:10133000CA684968206800F047FC40212068F4E74B
:10134000226801461046F0E7704770B50446006811
:1013500001694FF00005C943890715D4C168C94325
:10136000890711D4E91E0161012020772068806976
:101370008007204602D0FFF7E7FF04E000F098F86E
:10138000204600F096F8257720680169C94349078F
:1013900017D4C168C943490713D46FF00401016130
:1013A000022020772068806910F4407F204602D018
:1013B000FFF7CAFF04E000F07BF8204600F079F860
:1013C000257720680169C943090716D4C168C94354
:1013D000090712D46FF0080101610420207720680A
:1013E000C0698007204602D0FFF7AEFF04E000F09E
:1013F0005FF8204600F05DF8257720680169C94351
:10140000C90617D4C168C943C90613D46FF01001C7
:101410000161082020772068C06910F4407F2046D1
:1014200002D0FFF791FF04E000F042F8204600F000
:1014300040F8257720680169C943C90708D1C16808
:10144000C943C90704D1891E0161204600F032F862
:1014500020680169C943090609D4C168C94309065E
:1014600005D46FF0800101612046FFF75BFE206824
:101470000169C943490609D4C168C943490605D46D
:101480006FF040010161204600F01EF820680169FC
:10149000C94389060BD4C168C943890607D46FF0D4
:1014A000200101612046BDE87040FFF73CBE70BDE1
:1014B0007047704700680349884201D1FFF7DEB9E1
:1014C0007047000000080040704770B5040004D069
:1014D00094F84100002510B106E0012070BD84F8A9
:1014E0004050204600F024F8242084F84100206871
:1014F000C16821F40051C160204600F0ADFB2068B6
:10150000016921F4904101612068416921F02A01BB
:1015100041612068C16841F40051C16065642020C8
:1015200084F8410084F842006563002070BD00002B
:1015300070B586B000240094019402940394234E65
:101540000368234902200322224DB34219D18B693B
:1015500043F480438B618B6903F4804304938B696C
:1015600043F004038B618969039201F00401049143
:101570000102CDE9001069462846FFF77FF82815DB
:101580001BE0154EB3421FD1CB6943F40033CB614E
:10159000CB6903F4003304938B6943F004038B613C
:1015A0008969039201F0040104910421CDE900103E
:1015B00069462846FFF762F80820CDE9000469462D
:1015C00028460294FFF75AF806B070BD0038014073
:1015D0000010024000080140004400402DE9F8439B
:1015E000044690F841001F4616460D46202802D0BA
:1015F0000220BDE8F8837DB176B10020606421202F
:1016000084F84100FFF734F9A6848046E684A06898
:10161000B0F5805F02D003E00120EAE7206910B155
:101620002E4600250EE000260CE08021204600F02A
:101630006FFBA0B9AEB116F8010B21684860E08CD1
:10164000401EE084E08C43464FF0000200970028E3
:10165000EBD14FF04001204600F05AFB30B103209F
:10166000C7E735F8020BC0F30800E6E7202084F84E
:1016700041000020BDE7FEE710B513A000F086FB97
:1016800014A000F083FB16A000F080FB00211620C0
:1016900000F0B0F90021132000F0ACF90021172070
:1016A00000F0A8F90021152000F0A4F9FEF72CFEA7
:1016B00005A000F06BFB0BA000F068FBBDE810403C
:1016C00007A000F063BB00005B44454255475D2026
:1016D0003E3E2000496E69745F4D6F746F72210049
:1016E0000D0A0000496E69745F4D6F746F72206659
:1016F000696E697368210000FEB5002517480095E2
:1017000001951549029501608915816005730124D1
:101710000475022606614FF460214560C0E9064168
:10172000FEF7E0FE08B1FEF725FE07200095CDE9A3
:10173000014069460948FEF757FE08B1FEF71AFE58
:10174000CDE9004669460548FEF74EFE002801D067
:10175000FEF710FEFEBD000000240140D409002069
:1017600000B587B01C2206496846FEF727FD002118
:10177000684600F0C5FC0349086007B000BD0000E2
:10178000F4380008780200202DE9F04385B00024E9
:1017900032480094019402940394816941F020013D
:1017A0008161816901F020010491816941F00401A6
:1017B0008161816901F004010491816941F00801AE
:1017C00081618069DFF8988000F0080004900022B1
:1017D0004FF2C3714046FFF746F8DFF888904FF4A8
:1017E0000067002239464846FFF73DF810200125E2
:1017F0008DE8310069464846FEF740FF009769468C
:101800004046CDE90145FEF739FF0320CDE900054B
:101810000226CDE9025669464046FEF72FFF4FF2F9
:10182000C070CDE90005CDE9024669464046FEF7A5
:1018300025FF280200900C48CDE90104694648467E
:10184000FEF71CFF00970396CDE901546946484610
:10185000FEF714FF05B0BDE8F08300000010024061
:10186000000C01400008014000001110114810B5A3
:101870000F4901604FF4827141604FF40041816073
:101880000021C1604FF400720161C0E90512082215
:10189000C0E90721416281620A21C162FFF7BAFBF8
:1018A000002803D0BDE81040FEF764BD10BD000065
:1018B00000300140040A002010B586B0002417480B
:1018C00000940194029403940494134905940160D4
:1018D0004721C0E901144FF6FF71C0E903144461C8
:1018E0008461FFF755FC08B1FEF744FD4FF48050CA
:1018F000009069460948FFF7B9FC08B1FEF73AFDC8
:10190000049404A905480594FFF70EFC002801D0B3
:10191000FEF730FD06B010BD002C01405C0A00202F
:101920000C4810B50A4901604FF4E13141600021D3
:1019300081600C22C160C0E904128161C161FFF7BE
:10194000C4FD002803D0BDE81040FEF713BD10BD54
:1019500000380140A40A00200C4810B50A49016073
:101960004FF4E1314160002181600C22C160C0E987
:1019700004128161C161FFF7A8FD002803D0BDE812
:101980001040FEF7F7BC10BD00440040EC0A0020F8
:10199000FEE700001CB50EA000F0F8F90FA000F063
:1019A000F5F911A000F0F2F9104C606850B9104937
:1019B0000022D1E90001CDE900010121684600F0D3
:1019C000C9FB6060BDE81C40022100F0E3BB0000E1
:1019D0005B44454255475D203E3E20004D6F746F8D
:1019E00072207374617274000D0A000000030020FD
:1019F0003C3900080C4B16280AD013280CD01728A5
:101A00000DD015280FD1CAB280211846FEF72BBF82
:101A1000CAB24FF48071F8E7CAB24021F5E7CAB202
:101A20004FF40071F1E77047000C0140FEE7000041
:101A300070B5154DA5F10804207815F82010162072
:101A4000FFF7D8FF207805EB800041781320FFF7DF
:101A5000D1FF207805EB800081781720FFF7CAFFBF
:101A6000207805EB8000C1781520FFF7C3FF2078B0
:101A7000401CC0B22070082805D300202070BDE8AB
:101A80007040FEF741BC70BD08030020012000F04B
:101A90002BFBFBE710B5502080F31188BFF34F8F6D
:101AA000BFF36F8F01F048FD18B104494FF080502B
:101AB0000860002080F3118810BD000004ED00E0F4
:101AC00030B593B028216846FEF791FB14210AA88F
:101AD000FEF78DFB002401200F9402250490009551
:101AE0001020119405901094129407946846FFF703
:101AF00001F908B172B6FEE70F20CDE90A040C9493
:101B00000D9400210AA80E94FEF7F8FF08B172B6F2
:101B1000FEE70FA80F951194FEF77AFF002801D079
:101B200072B6FEE713B030BD704700000148FFF702
:101B30000CBC0000340B0020F0B50268164B174CAB
:101B4000174D4FF08047984205D0B84203D0A042CD
:101B500001D0A84203D122F070064A68324398426D
:101B600005D0B84203D0A04201D0A84203D122F44C
:101B70004074CA6822434C6922F08002224302600A
:101B80008A68C2620A688262984201D10969016367
:101B900001214161F0BD0000002C01400004004023
:101BA0000008004010B5846842EA032224F47F4410
:101BB0000A432243826010BD826822F070020A4309
:101BC00042F007018160704710B5036A046A24F08F
:101BD00001040462846924F0F00444EA021423F04E
:101BE0000A020A438461026210BD10B5036A046AE6
:101BF00024F010040462846923F0A00324F47044E8
:101C000044EA023243EA01118261016210BD000020
:101C100008250B4EFEF7B0FB0446A842FAD009A0F7
:101C200000F0B4F8C4EBC40000EB441006EB400134
:101C300007A000F0ABF807A000F0A8F82546E9E7F8
:101C4000080000205B494E464F5D203E3E200000CC
:101C5000257300000D0A000070B504460068016994
:101C6000E26821F44051114301612169A0680843F1
:101C7000616908432168CA6841F20C639A430243D0
:101C8000CA6020684169A26921F440711143416131
:101C90001E492068884202D1FEF7F6FF01E0FEF7F8
:101CA000E3FF00EBC00101EB0012606864218000DB
:101CB000B2FBF0F3B3FBF1F36FF018067343B2FB22
:101CC000F0F5B2FBF0F605EB8305322303EB0515C7
:101CD000B5FBF1F5B6FBF1F605F0F00505EB0615E1
:101CE000B2FBF0F6B2FBF0F0B0FBF1F06FF01802CF
:101CF000504306EB800003EB0010B0FBF1F02168CD
:101D000000F00F002844886070BD000000380140DA
:101D10002DE9F041984617460E460446069D27E0F9
:101D2000681C25D02DB1FEF7A3FDA0EB0800A8424A
:101D30001ED920680C3050E8001F21F4D07140E813
:101D40000012002AF5D12068143050E8001F21F05D
:101D5000010140E80012002AF5D1202084F841005A
:101D600084F84200002084F840000320BDE8F081A0
:101D70002068006836EA000004D00020B842CFD0C6
:101D80000020F3E70120F9E7FEE700000FB4054B60
:101D900010B503A9044A029800F028F810BC5DF8B9
:101DA00014FB0000A51F0008280300200907090EE6
:101DB000002804DB00F1E02080F80014704700F0F8
:101DC0000F0000F1E02080F8141D704702E008C801
:101DD000121F08C1002AFAD170477047002001E0A5
:101DE00001C1121F002AFBD1704700002DE9FF4FEF
:101DF0008BB09A460F460546002606E025280BD0F4
:101E000052460D9990476D1C761C28780028F5D114
:101E10000FB03046BDE8F08F0024A0460122604993
:101E200000E0044315F8013F203B02FA03F00842AA
:101E3000F7D128782E2817D115F8010F44F00404A3
:101E40002A280ED06FF02F022878A0F1300109293E
:101E50000AD808EB880102EB410100EB01086D1C78
:101E6000F2E757F8048B6D1C287869283ED006DC11
:101E70000028CDD063280BD0642804D136E0732825
:101E800010D075284BD052460D999047761C85E0AE
:101E900017F8040B8DF8000000208DF80100E946CA
:101EA000012003E057F8049B4FF0FF3061074FF02B
:101EB000000401D40AE0641C44450DDA8442FADBD4
:101EC00019F804100029F6D106E0641C8442FCDBFA
:101ED00019F804100029F8D1264404E019F8010B80
:101EE00052460D999047641EF8D257E001CF4FF04B
:101EF0000A0B002802DA40422D2102E0210504D518
:101F00002B218DF82410012103E0E10705D02021C9
:101F1000F7E70DF1200908910CE00021F9E701CF66
:101F20004FF00A0BF9E75946FEF76CF901F1300260
:101F300009F8012D0028F6D1ADEB090000F1200BC6
:101F4000600701D44FF00108D84502DDA8EB0B0073
:101F500000E000208046002406E009A85246005D0B
:101F60000D999047641C761C08988442F5DB04E0C8
:101F7000302052460D999047761CB8F10001A8F127
:101F80000108F5DC05E019F8010B52460D99904760
:101F9000761CBBF10001ABF1010BF4DC6D1C34E7E6
:101FA0000928010038B504468DF8000002230122FB
:101FB00069460248FFF712FB204638BDA40A0020FC
:101FC000EFF30580002800D0012070471CB5FEF714
:101FD0005DFCFFF775FDFFF7D7FBFFF78DFBFFF704
:101FE00045FCFFF769FCFFF79BFCFFF7B5FC0122FE
:101FF00011462448FEF737FCFFF7B2FB22A0FFF79B
:10200000C5FE24A0FFF7C2FE26A0FFF7BFFE264CA8
:10201000012211462046FEF726FC1BA0FFF7B6FE64
:1020200001212046FEF71AFC014620A0FFF7AEFE74
:102030001CA0FFF7ABFEFFF71FFB00250126CDE933
:1020400000652B4680221BA11C4801F009FACDE94E
:102050000065002380221AA11B4801F001FA00F05C
:102060004AF8E51408A0FFF791FE29462046FEF73E
:10207000F5FB014615A0FFF789FE0AA0FFF786FED3
:10208000F0E70000000801405B44454255475D20F1
:102090003E3E20004465627567206E6F2065727257
:1020A0006F7221000D0A0000000C01404C45443ABB
:1020B000202564007465737400000000592A00082C
:1020C000646973706C617900111C000853544232CA
:1020D0005F50494E3A202564000000000146002070
:1020E000842900D0C81C704710B500B9012000F049
:1020F00025FE002010BD10B500F088FE002010BDA8
:102100007FB50D4604464169B0F9080081B1A16967
:1021100071B1FFF7E3FFD4E905128DE80700D4E9B8
:1021200000102B46226901F0C8F9039004B070BD7D
:10213000FFF7D4FF03A9CDE90001208A2B4682B224
:10214000D4E9001001F08CF9012801D00020EDE75E
:102150000398EBE71CB511C86CB1CDE90004012967
:1021600007D0002013460246012109A001F04AFBD6
:102170001CBD0120F6E70090012907D0002013467E
:102180000246012102A001F023FB1CBD0120F6E75D
:10219000000000002DE9FC41002507462E46019570
:1021A0000C0000D10124FFF70BFF009690B101ABAA
:1021B00022460921384601F06DFB012812D1019811
:1021C00088B10A494FF080500860BFF34F8FBFF3CA
:1021D0006F8F08E0002322460421384601F05AFBA5
:1021E000012800D0FF252846BDE8FC8104ED00E071
:1021F0002DE9F041184C0F46054666692068001D20
:1022000000F06CFC38B9206890F82C100120884050
:10221000A1698143A161681C07D137B12168BDE87C
:10222000F0410E48091D00F0A9BC20683544B542B4
:102230004560216805D2A068BDE8F041091D00F0A5
:1022400085BC6068091D00F081FC206B854200D2CE
:102250002563BDE8F08100008C020020980C00206E
:102260002DE9F041054600F095FC2E4C2069401CFC
:10227000206120682C4F10B1E06940B32DE025604B
:102280002069012829D1002606EB860007EB800093
:1022900000F04EFC761C072EF6D323488C3000F05D
:1022A00047FC2148A03000F043FC1F48B43000F048
:1022B0003FFC1D48C83000F03BFC1B48DC3000F000
:1022C00037FC19488C3060601430A06005E020684D
:1022D000E96AC06A884200D82560E06A401CE06272
:1022E000E96A0120A26988401043A06101EB8100E6
:1022F00007EB8000291D00F041FC00F06BFCE06959
:1023000000280CD02068E96AC06A884207D20749D1
:102310004FF080500860BFF34F8FBFF36F8FBDE861
:10232000F08100008C020020BC0B002004ED00E0D6
:1023300038B500F02FFC104CA068C8B90F4800F069
:10234000F7FB0E48143000F0F3FB0C48206014300B
:1023500060600A4B00202833009003F148020C21F2
:102360000A2000F021FEA06010B105A100F0B0FC31
:10237000BDE8384000F02EBCC8020020AC0C0020A4
:10238000546D72510000000030B4026C0B46002AFC
:102390000BD0C1681144C1604468A14201D30168F7
:1023A000C16030BC1846FDF709BF30BC70472DE94D
:1023B000F041856B174604460026026C82B1C7B116
:1023C000E068FDF7FBFEE168206C091AE160226815
:1023D000914202D26168081AE060022F16D017E01D
:1023E0002068A8B9606801F00BF90646002060601B
:1023F0000EE0A068FDF7E2FE216CA0680844A06032
:102400006168884204D32068A06001E005B16D1EB8
:102410006D1CA5633046BDE8F08110B5044690F808
:10242000510058B101280CD002280FD0502080F361
:102430001188BFF34F8FBFF36F8FFEE7206B00F063
:10244000DDFB2046BDE8104000F0D8BB10BD000009
:102450000F4840F6E871420705D0C01D0C4A20F035
:102460000700821A891A0B4A00230144C2E90003BB
:102470000839103A21F0070111604B600B600B1A0C
:10248000C0E9001393604FF000405360D060704784
:10249000940D0020EC020020144E154CA6F1C80744
:1024A0004FF08058DFF84C9012E000BF00F072FB54
:1024B000F068C568281D00F011FB2069401E2061EE
:1024C000E068401EE06000F085FB2846FFF7A5FFAE
:1024D000E0680028EAD138680128F9D9C9F80080F5
:1024E000BFF34F8FBFF36F8FF2E70000840C002023
:1024F0008C02002004ED00E00346009829B1026040
:10250000C0E90F31012100F083BD0060F8E72DE93B
:10251000F0479A46DDE9098481466FF00303206B9A
:1025200003EB82021044089D20F00706700707D0D5
:10253000502080F31188BFF34F8FBFF36F8FFEE7FA
:1025400023180A5C83F834200A5C12B1401C10285E
:10255000F6D3002784F84370072D00D30625E562E3
:10256000C4E91157201D00F0EEFA04F1180000F044
:10257000EAFA2461C5F107006462A061E76484F8A7
:10258000507052464946304600F054FA2060B8F187
:10259000000F01D0C8F80040BDE8F0872DE9F047F2
:1025A0001E46DDE9089417460D0080460ED0002C2B
:1025B00014D0FFF7BDFEC4F80080C4E90657C4E993
:1025C0000869201DBDE8F04700F0BDBA502080F337
:1025D0001188BFF34F8FBFF36F8FFEE7BDE8F08721
:1025E00030B5114900E011460A688242FBD34B68BE
:1025F0005C18844203D14068184448600846436828
:102600001C18944209D1084C103C2468A24209D0FD
:1026100052681A4442600A6812680260814200D01F
:10262000086030BD0460F9E7EC02002070B50024BA
:1026300041600B4D0061914206D8D11A82699142E6
:1026400006D2011D686807E09A4203D2994201D37D
:10265000012403E0011D286800F078FA204670BDCF
:10266000C802002010B5044600F094FAA06B28B10F
:102670005FF0000400F0AEFA204610BD0124F9E737
:1026800030B587B02C4D4EE0049800284BDB069CFB
:10269000606910B1201D00F021FA02A800F0B8F81E
:1026A000024604980A283ED2DFE800F00505053D01
:1026B000263705053D260598A169034601442046B5
:1026C000FFF7B4FF00B3616A20468847E06901283C
:1026D00029D1002000900598A169002342181946CD
:1026E000204601F0D7F878B9502080F31188BFF365
:1026F0004F8FBFF36F8FFEE70598A06128B1811857
:1027000013462046FFF792FF0DE0502080F311881A
:10271000BFF34F8FBFF36F8FFEE794F8280010B917
:10272000204600F06BFA002204A9A86800F0C2FD60
:102730000028A9D107B030BDC80200202DE9FC4116
:102740000F46054600F0A6FB01A800F061F804461C
:10275000019818B100F0DAFFBDE8FC81224EAFB15C
:1027600070680068A8B30027291B3A46B06800F0DB
:10277000C3FA00F0CBFF0028EED11C494FF0805087
:102780000860BFF34F8FBFF36F8FE5E7A542EBD82B
:1027900000F0BCFF30682746C068C468201D00F008
:1027A0009DF9E069012810D1A0692B4641193A46EC
:1027B0002046FFF73BFF40B1002003460146009052
:1027C0002A46204601F066F820B1616A2046884713
:1027D000C2E707E0502080F31188BFF34F8FBFF3AB
:1027E0006F8FFEE70127BFE7C802002004ED00E07D
:1027F00006484168096829B14168C968C9684968DB
:10280000016370474FF0FF31FAE700008C020020AF
:1028100070B5054600F08AFE064E044630698442D3
:1028200003D200F009F8012000E0002028602046D3
:10283000346170BDC8020020F8B5194D1FE0C068B2
:10284000C4680668201D00F049F9616A204688477F
:10285000E069012813D1A0693044B04206D924614F
:102860006060211D286800F071F908E0002003462F
:10287000014600903246204601F00CF838B1286835
:1028800001680029DBD16968C5E90010F8BD502056
:1028900080F31188BFF34F8FBFF36F8FFEE7000007
:1028A000C802002008484068401C4FF0500080F3E8
:1028B000118804D0BFF34F8FBFF36F8FFEE7BFF3D4
:1028C0004F8FBFF36F8FFEE7F4020020074C2068A4
:1028D000016841B1C0680021D0F80000FFF72EFF69
:1028E000FFF7CEFEF3E701210020F7E7C802002042
:1028F0002DE9F041044600F04DF994F9455004F1FA
:10290000240609E0606A48B1304600F0C5FE08B10F
:1029100000F042FA6D1E6DB2002DF3DC4FF0FF3671
:1029200084F8456000F056F900F034F994F9445009
:1029300004F1100709E0206948B1384600F0ACFE08
:1029400008B100F029FA6D1E6DB2002DF3DC84F899
:102950004460BDE8F04100F03DB900002DE9F041D0
:102960000546002700F096FA314E306808B9FFF7A7
:102970006FFDF06805424BD1C5B3083568070ED02E
:1029800005F00700C0F108000544680707D0502093
:1029900080F31188BFF34F8FBFF36F8FFEE72DB326
:1029A0007068854234D82248103001460C6801E036
:1029B00020460C466168A94202D221680029F7D15D
:1029C00031688C4224D0076821680160606808374C
:1029D000411B10290FD96019420708D0502080F3FD
:1029E0001188BFF34F8FBFF36F8FFEE710E0416098
:1029F0006560FFF7F5FD61687068401A7060B26845
:102A0000904200D2B060F06801430020C4E90001A8
:102A100000F07CFE780707D0502080F31188BFF3C8
:102A20004F8FBFF36F8FFEE73846BDE8F08100009F
:102A3000DC02002010B5031F4FF080741C601B1FC8
:102A400021F001011960191F024B0B601439403845
:102A50000A6010BDA528000812A0FFF797F914A07E
:102A6000FFF794F915A0FFF791F9154C10212046B6
:102A7000FDF7F4FE0028F9D11420FDF7EDFD10213B
:102A80002046FDF7EBFE0028F9D00EA0FFF77EF9F7
:102A90000FA0FFF77BF909A0FFF778F9FEF77AFF9F
:102AA000E4E700005B44454255475D203E3E200080
:102AB0005461736B546573743A0000000D0A000092
:102AC000000801405B494E464F5D203E3E2000001D
:102AD000427574746F6E204F4B210000D0E90132B3
:102AE00001699A60D0E901235A604A68824201D1A3
:102AF00082684A60002202610868401E0860086817
:102B000070470000034B036003F15400086080200D
:102B1000106070472C030020044B036003F1540045
:102B200008604FF48070106070470000800500203E
:102B300000F108014FF0FF32C0E90112C1600161EC
:102B400000210160704700210161704730B50B68BA
:102B50005A1C02D000F1080202E0026904E0224699
:102B6000546825689D42FAD953684B6099608A6021
:102B7000516008610168491C016030BD42684A60CB
:102B800093688B6093685960916008610168491C83
:102B900001607047502080F31188BFF34F8FBFF35F
:102BA0006F8F0A494868401C486001280CD10848CA
:102BB000006810F0FF0F07D0502080F31188BFF39A
:102BC0004F8FBFF36F8FFEE770470000F4020020C5
:102BD00004ED00E00849486828B1401E486001D172
:102BE00080F311887047502080F31188BFF34F8F16
:102BF000BFF36F8FFEE70000F402002070B50028DD
:102C000027D0144DA0F108046168E868014207D19B
:102C1000502080F31188BFF34F8FBFF36F8FFEE713
:102C200022683AB1502080F31188BFF34F8FBFF371
:102C30006F8FFEE78143616000F02CF9606869687E
:102C4000084468602046FFF7CBFCBDE8704000F008
:102C50005DBD70BDDC0200204FF0E020002101616D
:102C6000816105494FF47A720968B1FBF2F1491E9E
:102C700041610721016170478802002010B5FDF70E
:102C800087FA114910280ED300F1E02090F8F003E4
:102C90000A78904207D2502080F31188BFF34F8FFB
:102CA000BFF36F8FFEE709480068896800F4E060B1
:102CB000884207D9502080F31188BFF34F8FBFF3AC
:102CC0006F8FFEE710BD0000F40200200CED00E065
:102CD00010B5084B002200BF53F832401CB1521C03
:102CE000082AF9D310BD43F8321003EBC201486043
:102CF00010BD00007C0B002070B515460E46044642
:102D0000FFF748FF94F944100020491C01D184F8D2
:102D1000440094F94510491C01D184F84500FFF79F
:102D200059FFA06B28B92A46314604F1240000F06F
:102D300051F82046BDE87040FFF7DABD10B502003B
:102D400014D00F48806B38B1502080F31188BFF346
:102D50004F8FBFF36F8FFEE700F09CF80021104605
:102D6000FFF746FA00F0D2FC002807D105494FF0E2
:102D700080500860BFF34F8FBFF36F8F10BD00000E
:102D80008C02002004ED00E002498A6A0260496971
:102D9000416070478C020020014901204862704761
:102DA0008C02002010B50C4650B109490968183151
:102DB000FFF7CCFE2046BDE810400121FFF718BA0E
:102DC000502080F31188BFF34F8FBFF36F8FFEE762
:102DD0008C02002070B514460D4668B10A49096896
:102DE0001831FFF7CBFE0CB14FF0FF3521462846D6
:102DF000BDE87040FFF7FCB9502080F31188BFF3A5
:102E00004F8FBFF36F8FFEE78C02002030B587B085
:102E10000024039405AA04A903A80494FFF772FEF2
:102E2000DDE903010094CDE90110002315A1174845
:102E3000059A00F042FB164D002868631FD000F091
:102E4000F9FC012809D0401C19D1502080F31188C9
:102E5000BFF34F8FBFF36F8FFEE7502080F31188D1
:102E6000BFF34F8FBFF36F8F4FF0FF302863012008
:102E7000E8616C6107B0BDE8304000F041B807B0D0
:102E800030BD000049444C45000000009924000872
:102E90008C0200200248816B491C8163704700004E
:102EA0008C0200201448816B11B1012141627047EE
:102EB000002141628169B1FA81F1C1F11F0101EB89
:102EC00081020E4951F822306BB101EB820101F110
:102ED00008034A6852684A609A4201D152684A60BF
:102EE000D16801607047502080F31188BFF34F8F85
:102EF000BFF36F8FFEE700008C020020BC0B0020A8
:102F00001CB5264908780190FF20087008788DF8D4
:102F100000009DF800009DF8002000F0F0009042B5
:102F200007D0502080F31188BFF34F8FBFF36F8F0E
:102F3000FEE79DF800001A4B00F0500018700720C3
:102F4000986005E09DF8002052008DF80020401E9A
:102F50009DF800201206F5D49860032807D0502071
:102F600080F31188BFF34F8FBFF36F8FFEE74FF4ED
:102F700040709860019808700A48016841F4700137
:102F80000160016841F070410160FFF765FE0020BB
:102F90005860FDF7C7F800201CBD000000E400E009
:102FA000F402002020ED00E038B5049D18B153B1C3
:102FB000CAB181B120E0502080F31188BFF34F8F58
:102FC000BFF36F8FFEE7502080F31188BFF34F8F60
:102FD000BFF36F8FFEE7502080F31188BFF34F8F50
:102FE000BFF36F8FFEE739B1502080F31188BFF334
:102FF0004F8FBFF36F8FFEE748241C46012384F8F0
:1030000046302B460094FFF777FA204638BD000083
:1030100070B50D46040025D0FFF7BCFDD4E90F20A4
:10302000216802FB001161600021A1632168A16099
:103030000A46D4E90F01401E00FB0121E160214650
:103040004FF0FF3001F8440F487004F110008DB1CB
:10305000FFF76EFD04F12400FFF76AFDFFF7BAFDEC
:10306000012070BD502080F31188BFF34F8FBFF354
:103070006F8FFEE721690029F0D000F00DFB0028DA
:10308000ECD004494FF080500860BFF34F8FBFF37E
:103090006F8FE3E704ED00E02DE9FF4782B01D46A6
:1030A0008A464FF00008040003D0BAF1000F08D0A0
:1030B00011E0502080F31188BFF34F8FBFF36F8F63
:1030C000FEE7206C38B1502080F31188BFF34F8F9A
:1030D000BFF36F8FFEE7022D0AD1E06B012807D006
:1030E000502080F31188BFF34F8FBFF36F8FFEE73F
:1030F00000F00EFA3F4F4FF000094FF0805648B9EC
:10310000049838B1502080F31188BFF34F8FBFF37C
:103110006F8FFEE7FFF73EFDA06BE16B884207D3A0
:10312000022D05D00498D0B1B8F1000F1AD01EE0DE
:103130002A4651462046FFF73AF9616A19B104F16F
:10314000240000F0A9FA20B13E60BFF34F8FBFF317
:103150006F8FFFF73FFD012006B0BDE8F087FFF756
:1031600039FD22E06846FFF70FFE4FF00108FFF738
:1031700031FDFFF78FFEFFF70DFD94F94400401C71
:1031800001D184F8449094F94500401C01D184F8A1
:103190004590FFF71FFD04A9684600F027F930B1FC
:1031A0002046FFF7A5FB00F0B1FA0020D4E7FFF7B7
:1031B000F1FCA06BE16B884213D1FFF70BFD04F12A
:1031C00010000499FFF7EEFD2046FFF791FB00F099
:1031D0009DFA00289ED13E60BFF34F8FBFF36F8FE3
:1031E00098E7FFF7F7FC2046FFF782FB00F08EFA26
:1031F00090E7000004ED00E02DE9F0471F469046FF
:103200008946040003D0B9F1000F08D011E0502026
:1032100080F31188BFF34F8FBFF36F8FFEE7206CF1
:1032200038B1502080F31188BFF34F8FBFF36F8FF9
:10323000FEE7022F0AD1E06B012807D0502080F36F
:103240001188BFF34F8FBFF36F8FFEE7FFF716FDB7
:103250005020EFF3118680F31188BFF34F8FBFF337
:103260006F8FA06BE16B884206D3022F04D0002041
:1032700086F31188BDE8F08794F945503A464946EF
:103280002046FFF794F8681C04D06D1C84F8455064
:103290000120EDE7606A0028FAD004F1240000F074
:1032A000FBF90028F4D0B8F1000FF1D00121C8F8E3
:1032B0000010EDE72DE9F747002683B08A460400A9
:1032C00003D0BAF1000F08D011E0502080F311882C
:1032D000BFF34F8FBFF36F8FFEE7206C38B15020E4
:1032E00080F31188BFF34F8FBFF36F8FFEE700F0BD
:1032F0000FF9DFF8F4804FF000094FF0805748B91C
:10330000059838B1502080F31188BFF34F8FBFF379
:103310006F8FFEE7FFF73EFCA56BC5B15146204617
:10332000FFF732F86D1EA563206950B104F110005B
:1033300000F0B2F928B1C8F80070BFF34F8FBFF3A7
:103340006F8FFFF747FC012006B0BDE8F0870598B6
:1033500008B11EB106E0FFF73DFC27E06846FFF725
:1033600013FD0126FFF736FCFFF794FDFFF712FC73
:1033700094F94400401C01D184F8449094F945002C
:10338000401C01D184F84590FFF724FC05A968464C
:1033900000F02CF8002820460AD0FFF7A9FA00F028
:1033A000B5F92046FFF75EF90028B3D00020CBE73F
:1033B000FFF758F990B104F124000599FFF7F2FCEA
:1033C0002046FFF795FA00F0A1F90028A2D1C8F82D
:1033D0000070BFF34F8FBFF36F8F9BE72046FFF75F
:1033E00087FA00F093F995E704ED00E02DE9F0414C
:1033F0000C46050011D0C4B1FFF7CCFB174B5A693E
:103400006E682068911B471C17D02F689B6A9F42EB
:1034100019D0964217D8012410E0502080F311886B
:10342000BFF34F8FBFF36F8FFEE7502080F31188FB
:10343000BFF34F8FBFF36F8FFEE70024FFF7CAFB88
:103440002046BDE8F081884205D9401A2060284610
:10345000FFF79AFCF1E700202060DCE78C020020F7
:103460002DE9FF5F8346DDE90E87994616468A46B9
:103470009000FFF773FA05001CD05420FFF76EFA96
:10348000040014D00020256384F85100CDE90240E7
:10349000CDE900874B46324651465846FFF737F88C
:1034A0002046FEF7DDFE012004B0BDE8F09F28466F
:1034B000FFF7A4FB4FF0FF30F6E7F0B585B0DDE98C
:1034C0000B640A9DA6B1DCB154270097266302263F
:1034D00084F85160002604AFCDE90246CDE90057DB
:1034E000FFF715F82046FEF7BBFE049805B0F0BDC7
:1034F000502080F31188BFF34F8FBFF36F8FFEE72B
:10350000502080F31188BFF34F8FBFF36F8FFEE71A
:103510000548C16919B1806B18B1002070470120BE
:1035200070470220704700008C020020014840696B
:10353000704700008C0200202DE9F0412E4C00273E
:10354000A06B40B1206A401C2062606A00B1012774
:103550003846BDE8F0816669761C666113D1606803
:10356000006838B1502080F31188BFF34F8FBFF34C
:103570006F8FFEE76068A1686160A060A06A401C70
:10358000A062FFF735F9206BDFF87080864209D31F
:103590006068006880B16068C068C5686868864215
:1035A0000DD220632068C06A00EB800158F821002A
:1035B0000128CAD90127C8E74FF0FF30F1E7281DDD
:1035C000FFF78CFAA86A18B105F11800FFF786FA20
:1035D000E86A0121A26981401143A16100EB8001E9
:1035E00008EB8100291DFFF7C9FAE86A2168C96A5A
:1035F0008842CDD30127CBE78C020020BC0B0020F2
:1036000070B504004FF0000140D0214D286884427D
:1036100007D0502080F31188BFF34F8FBFF36F8F17
:10362000FEE7A06C38B1401EA064636CE26A9A4267
:103630002CD040B12AE0502080F31188BFF34F8F87
:10364000BFF36F8FFEE7201DFFF748FA114A0121F3
:1036500050B9E06A00EB800352F8233023B9AB691C
:1036600001FA00F08343AB61606CE062C0F10700D7
:10367000A061E06AAB6981401943A96100EB800059
:1036800002EB8000211DFFF779FA0121084670BD89
:103690008C020020BC0B00202DE9F041C068C468FA
:1036A000ACB104F118000746FFF718FA154DA86BE6
:1036B0000126A0B139461448FFF760FAE06A29688C
:1036C000C96A88421CD901206E62BDE8F081502091
:1036D00080F31188BFF34F8FBFF36F8FFEE7201D7C
:1036E000FFF7FCF9E16AAA6906FA01F01043A86144
:1036F00001EB81000449B43901EB8000211DDBE7B7
:103700000020E2E78C020020700C00202DE9F04739
:103710002C4D00242746A86B38B1FFF73BFAA86B65
:10372000401EA863A86B40B146E0502080F311888A
:10373000BFF34F8FBFF36F8FFEE72969224E012041
:10374000D1B3A6F1B40980463068E8B1F068C46826
:1037500004F11800FFF7C2F9201DFFF7BFF9E06A76
:10376000AA6908FA00F11143A96100EB800109EB95
:103770008100211DFFF702FAE06A2968C96A8842C0
:10378000E2D3C5F82480DFE70CB1FFF731F82C6AEB
:1037900044B14646FFF7D0FE00B16E62641EF9D117
:1037A00000202862686A38B1084901273807086094
:1037B000BFF34F8FBFF36F8FFFF70CFA3846BDE8AA
:1037C000F08700008C020020700C002004ED00E067
:1037D0002DE9FC4781461E46174688462C200A9D47
:1037E000FFF7BCF804000AD0CDE9005433463A464E
:1037F00041464846FEF7D2FE002084F828002046C5
:10380000BDE8FC877CB52C26DDE90654009644B162
:10381000CDE90054FEF7C2FE012084F828002046BE
:103820007CBD502080F31188BFF34F8FBFF36F8FA3
:10383000FEE7000010B586B0FEF77AFD114CA068D7
:10384000B8B100200390049005AA04A903A8FFF7CB
:1038500063F9DDE9032102208DE8070000230AA1B6
:103860000B48059AFFF729FEE06010B106B0012071
:1038700010BD502080F31188BFF34F8FBFF36F8FBF
:10388000FEE70000C8020020546D722053766300EA
:10389000CD280008FEB51E4613460200089D4FF0D5
:1038A000000014D0124CA768002F0FD0CDE90013F0
:1038B0000292062915DAFFF72BFE02284FF00003CB
:1038C0000DD000226946A068FFF7E6FBFEBD502040
:1038D00080F31188BFF34F8FBFF36F8FFEE72A4647
:1038E000F0E70023324669463846FFF785FCFEBD07
:1038F000C8020020443900088D1A000800000000AA
:103900000000000080000000000000000000000037
:10391000010202030405060708090A0B0C0D0E0F2D
:103920001010000000000000000001020304060760
:10393000080900000000010203040000311A000819
:103940000000000064656661756C745461736B00FF
:1039500070390008000000202C0300005402000809
:10396000083A00082C030020541E0000DC1D00084B
:10397000815C0D0A20015A410B6A5C1339092B4204
:103980002D0A4A2E122C420D0A027932E42D0D0A1C
:10399000B94E492B19410C262D2D2D4109214E19C7
:1039A00001894E59206A2F0A69090A102F5D0928DA
:1039B0004E0B13207C0BB95109294EAC20205C0D15
:1039C000A90E1A4133190F09194E1A2D01394E4902
:1039D0001609118A01129929AC20202F7CA90D39D2
:1039E0000CE9B4091166B99C690BDA7C0B09214812
:1039F000A132018210036D24F41AAA01D98C298FF7
:083A00002907490BC907510019
:04000005080000ED02
:00000001FF
